:1026000002778E008F828E83E0540100000070F804
:102610002278FFE4F6D8FD02781C900003EEF0A3C8
:10262000EFF078057C007D017BFF7A4D794C7E05CB
:102630007F4712495890054C7405F0A37447F07811
:10264000537C057D017BFF7A5279937E007F0F12C8
:10265000495878627C057D017BFF7A5279A27E0021
:102660007F1C124958787E7C057D017BFF7A527968
:10267000BE7E007F1C124958789A7C057D017BFF45
:102680007A5279DA7E007F1112495878AB7C057D49
:10269000017BFF7A5279EB7E007F1912495878C48A
:1026A0007C057D017BFF7A5379047E007F111249FE
:1026B0005878D57C057D017BFF7A5379157E007FA4
:1026C0001C12495878F17C057D017BFF7A537931E2
:1026D0007E007F1C124958780D7C067D017BFF7AB5
:1026E00053794D7E007F1A12495878277C067D0168
:1026F0007BFF7A5379677E007F14124958783B7CC0
:10270000067D017BFF7A53797B7E007F1C1249583E
:1027100078577C067D017BFF7A5379977E007F2175
:1027200012495878787C067D017BFF7A5379B87E10
:10273000007F16124958788E7C067D017BFF7A5304
:1027400079CE7E007F1612495878A47C067D017BE5
:10275000FF7A5379E47E007F2A1249587B017A057B
:1027600079531295AA8F3D7B017A0579621295AA59
:102770008F3E7B017A05799A1295AA8F3F7B017A69
:102780000579AB1295AA8F407B017A0579C4129521
:10279000AA8F417B017A0579F11295AA8F427B01BC
:1027A0007A0679271295AA8F437B017A06798E12D1
:1027B00095AA8F447B017A0679A41295AA8F459039
:1027C0000005740CF0A37412F0900003E0FEA3E087
:1027D000FFEE6003023475EFB40F0040030234755E
:1027E0009027E7F8282873022814023000023009E5
:1027F00002306D0230760230AF02315A0231C1022E
:1028000031CA0232EF0233750233850234280234B2
:10281000510234669000077402F0A314F09006D8B9
:10282000E0900009F0753B00853D3CE53C453B6090
:102830002CC3E53D953CFFE4953BFE74532FF58298
:1028400074053EF583E0FD740A2FF58274003EF5B1
:1028500083EDF0E53C153C7002153B80CE900039CD
:102860007407F0A37403F09006D9E0FCA3E0FDA385
:10287000E0FEA3E0FFEC12433EE4FBFA79807847E8
:1028800012422890003B1247F99006DDE0FCA3E0DD
:10289000FDA3E0FEA3E0FFEC12433EE4FBFA7980E7
:1028A000784712422890003F1247F99006E1E0FC79
:1028B000A3E0FDA3E0FEA3E0FFEC12433EE4FBFA3D
:1028C000798078471242289000431247F9753B00FF
:1028D000853E3CE53C453B602CC3E53E953CFFE432
:1028E000953BFE74622FF58274053EF583E0FD741E
:1028F000472FF58274003EF583EDF0E53C153C7002
:1029000002153B80CEE490006BF0A304F09006E744
:10291000E090006DF0601F9006D174FFF0A3744A40
:10292000F0A374CBF07B017A05797E1287A4900521
:102930004E741CF0801D9006D174FFF0A3744AF011
:10294000A374D1F07B017A05797E1287A490054E9D
:10295000741BF090054EE0753B00F53CE53C453BB3
:10296000602E90054EE0C3953CFFE4953BFE747EDF
:102970002FF58274053EF583E0FD746E2FF58274A9
:10298000003EF583EDF0E53C153C7002153B80CC34
:1029900090054EE0246EF582E43400F5837403F074
:1029A00090009D14F0A304F0E4F53BF53CC3E53C36
:1029B0009402E53B9400502674E8253CF5827406A9
:1029C000353BF583E0FF749F253CF5827400353B71
:1029D000F583EFF0053CE53C7002053B80CF753B8D
:1029E00000853F3CE53C453B602CC3E53F953CFF03
:1029F000E4953BFE749A2FF58274053EF583E0FD65
:102A000074A22FF58274003EF583EDF0E53C153C91
:102A10007002153B80CE9000CF7403F0A3F0E4F574
:102A20003BF53CC3E53C9402E53B94005059E53C42
:102A3000AE3B7802C333CE33CED8F924EAF58274A4
:102A4000063EF583E0FCA3E0FDA3E0FEA3E0FF74F7
:102A5000E8253CF5827406353BF583E0F9F812472A
:102A600098AD07AC06E53C25E0FFE53B33FE74D1AD
:102A70002FF58274003EF583ECF0A3EDF0053CE504
:102A80003C7002053B809C753B0085403CE53C4525
:102A90003B602CC3E540953CFFE4953BFE74AB2FB7
:102AA000F58274053EF583E0FD74D72FF58274003E
:102AB0003EF583EDF0E53C153C7002153B80CE9071
:102AC00001017407F0A37403F0E4F53BF53CC3E5A2
:102AD0003C9402E53B94005054E53CAE3B7802C385
:102AE00033CE33CED8F924F2F58274063EF583E076
:102AF000FCA3E0FDA3E0FEA3E0FFC004C005C00608
:102B0000C007E53CAE3B7802C333CE33CED8F924C0
:102B100003F58274013EF583D007D006D005D004BA
:102B20001247F9053CE53C7002053B80A1E4F53B0A
:102B3000F53C7B017A0579C41295AAC3E53C9FE573
:102B40003B9E502674C4253CF5827405353BF583C5
:102B5000E0FF740F253CF5827401353BF583EFF0FF
:102B6000053CE53C7002053B80C8E4900133F0A3CE
:102B700004F09006FAE0900135F0601F9006D174E1
:102B8000FFF0A3744AF0A374CBF07B017A0579D5EA
:102B90001287A490054E741CF0801D9006D174FF1E
:102BA000F0A3744AF0A374D1F07B017A0579D512B1
:102BB00087A490054E741BF090054EE0753B00F520
:102BC0003CE53C453B602E90054EE0C3953CFFE460
:102BD000953BFE74D52FF58274053EF583E0FD74B8
:102BE000362FF58274013EF583EDF0E53C153C701F
:102BF00002153B80CC90054EE02436F582E434018A
:102C0000F5837403F09001657405F0A314F0E4F506
:102C10003BF53CC3E53C9402E53B94004003022CA9
:102C2000E4E53CAE3B7802C333CE33CED8F924FB87
:102C3000F58274063EF583E0FCA3E0FDA3E0FEA36D
:102C4000E0FF74E8253CF5827406353BF583E0F936
:102C5000F8124798C004C005C006C007E53CAE3B6B
:102C60007803C333CE33CED8F92467F58274013E9E
:102C7000F583D007D006D005D0041247F9E53CAE65
:102C80003B7802C333CE33CED8F92403F5827407E0
:102C90003EF583E0FCA3E0FDA3E0FEA3E0FF74E8C3
:102CA000253CF5827406353BF583E0F9F812479828
:102CB000C004C005C006C007E53CAE3B7803C33383
:102CC000CE33CED8F9246BF58274013EF583D0075C
:102CD000D006D005D0041247F9053CE53C7002054A
:102CE0003B022C13753B0085423CE53C453B602C88
:102CF000C3E542953CFFE4953BFE74F12FF58274E9
:102D0000053EF583E0FD74772FF58274013EF5836F
:102D1000EDF0E53C153C7002153B80CE90019774B8
:102D200005F0A37402F090070FE0FCA3E0FDA3E020
:102D3000FEA3E0FF9001991247F9900713E0FCA36E
:102D4000E0FDA3E0FEA3E0FF90019D1247F9E4F54A
:102D50003BF53C7B017A06790D1295AAC3E53C9FB1
:102D6000E53B9E5026740D253CF5827406353BF5F7
:102D700083E0FF74A1253CF5827401353BF583EFB8
:102D8000F0053CE53C7002053B80C89001C9740326
:102D9000F0A37401F09006E5E0FFA3E09001CBCF33
:102DA000F0A3EFF0753B0085433CE53C453B602CD0
:102DB000C3E543953CFFE4953BFE74272FF58274F1
:102DC000063EF583E0FD74CD2FF58274013EF58358
:102DD000EDF0E53C153C7002153B80CEE49001FB24
:102DE000F0A304F0900727E09001FDF0601F90062B
:102DF000D174FFF0A3744AF0A374CBF07B017A0680
:102E0000793B1287A490054E741CF0801D9006D16A
:102E100074FFF0A3744AF0A374D1F07B017A0679B1
:102E20003B1287A490054E741BF090054EE0753B55
:102E300000F53CE53C453B602E90054EE0C3953CDB
:102E4000FFE4953BFE743B2FF58274063EF583E06C
:102E5000FD74FE2FF58274013EF583EDF0E53C151F
:102E60003C7002153B80CC90054EE024FEF582E4D8
:102E70003401F5837403F090022D7405F0A37402FD
:102E8000F090071BE0FCA3E0FDA3E0FEA3E0FF90B1
:102E9000022F1247F990071FE0FCA3E0FDA3E0FE1C
:102EA000A3E0FF9002331247F9E4F53BF53C7B01C8
:102EB0007A06790D1295AAC3E53C9FE53B9E502604
:102EC0007457253CF5827406353BF583E0FF743773
:102ED000253CF5827402353BF583EFF0053CE53C7B
:102EE0007002053B80C890025F7405F0A37401F086
:102EF00090072CE0FCA3E0FDA3E0FEA3E0FF90021E
:102F0000611247F9E4F53BF53C7B017A06790D1235
:102F100095AAC3E53C9FE53B9E50267478253CF579
:102F2000827406353BF583E0FF7465253CF58274B9
:102F300002353BF583EFF0053CE53C7002053B8034
:102F4000C89002917404F0A37401F0900730E0FF80
:102F5000A3E0900293CFF0A3EFF0753B0085443CD3
:102F6000E53C453B602CC3E544953CFFE4953BFEC6
:102F7000748E2FF58274063EF583E0FD74952FF56F
:102F80008274023EF583EDF0E53C153C7002153B82
:102F900080CE753B0085453CE53C453B602CC3E558
:102FA00045953CFFE4953BFE74A42FF58274063EE4
:102FB000F583E0FD74C32FF58274023EF583EDF0D6
:102FC000E53C153C7002153B80CE7B017A0079050B
:102FD00090054CE0A3E014FD1290E290054CE0FC5B
:102FE000A3E0FD2404F58274003CF583EFF07B013F
:102FF0007A007905E49006D3F012801612967E22AC
:103000009007D1E090073CF022E4FFFE7D807C47F2
:103010009007D1E0F8A3E0F9A3E0FAA3E0FB1241A6
:103020001F12437C90073D1247F9E4FFFE7D807C30
:10303000479007D5E0F8A3E0F9A3E0FAA3E0FB127C
:10304000411F12437C9007411247F9E4FFFE7D8047
:103050007C479007D9E0F8A3E0F9A3E0FAA3E0FBEE
:1030600012411F12437C9007451247F9229007D165
:10307000E090074BF022E4F53BF53CC3E53C9402BD
:10308000E53B9400400302347574D1253CF582740D
:1030900007353BF583E0FF744C253CF5827407351A
:1030A0003BF583EFF0053CE53C7002053B80CCE44A
:1030B000F53BF53CC3E53C9402E53B94004003023C
:1030C0003157E53C25E0FFE53B33FE74D12FF58217
:1030D00074073EF583E0FEA3E0FFEE3395E0FDFCD0
:1030E000C004C005C006C007E53CAE3B7802C33350
:1030F000CE33CED8F9FBAA06244EF58274073AF5F2
:1031000083D007D006D005D0041247F9744E2BF5B2
:103110008274073AF583C083C082E0FCA3E0FDA37C
:10312000E0FEA3E0FF744C253CF5827407353BF5C7
:1031300083E0F9F81247ACD082D0831247F9747655
:10314000253CF5827408353BF583E4F0053CE53C0D
:103150007002053B0230B4D20B22E4F53BF53CC3D0
:10316000E53C9402E53B94004003023475E53CAE37
:103170003B7802C333CE33CED8F924D1F58274071D
:103180003EF583E0FCA3E0FDA3E0FEA3E0FFC00466
:10319000C005C006C007E53CAE3B7802C333CE3362
:1031A000CED8F92456F58274073EF583D007D006B1
:1031B000D005D0041247F9053CE53C7002053B8080
:1031C0009E9007D1E090075EF022E4F53BF53CC30A
:1031D000E53C9402E53B94004003023475E53CAEC7
:1031E0003B7803C333CE33CED8F924D1F5827407AC
:1031F0003EF583E0FCA3E0FDA3E0FEA3E0FFC004F6
:10320000C005C006C007E53CAE3B7802C333CE33F1
:10321000CED8F9245FF58274073EF583D007D00637
:10322000D005D0041247F9E53CAE3B7803C333CE5A
:1032300033CED8F924D5F58274073EF583E0FCA39C
:10324000E0FDA3E0FEA3E0FFC004C005C006C00788
:10325000E53CAE3B7802C333CE33CED8F9FBAA06A9
:103260002467F58274073AF583D007D006D005D0DD
:10327000041247F9745F2BF58274073AF583C08313
:10328000C082E0FCA3E0FDA3E0FEA3E0FF744C25B8
:103290003CF5827407353BF583E0F9F81247ACD072
:1032A00082D0831247F9E53CAE3B7802C333CE337C
:1032B000CED8F92467F58274073EF583C083C082B7
:1032C000E0FCA3E0FDA3E0FEA3E0FF744C253CF589
:1032D000827407353BF583E0F9F81247ACD082D011
:1032E000831247F9053CE53C7002053B0231CF9063
:1032F00007D1E0FCA3E0FDA3E0FEA3E0FF90054FB3
:103300001247F9E4FFFEFDFC90054FE0F8A3E0F959
:10331000A3E0FAA3E0FBD312475E501490054FE000
:10332000FCA3E0FDA3E0FEA3E0FF9007731247F9C2
:103330009007D5E0FCA3E0FDA3E0FEA3E0FF90052D
:103340004F1247F9E4FFFEFDFC90054FE0F8A3E0C3
:10335000F9A3E0FAA3E0FBC312475E500302347501
:1033600090054FE0FCA3E0FDA3E0FEA3E0FF900783
:10337000771247F9229007D1E0FFA3E0900749CFE9
:10338000F0A3EFF0229007D1E090078BF0604F9010
:10339000073A7403F0FF12991E9006E8E0FF741CD0
:1033A0007EF7A807088005C333CE33CED8F9FFEEE9
:1033B0003395E0FDFC9007321247F99006E9E0FFF3
:1033C00074E47E08A807088005C333CE33CED8F94D
:1033D000FFEE3395E0FDFC9007361247F922900688
:1033E000E8E0FFE4FEA807088005C333CE33CED85B
:1033F000F9FFEE3395E0FDFC9007321247F9900695
:10340000E9E0FFE4FEA807088005C333CE33CED839
:10341000F9FFEE3395E0FDFC9007361247F9E49092
:10342000073AF0FF12991E229007D1E0FCA3E0FDBD
:10343000A3E0FEA3E0FF90077F1247F99007D5E0D5
:10344000FCA3E0FDA3E0FEA3E0FF9007831247F991
:10345000229007D1E0FCA3E0FDA3E0FEA3E0FF90F3
:1034600007901247F9229007D1E0FFA3E09007945C
:10347000CFF0A3EFF02290044FEBF0A3EAF0A3E922
:10348000F090044FE0FBA3E0FAA3E0F8AC02AD0338
:103490007BFF7A4A79D6124A369006D174FFF0A3A0
:1034A000744AF0A374D7F090044FE0FBA3E0FAA3B2
:1034B000E0F91287A49006D174FFF0A3744AF0A338
:1034C00074DAF090044FE0FBA3E0FAA3E0F912876E
:1034D000A49006D174FFF0A3744AF0A374EDF090A9
:1034E000044FE0FBA3E0FAA3E0F91287A49006D111
:1034F00074FFF0A3744AF0A374FDF090044FE0FB56
:10350000A3E0FAA3E0F91287A49006D174FFF0A318
:10351000744BF0A37403F090044FE0FBA3E0FAA314
:10352000E0F91287A490048774FFF0A3744BF0A312
:103530007411F09006D8E0FF90048AE4F0A3EFF055
:103540007B017A0479521254739006D17401F0A36E
:103550007404F0A37452F090044FE0FBA3E0FAA3CC
:10356000E0F91287A490048774FFF0A3744BF0A3D2
:10357000741AF0A3E4F0A37402F07B017A04795288
:103580001254739006D17401F0A37404F0A3745222
:10359000F090044FE0FBA3E0FAA3E0F91287A490B7
:1035A000048774FFF0A3744BF0A37432F0900730DB
:1035B000E0FFA3E090048ACFF0A3EFF07B017A0450
:1035C00079521254739006D17401F0A37404F0A3DD
:1035D0007452F090044FE0FBA3E0FAA3E0F91287E5
:1035E000A490048774FFF0A3744BF0A37447F09089
:1035F000088AE0FF90048AE4F0A3EFF07B017A04EC
:1036000079521254739006D17401F0A37404F0A39C
:103610007452F090044FE0FBA3E0FAA3E0F91287A4
:10362000A49006D174FFF0A3744AF0A374D7F0906D
:10363000044FE0FBA3E0FAA3E0F91287A49006D1BF
:1036400074FFF0A3744BF0A37457F090044FE0FBA9
:10365000A3E0FAA3E0F91287A49006D174FFF0A3C7
:10366000744BF0A37464F090044FE0FBA3E0FAA362
:10367000E0F91287A4E4F53BF53CC3E53C9402E590
:103680003B64809480507990048774FFF0A3744B5E
:10369000F0A37477F0E53CAE3B7802C333CE33CE73
:1036A000D8F924C5F58274073EF583E0FCA3E0FD5C
:1036B000A3E0FEA3E0FF74E8253CF5827406353BE9
:1036C000F583E0F9F812479890048AEEF0A3EFF042
:1036D0007B017A0479521254739006D17401F0A3DD
:1036E0007404F0A37452F090044FE0FBA3E0FAA33B
:1036F000E0F91287A4053CE53C7002053B02367AEE
:103700009006D174FFF0A3744AF0A374D7F090042C
:103710004FE0FBA3E0FAA3E0F91287A490048774BA
:10372000FFF0A3744BF0A3747BF07B017A04795211
:103730001254739007CDE0540360199006D174FFC2
:10374000F0A3744BF0A3748BF07B017A04795212CE
:1037500087A480179006D174FFF0A3744BF0A37474
:1037600091F07B017A0479521287A49006D17401FA
:10377000F0A37404F0A37452F090044FE0FBA3E0B4
:10378000FAA3E0F91287A49006D174FFF0A3744B5A
:10379000F0A37496F090044FE0FBA3E0FAA3E0F9E5
:1037A0001287A49006D174FFF0A3744BF0A374ACFD
:1037B000F090044FE0FBA3E0FAA3E0F91287A4E441
:1037C000F53BF53CC3E53C9402E53B6480948040C6
:1037D0000302387890048774FFF0A3744BF0A3744D
:1037E000BCF0E53C240190048BF0E4353B90048A66
:1037F000F0E53CAE3B7802C333CE33CED8F9249B00
:10380000F58274073EF583E0FCA3E0FDA3E0FEA390
:10381000E0FF74E8253CF5827406353BF583E0F95A
:10382000F812479890048CEEF0A3EFF07B017A0435
:1038300079521254739006D17401F0A37404F0A36A
:103840007452F090044FE0FBA3E0FAA3E0F9128772
:10385000A49006D174FFF0A3744AF0A374D7F0903B
:10386000044FE0FBA3E0FAA3E0F91287A4053CE5CE
:103870003C7002053B0237C490048774FFF0A374C8
:103880004BF0A374C5F09007C1E0FCA3E0FDA3E0FA
:10389000FEA3E0FF90048A1247F97B017A04795273
:1038A0001254739006D17401F0A37404F0A37452FF
:1038B000F090044FE0FBA3E0FAA3E0F91287A49094
:1038C00006D174FFF0A3744AF0A374D7F090044FAC
:1038D000E0FBA3E0FAA3E0F91287A490048774FF49
:1038E000F0A3744BF0A374D7F09007A3E0FEA3E01D
:1038F000FFEE3395E0FDFC90048A1247F97B017AD4
:103900000479521254739006D17401F0A37404F038
:10391000A37452F090044FE0FBA3E0FAA3E0F91285
:1039200087A49006D174FFF0A3744AF0A374D7F073
:1039300090044FE0FBA3E0FAA3E0F91287A49004FF
:103940008774FFF0A3744BF0A374EBF09007A5E02D
:10395000FEA3E0FFEE3395E0FDFC90048A1247F9E8
:103960007B017A0479521254739006D17401F0A34A
:103970007404F0A37452F090044FE0FBA3E0FAA3A8
:10398000E0F91287A49006D174FFF0A3744AF0A363
:1039900074D7F090044FE0FBA3E0FAA3E0F912879C
:1039A000A49006D174FFF0A3744BF0A374FFF090C1
:1039B000044FE0FBA3E0FAA3E0F91287A49006D13C
:1039C00074FFF0A3744CF0A37415F090044FE0FB67
:1039D000A3E0FAA3E0F91287A490048774FFF0A390
:1039E000744CF0A37427F09006D9E0FCA3E0FDA38B
:1039F000E0FEA3E0FFEC12433EE4FBFA7980784757
:103A000012422890048A1247F97B017A04795212F3
:103A100054739006D17401F0A37404F0A37452F0AF
:103A200090044FE0FBA3E0FAA3E0F91287A490040E
:103A30008774FFF0A3744CF0A37431F09006DDE0BE
:103A4000FCA3E0FDA3E0FEA3E0FFEC12433EE4FB99
:103A5000FA7980784712422890048A1247F97B014C
:103A60007A0479521254739006D17401F0A374044D
:103A7000F0A37452F090044FE0FBA3E0FAA3E0F946
:103A80001287A490048774FFF0A3744CF0A3743BD6
:103A9000F09006E1E0FCA3E0FDA3E0FEA3E0FFEC74
:103AA00012433EE4FBFA7980784712422890048A58
:103AB0001247F97B017A0479521254739006D1743B
:103AC00001F0A37404F0A37452F090044FE0FBA340
:103AD000E0FAA3E0F91287A49006D174FFF0A37472
:103AE0004AF0A374D7F090044FE0FBA3E0FAA3E000
:103AF000F91287A49006E7E0B4031E9006D174FF84
:103B0000F0A3744CF0A37445F090044FE0FBA3E0E5
:103B1000FAA3E0F91287A4801C9006D174FFF0A3E9
:103B2000744CF0A3745FF090044FE0FBA3E0FAA3A1
:103B3000E0F91287A49006D174FFF0A3744CF0A3AF
:103B40007478F090044FE0FBA3E0FAA3E0F9128749
:103B5000A4E4F53BF53CC3E53C9402E53B6480946A
:103B600080507F90048774FFF0A3744BF0A374BC63
:103B7000F0E53C240190048BF0E4353B90048AF09E
:103B800074E8253CF5827406353BF583E0FF90042C
:103B90008CE4F0A3EFF07B017A0479521254739015
:103BA00006D17401F0A37404F0A37452F090044F92
:103BB000E0FBA3E0FAA3E0F91287A49006D174FF1A
:103BC000F0A3744AF0A374D7F090044FE0FBA3E095
:103BD000FAA3E0F91287A4053CE53C7002053B021C
:103BE0003B569006D174FFF0A3744CF0A3748DF093
:103BF00090044FE0FBA3E0FAA3E0F91287A4E4F5F8
:103C00003BF53CC3E53C9402E53B64809480400373
:103C1000023CB590048774FFF0A3744CF0A374A326
:103C2000F0E53C240190048BF0E4353B90048AF0ED
:103C3000E53CAE3B7802C333CE33CED8F924EAF567
:103C40008274063EF583E0FCA3E0FDA3E0FEA3E062
:103C5000FF74E8253CF5827406353BF583E0F9F8FE
:103C600012479890048C1247F97B017A047952121A
:103C700054739006D17401F0A37404F0A37452F04D
:103C800090044FE0FBA3E0FAA3E0F91287A49006AA
:103C9000D174FFF0A3744AF0A374D7F090044FE0FE
:103CA000FBA3E0FAA3E0F91287A4053CE53C70020F
:103CB000053B023C039006D174FFF0A3744CF0A3C3
:103CC00074ADF090044FE0FBA3E0FAA3E0F9128793
:103CD000A4E4F53BF53CC3E53C9402E53B648094E9
:103CE000804003023D7690048774FFF0A3744CF08B
:103CF000A374C7F0E53C240190048BF0E4353B90BD
:103D0000048AF0E53CAE3B7802C333CE33CED8F91B
:103D100024F2F58274063EF583E0FCA3E0FDA3E007
:103D2000FEA3E0FF90048C1247F97B017A047952DC
:103D30001254739006D17401F0A37404F0A374526A
:103D4000F090044FE0FBA3E0FAA3E0F91287A490FF
:103D500006D174FFF0A3744AF0A374D7F090044F17
:103D6000E0FBA3E0FAA3E0F91287A4053CE53C7070
:103D700002053B023CD690048774FFF0A3744CF01C
:103D8000A374D0F090075EE0FF90048AE4F0A3EF04
:103D9000F07B017A0479521254739006D17401F0C9
:103DA000A37404F0A37452F090044FE0FBA3E0FA74
:103DB000A3E0F91287A49006D174FFF0A3744AF02F
:103DC000A374D7F090044FE0FBA3E0FAA3E0F9124C
:103DD00087A4E4F53BF53CC3E53C9402E53B6480F5
:103DE00094804003023ED990048774FFF0A3744C82
:103DF000F0A374EAF0E53C240190048BF0E4353B39
:103E000090048AF0E53CAE3B7802C333CE33CED883
:103E1000F9245FF58274073EF583E0FCA3E0FDA37F
:103E2000E0FEA3E0FF744C253CF5827407353BF5BA
:103E300083E0F9F812479890048C1247F97B017AD5
:103E40000479521254739006D17401F0A37404F0F3
:103E5000A37452F090044FE0FBA3E0FAA3E0F91240
:103E600087A490048774FFF0A3744DF0A37410F03E
:103E7000E53CAE3B7802C333CE33CED8F92467F5A8
:103E80008274073EF583E0FCA3E0FDA3E0FEA3E01F
:103E9000FF744C253CF5827407353BF583E0F9F857
:103EA00012479890048A1247F97B017A04795212DA
:103EB00054739006D17401F0A37404F0A37452F00B
:103EC00090044FE0FBA3E0FAA3E0F91287A4053CBD
:103ED000E53C7002053B023DD790048774FFF0A3D8
:103EE000744DF0A3741DF090076FE0FEA3E0FF9007
:103EF000074CE0FDEFA805088006CEA2E713CE131D
:103F0000D8F8FF90048AEEF0A3EFF07B017A0479F1
:103F1000521254739006D17401F0A37404F0A37488
:103F200052F090044FE0FBA3E0FAA3E0F91287A45B
:103F30009006D174FFF0A3744AF0A374D7F09004F4
:103F40004FE0FBA3E0FAA3E0F91287A49004877482
:103F5000FFF0A3744DF0A3742FF0900749E0FFA386
:103F6000E090048ACFF0A3EFF07B017A047952123B
:103F700054739006D17401F0A37404F0A37452F04A
:103F800090044FE0FBA3E0FAA3E0F91287A49006A7
:103F9000D174FFF0A3744AF0A374D7F090044FE0FB
:103FA000FBA3E0FAA3E0F91287A490048774FFF062
:103FB000A3744DF0A37441F09007BDE0F8A3E0F9BD
:103FC000A3E0FAA3E0FB90085CE0FCA3E0FDA3E023
:103FD000FEA3E0C39BFFEE9AFEED99FDEC98FC90EA
:103FE000048A1247F97B017A0479521254739006BD
:103FF000D17401F0A37404F0A37452F090044FE064
:10400000FBA3E0FAA3E0F91287A49006D174FFF0B5
:10401000A3744AF0A374D7F090044FE0FBA3E0FA36
:10402000A3E0F91287A4220243E8E86480F8E933A8
:10403000E83360110460F0ED33EC337009E8FCE91B
:10404000FDEAFEEBFF220460DED3EB9FEA9EE99DD2
:10405000E8C2E78CF0C2F795F0400CE8CCF8E9CD67
:10406000F9EACEFAEBCFFB1243B385D0F0580470D7
:104070000320D5B3E80470075002B2D50243F29290
:10408000D5EC0460F7E4CCC0E0C398F8603B94182A
:104090006008400DD0E0FB0243CAE4FBFAC9FC8093
:1040A00028E830E406E4C9FBE4CAFCE830E305E4B0
:1040B000C9CACBFCE854076010F8C3E913F9EA1346
:1040C000FAEB13FBEC13FCD8F130F52FC3E49CFCA6
:1040D000EF9BFFEE9AFEED99FDD0E0FBEF4E4D4CCD
:1040E000701222DB030243EFEC2CFCEF33FFEE33C4
:1040F000FEED33FDED30E7EB0243CAEF2BFFEE3A66
:10410000FEED39FDD0E0FB50130BBB00030243F280
:10411000ED13FDEE13FEEF13FFEC13FC0243CAECAC
:104120004D6011E8497017ED33EC3304600DE4FC89
:10413000FFFEFD22E933E8330470F80243E812433E
:10414000B358046009E4CC24815006285009024386
:10415000F22840030243EFC0E0EB4A7044B9800606
:10416000D0E0FB0243DEEF4E701CBD8008EBFFEA9F
:10417000FEE9FD80EBE98DF0A4FEE5F0024208E9DE
:10418000CDF9EAFEEBFFEF89F0A4FCE5F0CE89F073
:10419000A42EFFE435F0CD89F0A42DFEE435F080A7
:1041A00067EF4E7005BD80D780C3EF8BF0A4ACF0F5
:1041B000EE8BF0A42CFCE435F0F8EF8AF0A42CE5AB
:1041C000F038FCE433CB8DF0A42CFCE5F03BF8EEAA
:1041D0008AF0A42CFCE5F038F8E433CF89F0A42C65
:1041E000FCE5F038CF3400CE89F0A42FFFE5F03E97
:1041F000FEE433C98DF0A42EFEE5F039CD8AF0A49B
:104200002FFFE5F03EFEE43DFD33D0E0FB50070B11
:10421000BB000F0243F2EC2CFCEF33FFEE33FEED5C
:1042200033FD0243CA0243F2EC5D046005E8590421
:1042300070030243E81243B3580460F6EC4860F29E
:10424000EC7004FDFEFF22C860DB2481C85009C366
:1042500098600250060243EF9850CAF582E9294B54
:104260004A7005AB820243DE75F0007C1A7880C389
:10427000EF9BEE9AED99400DC3EF9BFFEE9AFEED9A
:1042800099FDE842F0DC23ACF0D0E0FFD0E0FED0B6
:10429000E0FDAB8220E7101BEB60BAEC2CFCEF33A7
:1042A000FFEE33FEED33FD0243CAE803F830E705C5
:1042B000C0F075F000EF2FFFEE33FEED33FD40B898
:1042C00030E7C280AA74F8CC6480CCC86480C8F59A
:1042D0008204604FC3EB9FF5F0EA9E42F0E99D42F5
:1042E000F0E89C45F0603C501DE5825FFFE582D31D
:1042F00013CB5BCBF42B5582FB50280ABA00240960
:10430000B9002008801DE5825BFBE582D313CF5FF7
:10431000CFF4C3132F5582FF50090EBE00050DBD0B
:1043200000010CC3EB9FF5F0EA9E42F0E99D42F0DC
:10433000E89C45F06007CC4820E701B3EC2275F01B
:1043400020800E75F010800575F0087D007E007FDE
:10435000003392D530D503124750EC334010EF3381
:10436000FFEE33FEED33FDEC33FCD5F0ED22E5F04E
:10437000247EA2D513CC92E7CDCEFF22EDD2E7CD9D
:1043800033EC3392D524814006E4FFFEFDFC22FC91
:10439000E4CFCECDCC24E0501174FF80EDC3CC131C
:1043A000CCCD13CDCE13CECF13CF0470F030D5DEED
:1043B000024750E9D2E7C933E833F892D5EDD2E7A6
:1043C000CD33EC33FC5002B2D522EC30E7100FBFF6
:1043D000000C0EBE00080DBD00040BEB6014A2D54E
:1043E000EB13FCED92E7FD2274FFFCFDFEFF22E4DF
:1043F00080F8A2D574FF13FC7D80E480EFF920E7FC
:104400003624F950037907E4F42402FBE58215828F
:1044100070021583DBF6E024FB501BE96014E4F026
:10442000E582158270021583E004F0B40A08E4F016
:10443000D9EE7401F00A22C2D522ED33EC3392D5C5
:10444000FA602AB4FF33EDC2E77BFF60067A447955
:104450005FE4227A44796820D5047A447963224E55
:10446000614E002B494E46002D494E4600E47A0825
:10447000F0A3DAFC7B00740722C083C082ECC0E0AA
:10448000EDC0E0EEC0E0EFC0E0EA75F010A4CAAB0A
:10449000F075F04DA42BFBE435F0FCEA2410FAEBA8
:1044A00034C5FBEC34D9FCEDC2E7FF75F056A4F43B
:1044B0002411C5F0F434C58FF0A42AE5F03BE43CA8
:1044C000F020E71412456FD0E0FFD0E0FED0E0FD11
:1044D000D0E0FC1242288014F40412456FD0E0FFB3
:1044E000D0E0FED0E0FDD0E0FC12411FD082D083AE
:1044F000E0FAEDD2E7CD33EC332482FBE4C3CF33D3
:10450000CFCE33CECD33CD33DBF37B0775F00A84CA
:104510006004F0A31B0AE5F0F0A38FF0740AA4FF77
:10452000ACF08EF0740AA42CFEACF050010C8DF0AF
:10453000740AA42CFDE435F0F0A3DBDE7407223FFF
:104540008000004120000042C80000447A0000467C
:104550001C400047C35000497424004B1896804CFF
:10456000BEBC205A0E1BCA6753C21C749DC5AEFB4D
:1045700060065407601C232312459DEB54386009E4
:1045800012458912459812411FECF8EDF9EEFAEF49
:10459000CB22EB12459880F1543803241C90453F00
:1045A000FE93FC0EEE93FD0EEE930ECE93FF22BB18
:1045B000010689828A83E0225002E722BBFE02E3E1
:1045C0002289828A83E49322BB010CE58229F58249
:1045D000E5833AF583E0225006E92582F8E622BB1E
:1045E000FE06E92582F8E222E58229F582E5833A92
:1045F000F583E49322BB010689828A83F02250026C
:10460000F722BBFE01F322BB010A89828A83F0E50F
:10461000F0A3F0225006F709A7F01922BBFE06F31B
:10462000E5F009F31922E88FF0A4CC8BF0A42CFC60
:10463000E98EF0A42CFC8AF0EDA42CFCEA8EF0A408
:10464000CDA8F08BF0A42DCC3825F0FDE98FF0A497
:104650002CCD35F0FCEB8EF0A4FEA9F0EB8FF0A48E
:10466000CFC5F02ECD39FEE43CFCEAA42DCE35F0CA
:10467000FDE43CFC2275F008758200EF2FFFEE335D
:10468000FECD33CDCC33CCC58233C5829BED9AECC5
:1046900099E58298400CF582EE9BFEED9AFDEC992F
:1046A000FC0FD5F0D6E4CEFBE4CDFAE4CCF9A88239
:1046B00022B800C1B90059BA002DEC8BF084CFCEDE
:1046C000CDFCE5F0CBF97818EF2FFFEE33FEED339C
:1046D000FDEC33FCEB33FB10D703994004EB99FB63
:1046E0000FD8E5E4F9FA227818EF2FFFEE33FEED4C
:1046F00033FDEC33FCC933C910D7059BE99A400759
:10470000EC9BFCE99AF90FD8E0E4C9FAE4CCFB226F
:1047100075F010EF2FFFEE33FEED33FDCC33CCC838
:1047200033C810D7079BEC9AE899400AED9BFDEC43
:104730009AFCE899F80FD5F0DAE4CDFBE4CCFAE482
:10474000C8F922CFF4CFCEF4CECDF4CDCCF4CC2228
:10475000C3E49FFFE49EFEE49DFDE49CFC22EB9FEE
:10476000F5F0EA9E42F0E99D42F0EC6480C8648076
:104770009845F022EB9FF5F0EA9E42F0E99D42F069
:10478000E89C45F022E8600FECC313FCED13FDEE4E
:1047900013FEEF13FFD8F122E86010ECA2E713FC40
:1047A000ED13FDEE13FEEF13FFD8F022E8600FEFDC
:1047B000C333FFEE33FEED33FDEC33FCD8F122BB07
:1047C000010789828A83024A8B5005E9F8024A7FF1
:1047D000BBFE05E9F8024A9789828A83024AA3BB95
:1047E000010789828A830247F95005E9F8024AB332
:1047F000BBFE05E9F8024ABF22ECF0A3EDF0A3EE00
:10480000F0A3EFF022F8E0FBA3A3E0F925F0F0E538
:1048100082158270021583E0FA38F022EBF0A3EAE9
:10482000F0A3E9F022D083D082F8E49370127401EF
:1048300093700DA3A393F8740193F5828883E473B6
:104840007402936860EFA3A3A380DFE50F2582F5D0
:1048500082E50E3583F583B50E0485820F2210AFF5
:104860000685820FF50E2285820FF50ED2AF22EC5F
:104870008EF0A4CCC5F0CCCDF8EFA4CEC5F02DFDC4
:10488000E43CFCE8A42EC8C5F03DFDE43CFCEFA4EC
:10489000FFE5F028FEE43DFDE43CFC22E709F608D4
:1048A000DFFA8046E709F208DFFA803E88828C83CF
:1048B000E709F0A3DFFA8032E309F608DFFA806E39
:1048C000E309F208DFFA806688828C83E309F0A3AB
:1048D000DFFA805A89828A83E0A3F608DFFA804EE5
:1048E00089828A83E0A3F208DFFA804280D280FACC
:1048F00080C680D4805580F28029801080A680EA0E
:10490000809A80A880DA80E280CA802988848C8599
:1049100089828A83E493A30586F0A30586DFF5DE0A
:10492000F3800B89828A83E493A3F608DFF9ECFA1B
:10493000A9F0EDFB2288848C8589828A83E0A30517
:1049400086F0A30586DFF6DEF480E389828A83E4BD
:1049500093A3F208DFF980D688F0EF60010E4E6075
:10496000CD88F0ED2402B4040050C3F582EB24029C
:10497000B4040050B923234582239048EC73E7091F
:10498000F60870FA8046E709F20870FA803E8882DD
:104990008C83E709F0A370FA8074E309F60870FAD3
:1049A000806CE309F20870FA806488828C83E309E2
:1049B000F0A370FA805889828A83E0A3F60870FA1F
:1049C000804C89828A83E0A3F20870FA804080D20A
:1049D00080FA80C680D4805180F28027801080A623
:1049E00080EA809A80A880DA80E280CA8027888462
:1049F0008C8589828A83E493A30586F0A30586705B
:104A0000F5800B89828A83E493A3F60870F9ECFAA7
:104A1000A9F0EDFB2288848C8589828A83E0A30536
:104A200086F0A3058670F680E589828A83E493A3E5
:104A3000F20870F980D888F0ED2402B4040050CE5A
:104A4000F582EB2402B4040050C423234582239052
:104A500049CE73C5F0F8A3E028F0C5F0F8E582155B
:104A60008270021583E038F022A3F8E0C5F025F04B
:104A7000F0E582158270021583E0C838F0E822E67E
:104A8000FC08E6FD08E6FE08E6FF22E0FCA3E0FDE8
:104A9000A3E0FEA3E0FF22E2FC08E2FD08E2FE083C
:104AA000E2FF22E493FC740193FD740293FE74030D
:104AB00093FF22ECF608EDF608EEF608EFF622EC8E
:104AC000F208EDF208EEF208EFF222205945530009
:104AD00000204E4F0000000D0A004669726D77619C
:104AE00072652076657273696F6E3A200043554691
:104AF00046204D4F442076362E312E30002E0D0AA2
:104B00000D0A0044455649434520494E464F0D0A7B
:104B10000049443A2025640D0A004E756D626572A5
:104B2000206F662073656E736F72733A2025640D73
:104B30000A00537570706C792074656E73696F6EBE
:104B40003A2025640D0A0050574D204C696D697458
:104B50003A2025640D0A004D4F544F5220494E46CD
:104B60004F0D0A004D6F746F722072656665726535
:104B70006E6365733A2000256420004D6F746F7278
:104B800020656E61626C65643A20005945530D0AD8
:104B9000004E4F0D0A000D0A4D4541535552454DEB
:104BA000454E545320494E464F0D0A0053656E73CF
:104BB0006F722076616C75653A0D0A002564202DB0
:104BC0003E20256400566F6C7461676520286D5621
:104BD000293A20256C640043757272656E74203129
:104BE00020286D41293A20256C6400437572726556
:104BF0006E74203220286D41293A20256C64000D06
:104C00000A44455649434520504152414D4554457B
:104C100052530D0A0050494420436F6E74726F6CFA
:104C20006C65723A0D0A0050202D3E2025660D0A53
:104C30000049202D3E2025660D0A0044202D3E20EF
:104C400025660D0A00537461727475702061637477
:104C500069766174696F6E3A205945530D0A0053A5
:104C60007461727475702061637469766174696FC0
:104C70006E3A204E4F0D0A0053656E736F722072AC
:104C800065736F6C7574696F6E3A0D0A004D6561DE
:104C9000737572656D656E74204F66667365743AE0
:104CA0000D0A002564202D3E20256C64004D6561B1
:104CB000737572656D656E74204D756C7469706C7A
:104CC0006965723A0D0A002564202D3E2025660094
:104CD000506F736974696F6E206C696D69742061BF
:104CE00063746976653A20256400506F736974694E
:104CF0006F6E206C696D6974206D6F746F72202502
:104D0000643A20696E66202D3E20256C64202000C8
:104D1000737570202D3E20256C640D0A004D61785E
:104D20002073746966666E6573733A202564004368
:104D3000757272656E74206C696D69743A202564B1
:104D40000064656275673A20256C6400000000000D
:104D50000000000000000000000000000000000053
:104D60000000000000000000000000000000000043
:104D70000000000000000000000000000000000033
:104D80000000000000000000000000000000000023
:1052900000000031202D2044657669636520494473
:1052A0003A0032202D20506F736974696F6E205060
:1052B0004944205B502C20492C20445D3A00332087
:1052C0002D20537461727475702041637469766126
:1052D00074696F6E3A000000000034202D20526582
:1052E000736F6C7574696F6E733A0035202D204DA5
:1052F0006561737572656D656E74204F6666736562
:1053000074733A0036202D204D756C7469706C6989
:105310006572733A0037202D20506F732E206C6910
:105320006D6974206163746976653A00000000005D
:105330000038202D20506F732E206C696D697473B6
:10534000205B696E662C207375705D3A0039202DE4
:10535000204D6178207374657073205B6E65672CD7
:1053600020706F735D3A003130202D2043757272CA
:10537000656E74206C696D69743A003131202D209E
:1053800050756C7365206D6F64616C6974793A0057
:10539000000000000000003132202D2050726573A3
:1053A0007375726520626F756E6473205B6D6178D2
:1053B0002C206D696E5D3A003133202D2050756CC4
:1053C0007365206672657175656E63793A00313474
:1053D000202D20506F7765722074656E73696F6E33
:1053E0003A00000030202D3E2044656163746976E8
:1053F000617465205B4E4F5D0A31202D3E20416374
:10540000746976617465205B5945535D0A00E53D1A
:105410002487F582E43404F583E0053D229004847A
:10542000300803900487E475F0011248050245AF87
:105430002001E97F2ED2018018EF540F2490D4343C
:1054400040D4FF30050BEF24BFB41A005003246191
:10545000FFE53E6002153E0541E541700205403022
:10546000080E900484E475F001124805EF0245F53A
:105470000292E57403D2088003E4C208F53D90046B
:105480008412481CE4F53EF540F541E53E60077F97
:105490002012545180F5753FFFC202C201C203C2FF
:1054A00004C206C207C20912541DFF700D30080560
:1054B0007F00125462AF41AE4022B4255FC2D5C214
:1054C0000512541DFF24D0B40A00501A75F00A7852
:1054D0003E30D50508B6FF0106C6A426F620D50441
:1054E0007002D20480D924CFB41A00EF5004C2E570
:1054F000D205025754D20280C6D20180C0D20380A6
:10550000BCD2D580BAD20680B47F20125451200379
:10551000077401B53E0040F112540EFF12545102BF
:10552000548BD209D207809512540EFB12540EFAF6
:1055300012540EF94A4B700679527A587BFF2003B9
:105540002EE53E602A7E008E827583001245C8607B
:10555000060EEE653F70F0C2D5EBC0E0EAC0E0E9B0
:10556000C0E0EE1257B5D0E0F9D0E0FAD0E0FB127F
:1055700045AFFF60AAEBC0E0EAC0E0E9C0E012542A
:1055800051D0E02401F9D0E03400FAD0E0FBE53F4F
:105590000460DCD53FD98087D20380A21257976080
:1055A000F7E53F7001041243FDA93F600DE53F6040
:1055B0000914F53F12583FEF60F3EA30E702F404B4
:1055C000C3995079EAF4253F0430E701E404F53F3C
:1055D000800D12579760C1EA053F253F1243FDEA4F
:1055E0009004B3F030E701E4253F04D53F042006E2
:1055F00001141257B5E4C0E012583F9004B3E060C4
:105600001320E70714F0125439802204F0D0E0147C
:10561000C0E07F00125439E53F6007125430153F57
:10562000800B300603125430D0E002548BD0E004DB
:1056300080C4125797609EE53F041243FD9004B367
:10564000EAF0E53F20060260010424041257B57415
:10565000FF04C0E012583F125439E53F20060260B3
:1056600003125430D0E0B53FE87F45125443900414
:10567000B3E07F2B30E7047F2DF404C0E0125451D7
:10568000D0E075F00A84C0F012543AD0E012543AD7
:1056900002548B791080027908C207C2098008D2AF
:1056A000D5790A8004790AC2D5E53F047002F53F36
:1056B000E4FAFDFEFF12540EFC7B08200213125484
:1056C0000EFD7B1030010A12540EFE12540EFF7BA9
:1056D00020EC3382D592D55013C3E43001069FFFEE
:1056E000E49EFEE42002039DFDE49CFCE4CBF8C2B2
:1056F00002EC700CCFCECDCCE824F8F870F3801714
:10570000C3EF33FFEE33FEED33FDEC33FCEB33FB45
:10571000994002FB0FD8E9EB300205F8D0E0C4480D
:10572000B202C0E00AEC4D4E4F78207B0070C2EA16
:10573000B53F0040BCC0E01257B7D0F0D0E0200227
:1057400004C4C0E0C4B202C0F012543AD0F0D5F0A4
:10575000EB02548B12482555285356935854F94C54
:1057600054F54256974F569F44569F49550E4356FF
:10577000A55555D246563245559C4758725054FD52
:105780002D55012E55242B550523552220585B2AD3
:1057900054BD480000551CE53FB4FF03753F061299
:1057A000540EFC12540EFD12540EFE12540EFF90B5
:1057B00004AC02443A790AA2D5200414300609B98F
:1057C00010020404B9080104A2D520070250010404
:1057D0002003689203B53E005034C0E07F203004BF
:1057E000197F30A20372077206500F12580EC203BF
:1057F000C207C206C2097F30800F300603E9C0E04D
:10580000125451300603D0E0F9D0E0B53ECC30065A
:10581000177F30B9100C1254517F583005077F782C
:105820008003B908031254513003057F2D025451EF
:105830007F202009F87F2B2007F322920380CF7F5F
:1058400000B40700500B24ACF582E43404F583E087
:10585000FF22286E756C6C2900D20212540E3002A1
:10586000F8C202783E30D50108F60254BD2D5043EF
:10587000495812540E2403B405004001E490586DB9
:1058800093125442743A125442D204753E040256A2
:105890009312994EEF700A300DF7C20D12754080C9
:1058A000F0900861E0249AFF900860E034F9FE333C
:1058B00095E0FDFCE47BA07A07F9F812462678070C
:1058C0001247989007C11247F9300D05C20D1275A5
:1058D00040E4FFFEFDFC9007C1E0F8A3E0F9A3E07F
:1058E000FAA3E0FBD312475E5003025970127667A9
:1058F000300D05C20D127540900863E0249AFF90A8
:105900000862E034F9FE3395E0FDFCE47BAB7A6499
:10591000F9F8124626780D124798EE3395E0FDFC13
:1059200012856C900872EEF0A3EFF0300D05C20DF9
:10593000127540900865E0249AFF900864E034F9FD
:10594000FE3395E0FDFCE47BAB7A64F9F812462661
:10595000780D124798EE3395E0FDFC1285E1900832
:1059600074EEF0A3EFF0300D12C20D127540800BF3
:10597000E4900872F0A3F0A3F0A3F0900867E0248D
:105980009AFE900866E034F9900880F0A3CEF030DB
:105990000D05C20D127540E4FF1296D390077FE00B
:1059A000FCA3E0FDA3E0FEA3E0FFEC12433E7B324C
:1059B0007A55797D784112411F12437C900915EE8A
:1059C000F0A3EFF0900783E0FCA3E0FDA3E0FEA3CB
:1059D000E0FFEC12433EE4FBFA79B4784112411F38
:1059E00012437C900917EEF0A3EFF0300D05C20DC5
:1059F000127540900869E024C9FE900868E034FF01
:105A0000900884F0A3CEF0300D05C20D127540D37E
:105A1000900885E094C0900884E06480948D4007ED
:105A2000740DF0A374C0F0300D05C20D12754090D6
:105A3000078BE07003025C71300A03025B9B9009E4
:105A400017E0FEA3E0FFC3900885E09FEE6480F8B6
:105A5000900884E06480985019E4FFFEFDFC9008F3
:105A6000861247F9200D03025B4DC20D12754002EC
:105A70005B4D900915E0FEA3E0FFD3900885E09F01
:105A8000EE6480F8900884E06480984019E4FFFE9A
:105A9000FDFC9008861247F9200D03025B4DC20DF4
:105AA000127540025B4D900917E0FCA3E0FDEC127B
:105AB0004343C004C005C006C007900915E0FCA31D
:105AC000E0FDEC124343D003D002D001D0001240DD
:105AD0002AC004C005C006C007900917E0FCA3E077
:105AE000FDEC124343C004C005C006C00790088403
:105AF000E0FCA3E0FDEC124343D003D002D001D080
:105B00000012402AD003D002D001D000124228E473
:105B1000FBFA795C784212411F9008861247F930EF
:105B20000D05C20D127540900886E0FCA3E0FDA3B0
:105B3000E0FEA3E0FFE4FBFA79AA784212402E903F
:105B400008861247F9300D05C20D1275409008867F
:105B5000E0FCA3E0FDA3E0FEA3E0FF900796124760
:105B6000F9900796E0FCA3E0FDA3E0FEA3E0FF129E
:105B7000437C9007BBEEF0A3EFF0300D05C20D1291
:105B800075409007BBE0FEA3E0FF129358D20A20B5
:105B90000D03025C71C20D12754022E4FFFE7DAA66
:105BA0007C42900796E0F8A3E0F9A3E0FAA3E0FBBB
:105BB0001242C560025003025C60900796E0FCA3AD
:105BC000E0FDA3E0FEA3E0FF12437C9007BBEEF0F4
:105BD000A3EFF0129358300D05C20D1275409007D7
:105BE00096E0FCA3E0FDA3E0FEA3E0FFC004C00537
:105BF000C006C007E4FFFE7DA87CC2900886E0F8DE
:105C0000A3E0F9A3E0FAA3E0FB12402E7B3B7A402D
:105C1000798B783712411FC004C005C006C00790B9
:105C20000790E0FCA3E0FDA3E0FEA3E0FFEC12433D
:105C30003ED003D002D001D00012411FA804A90514
:105C4000AA06AB07D007D006D005D00412402A9090
:105C500007961247F9D20A300D17C20D127540226D
:105C60007F557E00129358C20A300D05C20D127581
:105C700040228F23E4F527F526F525F5249006D953
:105C8000E0FCA3E0FDA3E0FEA3E0F52F8E2E8D2D1A
:105C90008C2CA3E0FCA3E0FDA3E0FEA3E0F5338E93
:105CA000328D318C30A3E0FCA3E0FDA3E0FEA3E045
:105CB000F5378E368D358C34E523C39402400302CC
:105CC0006038E52325E025E0246AF582E43408F510
:105CD00083E0F8A3E0F9A3E0FAA3E0FBE52325E0E5
:105CE00025E02432F582E43407F583E0FCA3E0FDEF
:105CF000A3E0FEA3E0C39BF52BEE9AF52AED99F500
:105D000029EC98F528300D05C20D127540E52325C4
:105D1000E025E0240DF582E43409F583C083C082D8
:105D2000E0FCA3E0FDA3E0FEA3E0252BFFEE352A77
:105D3000FEED3529FDEC3528FCD082D0831247F9E1
:105D4000E52325E025E0240DF582E43409F583E020
:105D5000FCA3E0FDA3E0FEA3E0FF7BA07A8679012F
:105D60007800C312475E501C7FA07E867D017C00B8
:105D7000E52325E025E0240DF582E43409F58312BE
:105D800047F98042E52325E025E0240DF582E4343F
:105D900009F583E0FCA3E0FDA3E0FEA3E0FF7B6048
:105DA0007A7979FE78FFD312475E401A7F607E7958
:105DB0007DFE7CFFE52325E025E0240DF582E4341B
:105DC00009F5831247F9300D05C20D127540E4F54F
:105DD00027F526F525F524FFFEFDFCAB2FAA2EA9FD
:105DE0002DA82CC312475E606AE4FFFE7D02FCAB67
:105DF0002BAA2AA929A828D312475E500FE4FFFE38
:105E00007DFE7CFFA828C312475E5027AF2BAE2A29
:105E1000AD29AC287808124798AB2FAA2EA92DA837
:105E20002C12462678081247988F278E268D258CAF
:105E3000248020AF2BAE2AAD29AC28AB2FAA2EA9E7
:105E40002DA82C12462678101247988F278E268D63
:105E5000258C24300D05C20D127540E4FFFEFDFCBB
:105E6000AB33AA32A931A830C312475E6043AF33C7
:105E7000AE32AD31AC307806124798E52325E025E7
:105E8000E0240DF582E43409F583E0F8A3E0F9A3FA
:105E9000E0FAA3E0FB124626780A124798E5272F7E
:105EA000F527E5263EF526E5253DF525E5243CF5D7
:105EB00024E4FFFEFDFCAB37AA36A935A834C31293
:105EC000475E6063E52325E025E0246AF582E4343B
:105ED00008F583E0F8A3E0F9A3E0FAA3E0FBE523EB
:105EE00025E025E0249BF582E43407F583E0FCA35C
:105EF000E0FDA3E0FEA3E0C39BFFEE9AFEED99FD5B
:105F0000EC98FCAB37AA36A935A83412462678108F
:105F1000124798E5272FF527E5263EF526E5253D8E
:105F2000F525E5243CF524300D05C20D127540E53C
:105F300023701AFFFEFDFCAB27AA26A925A824C3BF
:105F400012475E4004D20F801DC20F8019E4FFFE8D
:105F5000FDFCAB27AA26A925A824C312475E40044E
:105F6000D2108002C210300D05C20D127540E47FC0
:105F700064FEFDFCAB27AA26A925A824D312475E00
:105F8000400AE4752764F526F525F52474FF7F9C07
:105F9000FEFDFCAB27AA26A925A824C312475E5004
:105FA0000B74FF75279CF526F525F524300D05C2E9
:105FB0000D127540AF27AE26AD25AC24780A1247E6
:105FC000ACE47B64FAF9F8128CE6A804A905AA06E9
:105FD000AB0790088AE0FFE4FCFDFE124626780A33
:105FE0001247988F278E268D258C24300F11301064
:105FF000077F0312994880167F01129948800F305D
:1060000010077F021299488005E4FF129948300D6D
:1060100005C20D127540E523700CAE26AF2712970E
:10602000D51298DC800AAE26AF271297D51298E2D7
:10603000300D05C20D12754022753B02900756E0E7
:10604000FCA3E0FDA3E0FEA3E0FF9006F2E0F8A3CE
:10605000E0F9A3E0FAA3E0FB1242C56058900853B0
:10606000E0FCA3E0FDA3E0FEA3E0FFEC12433E90C2
:1060700006F2E0F8A3E0F9A3E0FAA3E0FB1242285D
:1060800012437C9008531247F9900853E0FCA3E0B8
:10609000FDA3E0FEA3E0FFEC12433E900756E0F8BC
:1060A000A3E0F9A3E0FAA3E0FB12411F12437C90A6
:1060B00008531247F990075AE0FCA3E0FDA3E0FE65
:1060C000A3E0FF9006F6E0F8A3E0F9A3E0FAA3E06E
:1060D000FB1242C56058900857E0FCA3E0FDA3E026
:1060E000FEA3E0FFEC12433E9006F6E0F8A3E0F9D1
:1060F000A3E0FAA3E0FB12422812437C9008571257
:1061000047F9900857E0FCA3E0FDA3E0FEA3E0FF01
:10611000EC12433E90075AE0F8A3E0F9A3E0FAA39B
:10612000E0FB12411F12437C9008571247F9900779
:106130004EE0FCA3E0FDA3E0FEA3E0FF9006EAE052
:10614000F8A3E0F9A3E0FAA3E0FBC312475E6057AF
:10615000900853E0F8A3E0F9A3E0FAA3E0FBC00045
:10616000C001C002C0039006EAE0F8A3E0F9A3E092
:10617000FAA3E0FB90074EE0FCA3E0FDA3E0FEA342
:10618000E0C39BFFEE9AFEED99FDEC98FCD003D0A6
:1061900002D001D000EB2FFFEA3EFEE93DFDE83CD6
:1061A000FC9008531247F9900752E0FCA3E0FDA3CE
:1061B000E0FEA3E0FF9006EEE0F8A3E0F9A3E0FA2A
:1061C000A3E0FBC312475E6057900857E0F8A3E0D6
:1061D000F9A3E0FAA3E0FBC000C001C002C0039035
:1061E00006EEE0F8A3E0F9A3E0FAA3E0FB90075283
:1061F000E0FCA3E0FDA3E0FEA3E0C39BFFEE9AFE5C
:10620000ED99FDEC98FCD003D002D001D000EB2F2B
:10621000FFEA3EFEE93DFDE83CFC9008571247F9D5
:106220009006FAE070030262FFA3E0FCA3E0FDA386
:10623000E0FEA3E0FF900853E0F8A3E0F9A3E0FA42
:10624000A3E0FBC312475E50149006FBE0FCA3E002
:10625000FDA3E0FEA3E0FF9008531247F99006FF6C
:10626000E0FCA3E0FDA3E0FEA3E0FF900857E0F808
:10627000A3E0F9A3E0FAA3E0FBC312475E50149039
:1062800006FFE0FCA3E0FDA3E0FEA3E0FF900857BB
:106290001247F9900703E0FCA3E0FDA3E0FEA3E0B2
:1062A000FF900853E0F8A3E0F9A3E0FAA3E0FBD3E2
:1062B00012475E4014900703E0FCA3E0FDA3E0FE5C
:1062C000A3E0FF9008531247F9900707E0FCA3E012
:1062D000FDA3E0FEA3E0FF900857E0F8A3E0F9A3D8
:1062E000E0FAA3E0FBD312475E4014900707E0FCFE
:1062F000A3E0FDA3E0FEA3E0FF9008571247F9904A
:10630000073CE0FF9006D8E0FE6F603F8E3EE4FF62
:10631000FE127D54EF601B753C01753D017B007AD8
:1063200000793CE53BFD7C00900008E53EF01281E1
:106330005622E4F53CF53DFB7A00793CE53BFD7CDB
:1063400000900008E53EF012815622E4FFFE127D27
:1063500054EF60067F0112953E22E4FF12953E2223
:10636000900003EDF08F23E523C3940240030266FF
:1063700040300B227B02AF031BEF6018E4FFFEFDF1
:10638000FCEB25E025E02419F582E43409F58312BD
:1063900047F980E2C20BE523701312980BEFEEED84
:1063A0005403FDE4FC9000041247F9801112981583
:1063B000EFEEED5403FDE4FC9000041247F97B017D
:1063C0007A0079041287394003026640900003E0A6
:1063D0006037A3E0FCA3E0FDA3E0FEA3E054C0FF10
:1063E000EEED5403FDE4FC7802124785C3E49FFF01
:1063F00074809EFEE49DFDE49CFC124750EE3395B4
:10640000E0FDFCA31247F9805D900004E0FCA3E0EE
:10641000FDA3E0FEA3E054C0FFEEED5403FDE4FC59
:106420007802124785C3E49FFB74809EFAE49DF9CD
:10643000E49CF8E52325E025E0244EF582E43407CA
:10644000F583E0FCA3E0FDA3E0FEA3E02BFFEA3E22
:10645000FEE93DFDE83CFC124750EE3395E0FDFCC3
:106460009000081247F9301127900008E0FCA3E0E3
:10647000FDA3E0FEA3E0FFE52325E025E02419F5D8
:1064800082E43409F5831247F9E523B40102C2110D
:10649000E52325E025E02419F582E43409F583E0BD
:1064A000F8A3E0F9A3E0FAA3E0FB900008E0FCA366
:1064B000E0FDA3E0FEA3E0C39BFFEE9AFEED99FD95
:1064C000EC98FCA31247F9E4FF7EC0FDFC90000CA1
:1064D000E0F8A3E0F9A3E0FAA3E0FBD312475E40A3
:1064E0001074762523F582E43408F583E014F080F7
:1064F000687F007E407DFF7CFF90000CE0F8A3E009
:10650000F9A3E0FAA3E0FBC312475E5010747625AE
:1065100023F582E43408F583E004F0803C90000C1D
:10652000E0A3E0A3E0FEA3E0FF1297D5D3EF940031
:10653000EE648094C0402274212523F582E434095E
:10654000F583E004F074212523F582E43409F58312
:10655000E0C3940A500302664074212523F582E4C7
:106560003409F583E4F0900008E0FCA3E0FDA3E02B
:10657000FEA3E0FFE52325E025E02419F582E434BD
:1065800009F5831247F9900008E0F8A3E0F9A3E0C9
:10659000FAA3E0FBC00074762523F582E43408F505
:1065A00083E0FF3395E0FEFDFC78101247ACD0008D
:1065B000EB2FFFEA3EFEE93DFDE83CFC90000812AF
:1065C00047F9E52325E025E024F2F582E43406F5D9
:1065D00083E0FCA3E0FDA3E0FEA3E0FFE4FBFA7987
:1065E00080783F1242C56038900008E0FCA3E0FDCF
:1065F000A3E0FEA3E0FFEC12433EE52325E025E007
:1066000024F2F582E43406F583E0F8A3E0F9A3E090
:10661000FAA3E0FB12411F12437C9000081247F9D5
:10662000900008E0FCA3E0FDA3E0FEA3E0FFE5236B
:1066300025E025E0246AF582E43408F5831247F961
:106640002212996C128B77E47F64FEFDFC1282F4B7
:106650007F0112993012939C1295D31290AF12922F
:106660000712967E7E997F77128EE11296587E9958
:106670007F741293FF1295E6E4FF1298DCE4FF1298
:1066800098E2E4FF129948E4FF12991E1295F9125C
:10669000960C12961F1294AB7F01129954E490004D
:1066A00007F0A3F0FBFA7D017F02128C0F9000012E
:1066B000EFF0128E2A900002EFF0E0FBFF9000074F
:1066C0007486F07D067C0012837C7B017A087960F9
:1066D000E9EAE4AB01900002E0FF7D107C4E1284F9
:1066E000F4900001E0FFA3E0FD12943D900001E072
:1066F000FF7D01128BC4E4FF129918129632129694
:1067000045D2AF9044F474FDF0E47F0AFEFDFC1224
:1067100082F49000007402F0900000E0FF14F0EFAB
:106720006018E4FFFEFDFCE025E025E02432F58260
:10673000E43407F5831247F980DE9000007402F01C
:10674000900000E0FF14F0EF6025E4FFFEFDFCE0A8
:10675000FB25E025E0246AF582E43408F58312473E
:10676000F974762BF582E43408F583E4F080D1786F
:10677000537C087D017B017A0779327E007F091204
:1067800049589006E7E090073AF0E490084EF0A3ED
:10679000F0900852F0FFFEFDFC9007561247F9E416
:1067A000FFFEFDFC9007521247F9E4FFFEFDFC904E
:1067B000074E1247F9E4FFFE127D54EF60077F0198
:1067C00012953E8005E4FF12953EE4900000F090A3
:1067D0000000E0FFC39402503B7D01126360900013
:1067E00000E0FB25E025E0246AF582E43408F58327
:1067F000E0FCA3E0FDA3E0FEA3E0FFEB25E025E045
:10680000244EF582E43407F5831247F9900000E046
:1068100004F080BBE4FFFE127D54EF60077F01129D
:10682000953E8005E4FF12953E90073AE0FF1299ED
:106830001EE490088AF0C20E90079AF0C20B9007EF
:1068400072E070077F011299608005E4FF12996081
:10685000E4FF1299421279C412993CEF7020300D76
:106860000E7F01129966C20DC20C12754080E9308C
:106870000CE67F01129966E490085BF080DA7F01F4
:1068800012994212993CEF640160F81295BFEF3003
:10689000E7BE12920780B92290079AE024FE7003A7
:1068A00002695C147003026A41146076147003027A
:1068B0006A2E24046003026A621298AE9006D9E040
:1068C000FCA3E0FDA3E0FEA3E0FF9009231247F93B
:1068D0009006DDE0FCA3E0FDA3E0FEA3E0FF90094D
:1068E000271247F99006E1E0FCA3E0FDA3E0FEA338
:1068F000E0FF90092B1247F9E4FFFEFDFC900853DE
:106900001247F9E4FFFEFDFC9008571247F9900882
:106910005BE0540370057F0312991E90079A74047C
:10692000F02290092FE004F0E0640A6003026A623A
:10693000F07F997E19FDFC9006D91247F9E4FFFE1D
:10694000FDFC9006DD1247F9E47FCC7E4CFDFC9007
:1069500006E11247F990079A7402F022900853E07A
:10696000FCA3E0FDA3E0FEA3E0245BFFE43EFEE425
:106970003DFDE43CFC9008531247F9900857E0FCB9
:10698000A3E0FDA3E0FEA3E0C3945BFFEE9400FE52
:10699000ED9400FDEC9400FC9008571247F9D39059
:1069A0000873E094E8900872E06480948350139038
:1069B0000875E094E8900874E064809483500302C2
:1069C0006A62900732E0A3E0A3E0FFA3E090076FC4
:1069D000CFF0A3EFF0900923E0FCA3E0FDA3E0FEDD
:1069E000A3E0FF9006D91247F9900927E0FCA3E045
:1069F000FDA3E0FEA3E0FF9006DD1247F990092B0E
:106A0000E0FCA3E0FDA3E0FEA3E0FF9006E1124757
:106A1000F9E4FFFEFDFC9008531247F9E4FFFEFD88
:106A2000FC9008571247F990079A7405F0229009D4
:106A30002FE004F0E0640A7029F090079A7403F0E4
:106A40002290085BE054037004FF12991E7F087EB9
:106A500000127D54E4FFFE127D54E490079AF01278
:106A600098A722900004ECF0A3EDF0A3EAF0A3EBCA
:106A7000F0900009E0FED394005003026C03EED3C3
:106A800094014003026C03EF24FC601524FD603C7C
:106A900014606224FE7003026B1E24096003026B03
:106AA00047900008E0D3940F40117B0C7A017918CD
:106AB0001297B190000AEFF0026B4C7B0C7A0179CF
:106AC0001C1297B190000AEFF0026B4C900008E0A6
:106AD000D3940F40107B0C7A0179191297B1900072
:106AE0000AEFF080677B0C7A01791D1297B1900054
:106AF0000AEFF08057900008E0D3940F40107B0C11
:106B00007A01791A1297B190000AEFF0803E7B0C5F
:106B10007A01791E1297B190000AEFF0802E900052
:106B200008E0D3940F40107B0C7A01791B1297B1C7
:106B300090000AEFF080157B0C7A01791F1297B153
:106B400090000AEFF08005E490000AF090000AE05F
:106B5000FF3395E0FEFDFCE47B20FAF9F8124626AF
:106B6000A804A905AA06AB07900004E0FEA3E0FF75
:106B7000E4FCFDEB2FFFEA3EFEED39FDEC38FCAB0B
:106B800007AA06A905F8A3E0FEA3E0FFE4FCFD12B6
:106B90004626E4FB7A80F9F81246B1AD07AC0690C0
:106BA0000008E0C3940E502FE0FBC3740E9BFFED72
:106BB000A807088005CEC313CE13D8F9FDAC06EBA9
:106BC00004FF900009E075F003A424CBF582E434BF
:106BD00009F583EFF08014900009E075F003A42418
:106BE000CBF582E43409F583740FF0AF059000090A
:106BF000E075F003A424C9F582E43409F583ECF0D0
:106C0000A3EFF0227B007A4079807D027C0012960F
:106C1000F19040827418F07B007A407984E4FDFCA6
:106C20001296F19040867450F07B007A4079887D0E
:106C3000FF7C0F1296F190408A741BF07B007A4023
:106C4000798C7D0B7C001296F190408E7419F07B4C
:106C5000007A4079907D2F7C001296F190409274DA
:106C600018F07B007A4079947DEF7C001296F190C9
:106C700040967418F07B007A407998E4FDFC1296F7
:106C8000F190409A741BF07B087A1F79F890000A03
:106C9000E4F0A37441F0A3E4F07F04FE1290489066
:106CA00043007406F09042007452F07B0C7A017934
:106CB0000F1297B19046A1EFF07B007A4279227DC6
:106CC000107C071296F17B007A4279207D517C126C
:106CD0001296F1E4900004F07F19FEFDFC90000094
:106CE0001247F9900000E0A3E0A3E0FEA3E0D394F4
:106CF00000EE9400404AA3E0FF6403604390422505
:106D0000E05401FEEF25E04E5403900004F0E47FD0
:106D1000E07E01FDFC128F00900000E0FCA3E0FD8E
:106D2000A3E0FEA3E0FF74FFEF24FFFFEE34FFFEBD
:106D3000ED34FFFDEC34FFFC9000001247F980A316
:106D4000900000E0A3E0A3E0FEA3E04E70057F0307
:106D500012997A7B007A4079047D007C011296F1C9
:106D60009040047407F0904006E4F09040087448A6
:106D7000F0904004E4F0904009F09040017402F07B
:106D800090400B7404F09043A2E0447FF09043A144
:106D9000E04401F09043A0E04480F02290073C746E
:106DA00001F0E47F997E19FDFCA31247F9E4FFFE90
:106DB000FDFC9007411247F9E47FCC7ECCFDFC90AE
:106DC00007451247F9E490074BF0900772F09007DF
:106DD0005E04F0E4F53BE53BC3940250377FD07E80
:106DE0008A7DFF7CFFE53B25E025E0245FF582E41A
:106DF0003407F5831247F9E47F307E75FDFCE53BEF
:106E000025E025E02467F582E43407F5831247F98D
:106E1000053B80C2E4F53BE53BC39402502BE4FF05
:106E2000FE7D807C3FE53B25E025E02456F582E4AD
:106E30003407F5831247F9744C253BF582E4340797
:106E4000F5837401F0053B80CEE47F78FEFDFC9075
:106E5000077F1247F9E47F6C7E07FDFC90077B12E9
:106E600047F9E47F3CFEFDFC9007831247F9E47F7D
:106E7000467E05FDFC9007871247F97F9C7EDC7DEE
:106E8000EF7C3A90078C1247F9E47F6EFEFDFC9090
:106E900007901247F9E490078BF0900794741FF065
:106EA000A37440F0E4FFFEFDFC90074CE0F9F812FB
:106EB00047AC90074E1247F9E4FFFEFDFC90074DEA
:106EC000E0F9F81247AC9007521247F9E4FFFEFDD3
:106ED000FC90074EE0F9F81247AC9007561247F9BC
:106EE000E47FB87E0BFDFC90074CE0F9F81247AC4C
:106EF00090076FEEF0A3EFF09007497405F0A374CC
:106F0000DCF090073B7401F0E4FFFE127D54EF606B
:106F10000E7F087E00127D54EF60047F0180027FA7
:106F200000229007CEE0F53A7B017A0779CE9008EF
:106F30004EE0A3E014FD1290E290084EE0FCA3E0C6
:106F400024CDF58274073CF583E0B50703D38001B7
:106F5000C34006E4900852F022E53A124825700A30
:106F6000006FFA01700E037012047028056FEE06B0
:106F7000704C09703A0A6FFE0C6FDE806FE6816F0D
:106F8000D6826FAE836FAA846FCE856FD2866FDA9A
:106F9000896FE28F6FEA906FBE916FB2926FC2936A
:106FA0006FC6946FCA950000706D128A882212888D
:106FB0000F229007CFE0FEA3E0FF12935822129118
:106FC0001422128F732212907C22128DEC22128CCA
:106FD000A0221286C92212706E2212893022127CDF
:106FE0007722128D2A221291A7221293DF22900774
:106FF000CFE0FEA3E0FF129492221281E3229007D9
:10700000CFE0FEA3E0FF12261A221294F6221260AD
:1070100039227F087E00127D54EF60067F011295B1
:107020003E22E4FF12953E22128C59EF60067F014A
:1070300012953E22E4FF12953E22126D9CEF6006EF
:107040007F0112953E22E4FF12953E227F011295A8
:107050003EE47FE87E03FDFC1282F4E4FF129930E7
:10706000E47FE87E03FDFC1282F412981F22900751
:10707000CFE0FEA3E0FFEE3395E0FDFC9008531255
:1070800047F9900853E0FCA3E0FDA3E0FEA3E0FF76
:1070900090074CE0F9F81247AC9008531247F9906A
:1070A00007D1E0FEA3E0FFEE3395E0FDFC9008572A
:1070B0001247F9900857E0FCA3E0FDA3E0FEA3E02F
:1070C000FF90074DE0F9F81247AC9008571247F9C6
:1070D0009006FAE070030271AFA3E0FCA3E0FDA309
:1070E000E0FEA3E0FF900853E0F8A3E0F9A3E0FA84
:1070F000A3E0FBC312475E50149006FBE0FCA3E044
:10710000FDA3E0FEA3E0FF9008531247F99006FFAD
:10711000E0FCA3E0FDA3E0FEA3E0FF900857E0F849
:10712000A3E0F9A3E0FAA3E0FBC312475E5014907A
:1071300006FFE0FCA3E0FDA3E0FEA3E0FF900857FC
:107140001247F9900703E0FCA3E0FDA3E0FEA3E0F3
:10715000FF900853E0F8A3E0F9A3E0FAA3E0FBD323
:1071600012475E4014900703E0FCA3E0FDA3E0FE9D
:10717000A3E0FF9008531247F9900707E0FCA3E053
:10718000FDA3E0FEA3E0FF900857E0F8A3E0F9A319
:10719000E0FAA3E0FBD312475E4014900707E0FC3F
:1071A000A3E0FDA3E0FEA3E0FF9008571247F922F9
:1071B000900003EEF0A3EFF0A3EDF012989790008B
:1071C00007EFF012985B900008EEF0A3EFF090004C
:1071D00003E0FCA3E0FD6F7002EC6E70030272E04E
:1071E0009043A2E05402900006F0A3E0703BA3E0BD
:1071F000FEA3E0FF4E6004ED4C702EEF4E70117B4D
:10720000027A4079841296F3904086E054BFF022CF
:10721000904086E04440F07B027A407984900003FD
:10722000E0FCA3E0FD1296F322900006E06054908B
:107230004001E4F09040107402F0904014E4F090AB
:107240004008E0547FF0904086E05408600A9000C7
:1072500003E07002A3E0702B7B027A407902900079
:1072600008E0FCA3E0FD1296F39040017407F09053
:107270004001E0540170F89043A2E054FDF09040CA
:1072800001E4F09043A2E05402602F7B027A40793F
:1072900002900003E0FCA3E0FD1296F3900005E0ED
:1072A00060047F0280027F00EF4401904001F09073
:1072B0004001E05401602980F6227B027A40798403
:1072C000900003E0FCA3E0FD1296F39043A2C0837C
:1072D000C082E0FF900006E0FEEF4ED082D083F047
:1072E00022900003EEF0A3EFF0A3EDF01298779058
:1072F0000007EFF0129801900008EEF0A3EFF09075
:107300000003E0FCA3E0FD6F7002EC6E70030274FA
:10731000109043A2E05401900006F0A3E0703BA35C
:10732000E0FEA3E0FF4E6004ED4C702EEF4E7011B6
:107330007B027A4079801296F3904082E054BFF04D
:1073400022904082E04440F07B027A4079809000B5
:1073500003E0FCA3E0FD1296F322900006E06053E8
:10736000904001E4F090401004F0904014E4F0905C
:107370004008E0547FF0904082E05408600A90009A
:1073800003E07002A3E0702B7B027A407902900048
:1073900008E0FCA3E0FD1296F39040017407F09022
:1073A0004001E0540170F89043A2E054FEF0904098
:1073B00001E4F09043A2E05401602F7B027A40790F
:1073C00002900003E0FCA3E0FD1296F3900005E0BC
:1073D00060047F0280027F00EF4401904001F09042
:1073E0004001E05401602980F6227B027A407980D6
:1073F000900003E0FCA3E0FD1296F39043A2C0834B
:10740000C082E0FF900006E0FEEF4ED082D083F015
:1074100022900003EEF0A3EFF0A3EDF012989F90FE
:107420000007EFF0129865900008EEF0A3EFF090DF
:107430000003E0FCA3E0FD6F7002EC6E70030275C8
:107440003F9043A1E05401900006F0A3E0703AA3FE
:10745000E0FEA3E0FF4E6004ED4C702DEF4E701087
:107460007B027A41F91296F3904102E054BFF02278
:10747000904102E04440F07B027A417900900003A1
:10748000E0FCA3E0FD1296F322900006E06053902A
:107490004001E4F090401404F0904010E4F090407B
:1074A00008E0547FF0904102E05408600A90000325
:1074B000E07002A3E0702B7B027A40790290000812
:1074C000E0FCA3E0FD1296F39040017407F09040B9
:1074D00001E0540170F89043A1E054FEF0904001A7
:1074E000E4F09043A1E05401602F7B027A407902DE
:1074F000900003E0FCA3E0FD1296F3900005E0602D
:10750000047F0280027F00EF4401904001F0904030
:1075100001E05401602980F6227B027A41790090D3
:107520000003E0FCA3E0FD1296F39043A1C083C0EA
:1075300082E0FF900006E0FEEF4ED082D083F02282
:10754000E4F539128B28EF7003027666E539C394AF
:107550000640030276661288D58F38E50814604924
:107560001460601470030275F614700302764424EC
:107570000470D0850C0B850D0C85380DE50CB43AE4
:1075800011E50DB43A0CE4F50BF50CF50D75080199
:1075900080B1E50BB43FACE50CB40DA7E50D640A72
:1075A00070A1FFFE129492809A9006D8E065386030
:1075B00004E5387004C2008002D200E4F50A7508C0
:1075C00002808085380AE50AD394015008E4F50A60
:1075D000F508027543E50AD394804008E4F50AF5FE
:1075E00008027543E4F50920000675080302754397
:1075F000750804027543748B2509F582E43408F597
:1076000083E538F00509E509C3950A50030275437F
:10761000200025AF0A7E0078CE7C077D017B017AB1
:1076200008798B12495890084EE4F0A3E50AF090CF
:1076300008527401F0126F22E4F509F50AF5080505
:1076400039027543150AE50A6003027543F509F529
:107650000A7F01129918E4FF129918E4F508053918
:107660000275430275432275246375259C7526397E
:1076700075279EC3900795E09440900794E0941F6F
:10768000507EAE26AF27E4FCFD9007C1E0F8A3E0F2
:10769000F9A3E0FAA3E0FB12475E4006E490088AF3
:1076A000F022900794E0FEA3E0FFE4FCFD9007C108
:1076B000E0F8A3E0F9A3E0FAA3E0FBC312475E50B1
:1076C0000790088A7464F022900794E0FEA3E0FF1C
:1076D000FBAA06E49007C1E0FCA3E0FDA3E0FEA343
:1076E000E0C39BFFEE9AFEED9400FDEC9400FC7865
:1076F000091247988F23EF90A1E79390088AF02210
:10770000AE24AF25E4FCFD9007C1E0F8A3E0F9A3A7
:10771000E0FAA3E0FBD312475E4006E490088AF04B
:1077200022900794E0FEA3E0FFE4FCFD9007C1E097
:10773000F8A3E0F9A3E0FAA3E0FBC312475E500709
:1077400090088A7464F0229007C1E0FCA3E0FDA3D6
:10775000E0FEA3E024C0FFEE34E0FEED34FFFDECDC
:1077600034FFFC78091247988F23C3900795E09463
:10777000EC900794E0942C500AEF90A1C3939008EA
:107780008AF022E52390A1A69390088AF0227593AF
:107790000078007583467582E8E04401F000904867
:1077A0000074C0F07581479076BCE4F0A3F0A3F0BC
:1077B000A3F0907010F0907019F0907020F0907617
:1077C000007410F0907604E4F0A3F0A3F0A3F0901E
:1077D00078007800087400F0A37408F0E8B8040298
:1077E00074FFA3F0A37422F0A374BCF0A37476F02A
:1077F000A3E4F0A3E81475F008A4F0A3B804D590AE
:1078000070107401F0907014F07E707F18122604CE
:10781000907010F0EA9009DEF0022611750E1F75C7
:107820000FFD1278AB128FA9027866026641E493CD
:10783000A3F8E493A34003F68001F208DFF4802963
:10784000E493A3F85407240CC8C333C4540F442052
:10785000C8834004F456800146F6DFE4800B010241
:107860000408102040809080BAE47E019360BCA39D
:10787000FF543F30E509541FFEE493A360010ECF8F
:1078800054C025E060A840B8E493A3FAE493A3F8B9
:10789000E493A3C8C582C8CAC583CAF0A3C8C58279
:1078A000C8CAC583CADFE9DEE780BE7B007A4679B5
:1078B000E81297B1EF4401FD7B007A4679E8129710
:1078C000BD127AAF905883740AF07CA17DA27B0030
:1078D0007A7679507F047E001293327B017A507958
:1078E000031297B1EF4402FD7B017A50790312979E
:1078F000BD7B017A5079131297B1EF4402FD7B01F1
:107900007A5079131297BD9043A0E04440F0904321
:10791000C2E04410F07B087A1F79F090000AE4F08E
:10792000A37451F0A37402F07F087E001290487C8B
:10793000A17D7E7B007A5179C27F087E001293324E
:107940007CA17D867B007A5179F07F0A7E001293BC
:10795000327CA17D907B007A5179107F0A7E0012E3
:1079600093327CA17D9A7B007A5179227F087E0038
:107970001293329044F47401F0904322E04408F0F2
:107980009046ECE0C394055006904689743AF09016
:10799000480074F1F0126C041292BD7B007A4379B6
:1079A000A0C003C00290000AEBF0A3EAF0A374B0F9
:1079B000F0D002D0037F0E7E001290489043B0E0DA
:1079C00054FDF0221296C490085C1247F97F011210
:1079D0009954300D05C20D1275407F011296D330B7
:1079E0000D05C20D127540E4FDFF126360300D05F8
:1079F000C20D127540E4FD7F01126360300D05C2B7
:107A00000D127540E4FF125C72300D05C20D127547
:107A1000407F01125C72300D05C20D127540125884
:107A20009190079AE07003D38001C3402490090B22
:107A3000E07004A3E06464700A126898E490090B93
:107A4000F0A3F090090CE004F0700690090BE0043C
:107A5000F0300D05C20D127540789B7C077D017BCF
:107A6000017A08796A7E007F2012495878C57C0720
:107A70007D017B017A0779327E007F0912495878AF
:107A8000327C077D017B017A0879537E007F0912E1
:107A90004958300D05C20D1275401296C49007BDAD
:107AA0001247F97F407E4B7D4C7C0012983D22E4CA
:107AB000FFFEFDFC9009EE1247F99076007410F07D
:107AC0009070107401F0907019E4F07B027A78F9EC
:107AD0007DC87C021296F39078027401F0A374A31F
:107AE000F07B027A787904C003C002C0017BFF7A80
:107AF0009E79B0E9EAE4AD01AC02D001D002D00336
:107B00001296F37B027A7879067D087C781296F3D8
:107B10007B027A7679047D107C001296F37B027AE0
:107B2000767906E4FDFC1296F3907029740BF090C0
:107B3000703904F0907059740FF09070697419F0F6
:107B40009070797422F09070147401F0907018E0C5
:107B5000540170F8907028E0540170F8907038E08B
:107B6000540170F8907058E0540170F8907068E01B
:107B7000540170F8907078E0540170F87B087A0432
:107B800079C090000A7401F0A37451F0A37410F04E
:107B90007F067E001290482290000AEBF0A3EAF0E4
:107BA000A3E9F0A3EDF012959590000DE0C3948049
:107BB0004003027C6B12941EEF6003027C63900012
:107BC0000E74FFF090000AE0FBA3E0FAA3E0F99046
:107BD0000013E4F0A37410F07F40128656EF6407A0
:107BE000707C904722E0540260F8904722E05402F3
:107BF0006009E0FF1313543FFF80027FFFEF700422
:107C000090000EF090000EE0704E90000DE0FD7CB4
:107C1000009009ECE0FBA3E0900013F07F40128A93
:107C200034EF6407702A90000E74FFF0904722E052
:107C3000540260F8904722E054026009E0FF1313F9
:107C4000543FFF80027FFFEF701490000EF0800E13
:107C500090000E74FFF0800690000E74FFF01297F3
:107C6000C9800E90000E7404F0800690000E74011E
:107C7000F090000EE0FF229007CFE090085BF090BC
:107C8000086AE0FCA3E0FDA3E0FEA3E0FF90085338
:107C90001247F990086EE0FCA3E0FDA3E0FEA3E02C
:107CA000FF9008571247F9E47F907E65FDFC90082D
:107CB0006AE0F8A3E0F9A3E0FAA3E0FBD312475E81
:107CC0004003027D467F707E9A7DFF7CFF90086AAC
:107CD000E0F8A3E0A3E0A3E0C312475E4068E47FBE
:107CE000907E65FDFC90086EE0F8A3E0F9A3E0FA51
:107CF000A3E0FBD312475E504D7F707E9A7DFF7CE0
:107D0000FF90086EE0F8A3E0A3E0A3E0C312475E93
:107D10004034E47F907E65FDFC900872E0F8A3E0BB
:107D2000F9A3E0FAA3E0FBD312475E50197F707EFF
:107D30009A7DFF7CFF900872E0F8A3E0A3E0A3E047
:107D4000C312475E5005E490085BF090085BE0FFCB
:107D500012991E22900003EEF0A3EFF09000097438
:107D600001F0E4FF1298DCE4FF1298E212997078B7
:107D7000D77C067D017B017A07793B7E007F5B1211
:107D80004958900007E4F0A37406F0E4900005F071
:107D9000A3F0900007E0FEA3E0FF900005E0FCA345
:107DA000E0FDC39FEE6480F8EC648098503FEDC422
:107DB000F8540FC868FFECC454F048FE7B01743BD4
:107DC0002FF974073EFA900003E0A3E0FFED2FFDCA
:107DD000127B98EF6007E4900009F0801090000695
:107DE000E004F07006900005E004F080A5783B7C8C
:107DF000077D017B017A0679D77E007F5B124958A7
:107E0000900009E0FF229009C47401F0E49009CFCA
:107E1000F07F101297977F101297A47D077F1D1295
:107E200094C49058967404F0A3E4F090589EF09097
:107E30005B07E04418F0905893E4F0905B88F0A35F
:107E4000F0905880740AF0A3E4F0905883F09058B2
:107E5000887412F0A304F090588DE4F0904E0174F1
:107E600014F0900008740CF0A37401F07B007A8089
:107E70007D6B7C8D7F02126A639009C4E075F0030C
:107E8000A424CBF582E43409F583E0904E0EF09003
:107E900009C4E075F003A424C9F582E43409F5832C
:107EA000E0FCA3E0FD7B027A4E790C1296F3900978
:107EB000C4E0FF127F6822C0E0C083C082C085C0DA
:107EC00084C086758600C093759300C0D075D000BD
:107ED000C001C002C003C006C007E4FBA2AF33FA72
:107EE000D2AF9044F474FDF0906468E0FFFE541E3D
:107EF000F960069009C3E049F0EF30E54590644B26
:107F0000E0FE9009C0E024A0F582E43409F583EE98
:107F1000F07B01EB602C90099EE060069009C27432
:107F200001F09009C0E004F0E0C394204002E4F0C6
:107F300090099FE0FE9009C0E0B5060690099E7486
:107F400001F0EF20E5A2AF02EA24FF92AFD007D004
:107F500006D003D002D001D0D0D093D086D084D028
:107F600085D082D083D0E032E49009CAF0EF64017A
:107F70006003028015904E007432F0904E02740639
:107F8000F0A37408F0A3E4F0A3F0A3741FF0904EE4
:107F900008E4F0A3F0A3F0904E1404F09058847419
:107FA00014F0A37405F0A37416F0A3E4F090588ABB
:107FB0007444F0A37448F0A37401F090588E04F058
:107FC000A37422F0A37428F0A374EBF07F52128EF6
:107FD000689058947458F0A3E4F090589A04F0A371
:107FE000F0A3E4F0A3740AF0E4FF1294DDE47F331D
:107FF0007E03FDFC9009D01247F97D017F047E00CD
:108000001271B07D017F157E001274117C997D7F05
:108010007F1D1289E0229006CEEBF0A3EAF0A3E9DF
:10802000F0A3ECF0A3EDF07F3A1297707F3A12972D
:10803000709006D3E0600B90073CE004FF1297704D
:10804000800890073CE0FF1297709006D1E0A3E013
:10805000FF129770E4F546F547D39006D2E09547B6
:108060009006D1E0954640229006CEE0FBA3E0FAD0
:10807000A3E02547F9EA3546FA1245AFFF1297709B
:108080000547E5477002054680CFE4F546F54712FF
:1080900098CAEF20E0130547E547AE467002054653
:1080A00014D394E8EE940340E69006D3E0700A7F80
:1080B00001129918E4FF129918224209F28000C1B6
:1080C0000A01080042090B0001C19141092F00413A
:1080D00009C1004109C30041099F004109C0004195
:1080E000099E004109C2004109F4004109F500411F
:1080F00009F6004109F7004109F8004109F900417A
:1081000009CF004109CA004109C5004109CB00411E
:1081100009C4014109FAFF4109FB004109E8804116
:1081200009E77F4409E3000004004409DA02DC6C3B
:10813000004409D50000BB804109D9304409DF5D06
:10814000C000004109FC004109FDFF4309E90000AE
:10815000004109FE0000900003EBF0A3EAF0A3E960
:10816000F0A3ECF0A3EDF07F3A1297707F3A1297EC
:1081700070900008E0FF129770900006E0A3E0FF07
:10818000129770E4F53FF540D3900007E0954090DA
:108190000006E0953F4022900003E0FBA3E0FAA335
:1081A000E02540F9EA353FFA1245AFFF1297700516
:1081B00040E5407002053F80CFE4F53FF54012985E
:1081C000CAEF20E0130540E540AE3F7002053F14C2
:1081D000D394E8EE940340E67F01129918E4FF126D
:1081E000991822E4F53BE53BC394025077E53B2523
:1081F000E024CFF582E43407F583E0FEA3E0FFC37B
:10820000E49FFFE49EFE3395E0FDFCE53B25E02581
:10821000E0244EF582E43407F5831247F9E53B2567
:10822000E025E0244EF582E43407F583C083C08264
:10823000E0FCA3E0FDA3E0FEA3E0FF744C253BF5CA
:1082400082E43407F583E0F9F81247ACD082D0839A
:108250001247F97476253BF582E43408F583E4F09F
:10826000053B8082D20B7F0112953E2212958090B1
:108270000004EFF09009C4E0900003F09043AAE0FE
:108280004401F0E04410F09043BAE04401F0E044CF
:1082900010F09046F8E04402F0A3E04402F0905859
:1082A00091E04403F07F037E001292649046F8E070
:1082B00054FDF0A3E054FDF0905877E04406F090B0
:1082C0005882747AF09043A1E04401F09043B1E009
:1082D0004401F09043A2E04402F09043B2E0440233
:1082E000F09044DB7420F09044C3F0900004E0FF71
:1082F00012950E2290FFFC12484B1247F9850E830F
:10830000850F82E0A3E0A3E0FEA3E0D39400EE9407
:1083100080403D9009DFE0FCA3E0FDA3E0FEA3E088
:10832000FF128F00850E83850F82C083C082E0FC20
:10833000A3E0FDA3E0FEA3E02400FFEE3480FEED09
:1083400034FFFDEC34FFFCD082D0831247F980ADBE
:108350009009D5E0FCA3E0FDA3E0FEA3E0FF850EBD
:1083600083850F82E0F8A3E0F9A3E0FAA3E0FB1213
:108370004626128F0090000412484B22900004EC15
:10838000F0A3EDF0A3EBF0900003EFF09000087481
:1083900001F0EFC394805065900004E054F0A370A6
:1083A0005C900003E075F008A42400FFE5F0347849
:1083B000FE900009F0A3EFF0AA06F97B01900004FB
:1083C000E0FCA3E0FD1296F3900006E0FF900003AE
:1083D000E0FE75F008A42402F582E5F03478F58318
:1083E000EFF0900007E0FF75F008EEA42403F5829B
:1083F000E5F03478F583EFF0E4900008F0900008A1
:10840000E0FF22AC077A01ECC39418506CEB5401E6
:1084100075F080A4FFED547F4FFF75F008ECA424A5
:1084200000F582E5F03476F583EFF090000DE0542E
:108430000F75F010A4FF90000CE0540F4FFF75F083
:1084400008ECA42401F582E5F03476F583EFF09092
:10845000000EE0540FFF75F008ECA42402F582E54D
:10846000F03476F583EFF075F008ECA42403F58280
:10847000E5F03476F583E4F01AAF022290000AECBE
:10848000F0A3EDF0A3EAF0A3EBF0900009EFF09079
:10849000000E7401F0EFC394185053900009E0757A
:1084A000F008A42404FFE5F03476FE90000FF0A35A
:1084B000EFF0AA06F97B0190000AE0FCA3E0FD12B0
:1084C00096F3900009E075F008A42406FFE5F03467
:1084D00076FE90000FF0A3EFF0AA06F97B01900062
:1084E0000CE0FCA3E0FD1296F3E490000EF0900087
:1084F0000EE0FF22900004ECF0A3EDF0A3EAF0A35D
:10850000EBF0900003EFF09000087401F0EFC394DB
:10851000805053900003E075F008A42404FFE5F0B8
:108520003478FE900009F0A3EFF0AA06F97B0190E1
:108530000004E0FCA3E0FD1296F3900003E075F068
:1085400008A42406FFE5F03478FE900009F0A3EFBC
:10855000F0AA06F97B01900006E0FCA3E0FD12966C
:10856000F3E4900008F0900008E0FF22780612473C
:10857000ACE47B08FAF9F8124626C004C005C00630
:10858000C007E47FF87E03FDFC900975E0F8A3E0E6
:10859000F9A3E0FAA3E0FB124626D003D002D001F3
:1085A000D000EF2BFFEE3AFEED39FDEC38FC780AF7
:1085B0001247989009791247F9900979E0FCA3E0F5
:1085C000FDA3E0FEA3E0FF9009751247F990097939
:1085D000E0FCA3E0FDA3E0FEA3E0FF7806124798CD
