:40000000021415008F828E83E0540100000070F82278FFE4F6D8FD02147A900000EFF0E4F53FF540F541F54275430AC200121F87EF60057F00121FB7122067D2AF9044F4FC
:4000400074FDF0E4F53B754900754A00754B37900000E0FF70067EFF7FFF80008F4C7B017A0079017D2C7C011212FA8F3E900000E060021543E5436004E53E70C9E53E6046
:400080000302059FC3E5389407E53794004008900001E064016005753B04807E900004E0FE900003E0FDEEF53FEDF54074062540F5827400353FF583E0FE74052540F58228
:4000C0007400353FF583E0FDEEF53CEDF53DE5402407FFE4353FFED3EF9538EE95374005753B03803574072540F5827400353FF583E064176005753B04801F7B017A0079B1
:4001000001E5402404FDE4353FFC121C66EF653D7003EE653C6003753B08E4F539F53AE53B600302058E900005E0F536753B04900002E012088801553101823202083403A0
:400140007A3503883703D438020839040F3A05783B0000058B20000302058EE540453F600302058EFF120D84EF70047F0180027F00900005EFF0753900753A01E4F53B0260
:40018000058E20000302058EE5406401453F600302058EE536C39401400302058E900357E0FEA3E0F5828E83120842E4FBFA7901F81207188F24E536B5241E900357E0FE6B
:4001C000A3E0F5828E83120842E4FB7A01F9F81207187522008F238014E536D395244007E4F522F5238006752201752300E523900005F0E522A3F0A374FFF0E4A3F0F539B6
:40020000753A04F53B02058E900002E06434703C20000302058EE5406403453F600302058EE536C39440400FE536D3947F50087541007542108006754101754220AE41AF47
:40024000427D007B017A01792D1208FF20000302058EC3E5409403E53F9400500302058EE54024FDFFE53F34FFFE742D2542F974013541A801FC7D017B017A0079081209F7
:40028000E7E54024FDFFE53F34FFFEEF2542F542EE3541F541E536C394404012E536D3947F500B121DA8753F007540108006753F01754020E54265407004E541653F600369
:4002C00002036F900007E0FE900006E0FDEEF541EDF542E536D3943F506FE5367F00FEEF2542FFE5413E900259F0A3EFF0900357E0FEA3E0F5828E83120842E4FB7A01F9AA
:40030000F812071890025BEEF0A3EFF0900357E0FEA3E0F5828E83120842EFE4EF600A90025BE475F0011205DA90025BE0FEA3E0FFC390025AE09F900259E09E500B753BD5
:400340000AE4F541F54202058E7B017A01792D900263E53FF0A3E540F0AD42AC41AF36120F0BEF60047F0A80027F008F3B8003753B03E4F541F54202058E20000302058EC7
:40038000E4F541F54202059F20000302058EE5422540FFE541353FFED3EF942CEE9401502DE4F53BAE3FAF40742D2542F974013541A801FC7D017B017A0079051209E7E58F
:4003C000402542F542E53F3541F54102058E753B0302058EE540453F600302058E78257C00FD7BFF7A25791FFE7F081209E7D200753900753A08AE39AF3A78057C007D0105
:400400007B007A0079251209E7E4F53B02058E20000302058EE5406403453F600302058E900007E0FE900006E0FDEEF52FEDF530E536C394404038E536D3947F5031AE2F29
:40044000AF307C007D101208D28F348E338D328C318F4B8E4A8D498C48E4754F10F54EF54DF54CFF7E80FDFC12192C8F358050AE2FAF307C017D001208D2C004C005C006FC
:40048000C007AF36E4FCFDFEFBFA7901F812068DD003D002D001D0001206728F348E338D328C318F4B8E4A8D498C48E4F54F754E01F54DF54CFFFE7D10FC12192C8F35E588
:4004C00036D3943F5072AF367E007C207D001208D2E42FFFE43EFEED3408FDE43CFCC004A905AA06AB07AE2FAF307C007D201208D2D0001206728F348E338D328C31E4F5BA
:400500002DF52EC3E52E9420E52D9400502AE4E52E2534FFE52D3533FEE43532FDE43531A907AA06AB05121CF3EF2535F535052EE52E7002052D80CBE536702AAE2FAF301E
:40054000FCFD7BFFFAF9F8C31207C57019FD7F05120A3DC3E5359FF535E4FD7F06120A3DC3E5359FF535E535F404900005F0E4F53BF539753A018016E4FF120D84EF700604
:400580009046FA7480F01220718003753B057B017A007901853948853A49AF3B1215ED900000E0700302004330000302004322BB010689828A83E0225002E722BBFE02E399
:4005C0002289828A83E49322BB010689828A83F0225002F722BBFE01F322C5F0F8A3E028F0C5F0F8E582158270021583E038F022BB010A89828A83E0F5F0A3E022500687B6
:40060000F009E71922BBFE07E3F5F009E3192289828A83E493F5F074019322BB010789828A830205DA500B09C5F027F7C5F01937F722BBFE0D09F8E325F0F3C5F019E338A6
:40064000F322F889828A8374019325F0C5F0F8E4933822BB010A89828A83F0E5F0A3F0225006F709A7F01922BBFE06F3E5F009F31922EF2BFFEE3AFEED39FDEC38FC22C315
:40068000EF9BFFEE9AFEED99FDEC98FC22E88FF0A4CC8BF0A42CFCE98EF0A42CFC8AF0EDA42CFCEA8EF0A4CDA8F08BF0A42DCC3825F0FDE98FF0A42CCD35F0FCEB8EF0A47C
:4006C000FEA9F0EB8FF0A4CFC5F02ECD39FEE43CFCEAA42DCE35F0FDE43CFC2275F008758200EF2FFFEE33FECD33CDCC33CCC58233C5829BED9AEC99E58298400CF582EE4A
:400700009BFEED9AFDEC99FC0FD5F0D6E4CEFBE4CDFAE4CCF9A88222B800C1B90059BA002DEC8BF084CFCECDFCE5F0CBF97818EF2FFFEE33FEED33FDEC33FCEB33FB10D7C4
:4007400003994004EB99FB0FD8E5E4F9FA227818EF2FFFEE33FEED33FDEC33FCC933C910D7059BE99A4007EC9BFCE99AF90FD8E0E4C9FAE4CCFB2275F010EF2FFFEE33FE50
:40078000ED33FDCC33CCC833C810D7079BEC9AE899400AED9BFDEC9AFCE899F80FD5F0DAE4CDFBE4CCFAE4C8F922EF4BFFEE4AFEED49FDEC48FC22C3E49FFFE49EFEE49D2F
:4007C000FDE49CFC22EB9FF5F0EA9E42F0E99D42F0E89C45F022E8600FECC313FCED13FDEE13FEEF13FFD8F122E8600FEFC333FFEE33FEED33FDEC33FCD8F122BB010789DC
:40080000828A830208365005E9F8020A0DBBFE05E9F8020A1989828A83020842BB010789828A8302085E5005E9F8020A25BBFE05E9F8020A3122E0FCA3E0FDA3E0FEA3E06A
:40084000FF22E493FC740193FD740293FE740393FF22E0F8A3E0F9A3E0FAA3E0FB22ECF0A3EDF0A3EEF0A3EFF022E0FBA3E0FAA3E0F922EBF0A3EAF0A3E9F022E493FB74E9
:400880000193FA740293F922D083D082F8E4937012740193700DA3A393F8740193F5828883E4737402936860EFA3A3A380DFE5092582F582E5083583F583B50804858209B7
:4008C0002210AF06858209F50822858209F508D2AF22EC8EF0A4CCC5F0CCCDF8EFA4CEC5F02DFDE43CFCE8A42EC8C5F03DFDE43CFCEFA4FFE5F028FEE43DFDE43CFC22EF51
:400900004E6012EF60010EEDBB010B89828A83F0A3DFFCDEFA2289F05007F709DFFCA9F022BBFEFCF309DFFCA9F022E709F608DFFA8046E709F208DFFA803E88828C83E7AA
:4009400009F0A3DFFA8032E309F608DFFA806EE309F208DFFA806688828C83E309F0A3DFFA805A89828A83E0A3F608DFFA804E89828A83E0A3F208DFFA804280D280FA80F3
:40098000C680D4805580F28029801080A680EA809A80A880DA80E280CA802988848C8589828A83E493A30586F0A30586DFF5DEF3800B89828A83E493A3F608DFF9ECFAA95D
:4009C000F0EDFB2288848C8589828A83E0A30586F0A30586DFF6DEF480E389828A83E493A3F208DFF980D688F0EF60010E4E60CD88F0ED2402B4040050C3F582EB2402B455
:400A0000040050B9232345822390097B73E6FC08E6FD08E6FE08E6FF22E2FC08E2FD08E2FE08E2FF22ECF608EDF608EEF608EFF622ECF208EDF208EEF208EFF22290025D03
:400A4000EDF0AB079002627402F0E4FFFEFDFCA312085EEB1208880A79010AA6020ACB030AF0040B15050B40060B8F070B6B080BB3090BD70A00000C0190025DE0FF7E005E
:400A80007C017D001208D21207B7EF24C0FFEE34FFFEED3410FDE43CFCA312085E9002627401F0020C0C90025DE0FF7E007C017D001208D2C374C39FFF74FF9EFE74109DBD
:400AC000FDE49CFCA312085E020C0C90025DE0FF7E007C017D001208D2C374C79FFF74FF9EFE74109DFDE49CFCA312085E020C0C90025DE0FF7E007C017D001208D2C37433
:400B0000CB9FFF74FF9EFE74109DFDE49CFCA312085E020C0C90025DE0FF7E007C017D001208D2C374D09FFF74FF9EFE74109DFDE49CFCA312085E9002627401F0020C0C60
:400B400090025DE0FF7E007C017D001208D2C374D19FFF74FF9EFE74109DFDE49CFCA312085E9002627401F0020C0C90025DE0FF7E007C017D001208D2C374D69FFF74FF16
:400B80009EFE74109DFDE49CFCA312085E807D90025DE0FF7E007C017D001208D2C374D29FFF74FF9EFE74109DFDE49CFCA312085E805990025DE0FF7E007C017D00120811
:400BC000D2C374D49FFF74FF9EFE74109DFDE49CFCA312085E803590025DE0FF7E007C017D001208D2C374D89FFF74FF9EFE74109DFDE49CFCA312085E9002627404F08082
:400C00000BE4FFFEFDFC90025E12085E900262E0B4011990025E120836A907AA06AB05121CF3E4FCFDFE90026312085E900262E06402705C90025E120836EF2401FFE43E91
:400C4000FEE43DFDE43CA907AA06AB05121CF3E4FCFDFE90026312085E900263120852C000C001C002C00390025E120836A907AA06AB05121CF3E4FCFDFE78081207E9D0BA
:400C800003D002D001D0001207AA90026312085E900262E064046003020D7D90025E120836EF2403FFE43EFEE43DFDE43CA907AA06AB05121CF3E4FCFDFE90026312085E37
:400CC000900263120852C000C001C002C00390025E120836EF2402FFE43EFEE43DFDE43CA907AA06AB05121CF3E4FCFDFE78081207E9D003D002D001D0001207AA9002634F
:400D000012085E900263120852C000C001C002C00390025E120836EF2401FFE43EFEE43DFDE43CA907AA06AB05121CF3E4FCFDFE78101207E9D003D002D001D0001207AA84
:400D400090026312085E900263120852C000C001C002C00390025E120836A907AA06AB05121CF3E4FCFDFE78181207E9D003D002D001D0001207AA90026312085E90026356
:400D8000120836228F44AD447F03120A3DEF2401FFE43EFEE43DFDE43CFCE4FB7A01F9F812068DC004C005C006C007AD447F04120A3DD003D002D001D0001206728F4C8EA9
:400DC0004B8D4A8C49C201E4F54DAD447F03120A3DEF2401FFE43EFEE43DFDE43CFCE4FB7A01F9F812068D8F488E478D468C45AF4CAE4BAD4AAC49AB48AA47A946A845C337
:400E00001207C55032854882854783E493F54E6005F46002D201E54E254DF54DAF48AE47AD46AC45E47B01FAF9F81206728F488E478D468C4580B8AD447F03120A3DEF2479
:400E400001FFE43EFEE43DFDE43CFCE4FB7A01F9F812068D78031207D68F488E478D468C45E47FC07EFFFDFCAB4CAA4BA94AA849C31207C57007FF7E20FDFC800DAF4CAE21
:400E80004BAD4AAC4978031207D68F4C8E4B8D4A8C49AF4CAE4BAD4AAC49AB48AA47A946A845C31207C55039E42548FFE43547FEE5463408FDE43545A907AA06AB05121CB9
:400EC000F3EF254DF54DAF48AE47AD46AC45E47B01FAF9F81206728F488E478D468C4580B1E54DF404F54DAD447F01120A3DA804A905AA06AB07AF4DE4FCFDFEC31207C5CC
:400F000070032001037F06227F002290025EECF0A3EDF0A312087390025DEFF0E4900265F0EFD3943F500E90025DE0940140069002657401F090025DE0FFD3947F4006903A
:400F400002657401F0EFC39440400CEFD3944140069002657401F0EFD3943F501E90025EE0FEA3E0FFE4FCFDFB7A01F9F8C31207C5502F9002657401F08027D390025FE03C
:400F8000948090025EE0940040069002657401F0900263E07004A3E0641060069002657401F090026012086AE94A4B700590026504F0900265E0600302108A121EFEEF606E
:400FC0000302108490025EE0FCA3E0FDA312086A900263E0FFA3E090026CCFF0A3EFF090025DE0FF1211DE900265EFF06407600302107F904722E0540270087F01FE121EF6
:401000006480F0904722E054026009E0FF1313543FFF80027FFFEF7006900265F0800690026574FFF0900265E0705490025DE0FFA3E0FCA3E0FD900353E0FBA3E090026AD9
:40104000F0121A90900265EFF064077032904722E0540270087F01FE121E6480F0904722E054026009E0FF1313543FFF80027FFFEF7006900265F0800690026574FFF0124B
:40108000205180069002657404F0900265E0FF227B007A4679E8121CF3EF4401FD7B007A4679E8122045E4F52CE52CC3940A502CE52C75F005A42461F582E43424AF82F571
:4010C000218F22F58312087C8F82852183740393FC740493FD121F6E052C80CDE4F52CE52CC394015046E52C75F007A42413F582E43425AF82F5238F24F58312087C8B25E1
:401100008A2689278F82852383740393FE7404938E28F529740593F52A740693F52BAD29AC28FFAE2A121EB8052C80B37E207F92121DD97B017A507903121CF3EF4402FD3B
:401140007B017A5079031220457B017A507913121CF3EF4402FD7B017A5079131220459043A0E04440F09043C2E04410F07C207D827B007A5179127F087E00121EB87C2053
:401180007D8A7B007A5179227F087E00121EB89044F47401F0904322E04408F09046ECE0C394055006904689743AF090480074F1F012150690480074B1F0121F1D7B007A41
:4011C0004379A0C00179B0900005120873D0017F0E7E00121D749043B0E054FDF022900266EFF0A3ECF0A3EDF0A312087390026E7407F0904722E0540270030212EE904756
:401200002074B6F074D5F07402F0904722E0540260030212E6900266E0904720F0E490026FF0A3F090026CE0FEA3E0FF90026FE0FCA3E0FDC39FEC9E501F90026912086A8D
:40124000E92DF9EA3CFA1205AF904720F090026FE475F0011205DA80CB90026CE064017002A3E060030212F4900266E0FFD3943F40030212F47E007C207D001208D2E42F0A
:40128000FFE43EFEED3408FDE43CFCC004A905AA06AB07A3E0FEA3E0FF7C007D201208D2D00012067290027112085EE490026FF0A3F090026FE0FEA3E0FFC39420EE94005A
:4012C0005032E4FCFDA3120852120672A907AA06AB05121CF3904720EFF090026FE475F0011205DA80CC90026E7409F0800690026E7404F090026EE0FF228B448A4589469E
:401300008C478D48755505E4F54DF54EE54C75F00AA4FFC3E54E9FE54D95F0503B121B34EF6022121B347553008F54E47F19FEFDFC1218C7121B34D3EF9554E4955350E366
:40134000E4F5558013E47F01FEFDFC1218C7054EE54E7002054D80B4AB49AA4AA94BE4F5F0120653E4F54FF550121B34EFD394005003021412121B347551008F52AB49AA8D
:401380004AA94BE5518552F012061BAB49AA4AA94B1205F0C39548E5F09547505FE4F54DF54EC3E54E9552E54D95515025121C1CAB44E5462550F9E545354FFAEF1205C8C1
:4013C0000550E5507002054F054EE54E7002054D80D0AB44E55024FFFFE54F34FFFEE5462FF9E5453EFA1205AF64177003021369E47F05FEFDFC1218C7021369AB49AA4ABB
:40140000A94B1205F0C39552FFE5F095518FF0120653AF552275930078007583467582E8E04401F0009046ECE0F99046FAE0FA90034BF0B903225420B40012B8001AEA9014
:401440001FFFF07401901FFEF09046F6F0901FFEE06005901FFFE0FA90480074C0F0758156121EDE90000078007920E4F0A3D8FCD9FAEA90034BF002001175081F7509FD1F
:401480001210900214C1022079E493A3F8E493A34003F68001F208DFF48029E493A3F85407240CC8C333C4540F4420C8834004F456800146F6DFE4800B0102040810204063
:4014C00080901B83E47E019360BCA3FF543F30E509541FFEE493A360010ECF54C025E060A840B8E493A3FAE493A3F8E493A3C8C582C8CAC583CAF0A3C8C582C8CAC583CABE
:40150000DFE9DEE780BE7B007A4079807D337C001220279040827418F09043007402F09040007408F09042007403F07B0C7A017908121CF39046A1EFF07B007A4279227D68
:40154000087C001220277B007A4279207D517C12122027E4900004F07F19FEFDFC90000012085E900000120836D3EF9400EE9400403B900004E0FF64036032904225E05440
:4015800001FEEF25E04E5403900004F0E47FE07E01FDFC121D0090000012083674FFFBFAF9F812067290000012085E80B6900000120836EF4E70057F0312207F7B007A402A
:4015C00079047D007C011220279040047407F0904006E4F09040087448F0904004E4F09040017402F09043A2E04401F0228B458A46894774011205C8AB452547F9E43546AB
:40160000FAEF1205C8E549AB45E5472402F9E43546FAE5491205C8E548FFAB45E5472403F9E43546FAEF1205C8AB45AA46A947E5492404FDE43548FC121C668E4A8F4BEFCF
:40164000AB45E5492404FDE43548FCE5472DF9E5463CFAEF1205C8E54AFFAB45E5492405FDE43548FCE5472DF9E5463CFAEF1205C8AB45E5492406FFE43548FEE5472FF9FF
:40168000E5463EFA74171205C8E5492407FDE43548FC755100755200755348755496AB45AA46A947121BD122C0E0C083C082C085C084C086758600C093759300C0D075D09F
:4016C00000C001C002C003C006C007E4FBA2AF33FAD2AF9044F474FDF090646CE0FFFE541EF960069002FDE049F0EF30E54590644AE0FE9002F9E02478F582E43402F583E5
:40170000EEF07B01EB602C900276E060069002FC7401F09002F9E004F0E0C394404002E4F0900277E0FE9002F9E0B506069002767401F0EF20E5A2AF02EA24FF92AFD007BF
:40174000D006D003D002D001D0D0D093D086D084D085D082D083D0E032752106E4FF120D84EF7002F521E4F54BF54AF549F548900357E0FEA3E0F5828E831208428F4F8E82
:401780004E8D4D8C4CE4FFFE7D10FC12192C900355E0FCA3E0F5828C83E493FEC3EF9EFFF404FFB50612900357E0FEA3E0F5828E83120842EF4E70057F00121FB79046FAFB
:4017C000E054C064406004E52160099046FAE4F0FF12001A12205D22C0E0C083C082C085C084C086758600C093759300C0D075D000C006C007A2AFE433FFD2AF9044F4742E
:40180000FDF09002FAE0FE9002B8E06E602C90646EE020E2259002B8E0C394404002E4F09002B8E024B9F582E43402F583E090644DF09002B8E004F080C8EF24FF92AFD043
:4018400007D006D0D0D093D086D084D085D082D083D0E032A9079002FAE0FF9002B8E0FEEFC39E501AEE24FFFDE434FFFCEF7A00B50508EAB504047D0180027D00800CC346
:40188000EF9EB43F047D0180027D00ED70C8EEB5070D90646EE020E20690644DE9F022EFC394404002E4FF74B92FF582E43402F583E9F00F9002FAEFF090646EE030E10609
:4018C0009044D07402F02290FFFC1208AE12085E850883850982120836D3EF9400EE9480402E90034C120836121D00850883850982C083C082120836E42FFFEE3480FEEDC9
:4019000034FFFDEC34FFFCD082D08312085E80C090034212083685088385098212085212068D121D009000041208AE228F478E468D458C44E4F550D3E54F9400E54E940025
:40194000404BAF4FAE4EAD4DAC4C74FFFBFAF9F81206728F4F8E4E8D4D8C4CE547254BFFE546354AFEE5453549FDE5443548FCEF254FFFEE354EFEED354DFDEC354CA907BD
:40198000AA06AB051205AF2550F55080AAAF5022121FE190025E74FFF0121EFEEF703B7F01121E35EF6407702C7B017A0379537D021219E6EFB40215E490025EF090472228
:4019C000E0540270107F01FE121E6480F0904722E0540260D4122051800690025E7404F090025EE0FF2290025F120873900262EDF0E4A3F0900262E0FFA3E0C39F50379065
:401A00004722E054016003D38001C340097F017E00121E6480E9904720E0FF90025F12086A900263E029F9E43AFAEF1205C8900263E004F080BE900263E0FF2290025EEC49
:401A4000F0A3EDF090025DEFF0541F25E0FFE433FEE42FFFEE3444FAA9077B0112201A900260EEF0A3EFF090025DE075F002A42400FFE5F03444FAA9077B01A3E0FEA3E0EC
:401A8000FFFDAC06122029900260E0FEA3E0FF22900267ECF0A3EDF0AC077D07904722E05402603B90472074B6F074D8F07405F0904722E054027023904720ECF09002670F
:401AC000E0904720F0900267E0A3E0904720F0EBF090026AE0904720F080067D0980027D04AF0522121FE1121EFEEF703B121F3A90025EEFF06407702A904722E0540270A1
:401B0000087F01FE121E6480F0904722E054026009E0FF1313543FFF80027FFFEF700490025EF0122051800690025E7404F090025EE0FF229044C87401F09002F9E0FE905D
:401B40000277E0B5060E900276E060047F40802CE4FF80289002F9E0FE900277E0C39E500BE0FE9002F9E0C39EFF8010900277E0FEC374409EFE9002F9E02EFF9044C07420
:401B800001F022420355251A420357251B430350000000440347016E360044034200005DC04103461844034C2EE000004102FB004102B8004102FA004102FD00410277003B
:401BC0004102F900410276004102FC0041035B00008B4C8A4D894E8C4F8D50E4F555F556121E07C3E5569550E555954F501DAB4CE54E2556F9E54D3555FA1205AFFF121874
:401C0000540556E5567002055580D8AB51AA52A953E54F8550F01206537F00229044C87401F0900277E0FE9002F9E0FD900276E07004EE6D602474782EF582E43402F583EF
:401C4000E0FF0EEEC394404002E4FE900277EEF0900276E06009E4F0800590644AE0FF9044C07401F0228B4C8A4D894EE4F54FF550D3ED9400EC94004025AB4CED24FFFFD4
:401C8000EC34FFFEE54E2FF9E54D3EFA1205AF2550F550E4354FF54FED1D70011C80D2E550F4FFE54FF4FEEF2401FFE43EFE227C167DA8E4FF121A3C7D07E4FF121F55E4B7
:401CC0009002FDF090648A7469F090648C7420F07C177DD87F01121A3C7D077F01121F5590642E7406F090643E7447F090648E7402F0228B938A838982E0759300FF22000A
:401D0000EC4D4E700D78FCEF24E950032840FD2200007BF178DA0000EF28FF78FFEE38FEED38FDEC38FC50E7EF2BFFEE38FEED38FDEC38FC40F22205020304121FCC9002FD
:401D40005DEFF090649AE04420F090649CE04410F09044C07401F090649EE04410F09044D87402F09044C0F012203690025DE0FF121F9F22758600EF4E6027EF60010E75B2
:401D80009300900005E0F595A3E0F585A3E0F5848B938A838982E0A30586F0A31586DFF6DEF4E4F593F59522121FCC9043A0E04408F09043B0E04408F090470174C8F090A8
:401DC00043ACE04410F09043BCE04410F0904700E0542060F8121F9F22ACEAADA08E838F82E493F9601CA3E493F5EAA3E493F5A0A3E49360F1FAA3E493F8A3E493F2DAF6BC
:401E0000D9E48DA08CEA22121FCC90649AE04401F0E054FEF0121F9F9044C87401F0E4900277F09002F9F0900276F09002FCF09044C004F0227E07904722E05402601F9052
:401E4000472074B6F074E1F0740EF0904722E054027007904720EFF080067E0980027E04AF062200EEFA900346E0F88FF0A4FFAEF0E88AF0A42EFEE5F03400FDEF24C9FF5A
:401E800078FFEE38FEED38FDE438FC5003021D0022121FCC90649DE04401F0E054FEF0121F9F9044C87402F0E49002B8F09002FAF09044C07402F022758600EF4E601BEFCA
:401EC00060010E8C838D828B958A858984E493A30586F0A31586DFF5DEF3E4F595229046FAE054C064807015F0FD7F02120A3DEF4E600AE4FD7F02120A3D122009229002CC
:401F0000667404F0121FCC90035BE0700704F0E4900266F0121F9F900266E0FF227B0C7A0179CF121CF3EF540790586EF0EFC4540FA3F09058767444F0227F07904722E0DD
:401F40005402600E90472074B6F074E0F0740DF080027F0422AC07ED540775F020A4FFEC541F2480F582E43444F583EFF022EC4D6011ED60010C8B938A838982E4F0A3DDB0
:401F8000FCDCFA75930022121AE490025DEFF0700812199090025DEFF090025DE0FF22EF54016004D2AF8002C2AFEF5402FF9044F4E054FD4FF02290FFFF1208AEEFF090D7
:401FC00046EA7401F09000011208AE229044F4E0F84402F0E85402FF10AF012274014FFF22121FCC9043A0E04408F09043B0E04408F0121F9F229002FBE07009121CAF9087
:4020000002FB7401F0121D3B2290034BE0FA8E838F827400758101738B938A838982E0FFA3E0FE759300228B938A838982EDF0A3ECF0759300229043A2E04401F09043B26F
:40204000E04401F0228B938A838982EDF075930022121FCCE490035BF0121F9F229046FA7480F012207122121FF6121E07121E91229046F6E04401F02212175980FE2280DC
:40208000FE22007F7B007B00000030D8C800D800000016005205082309121098118814200064047E3F8A698C3A8E0F010101E204010301E6020105028702E008010604B82E
:4020C00002BE01D804DF010107021B02A702010A088501890195019901B101BF01D904DF01010B4F00400106038808010A040B111028130219641A041B0A202021082230E9
:40210000274028282A022B022E033080310232103304340836203708382239803A083C283E084028410843824A024B0152045B4068286A016B027090712072108D408E104D
:402140008F809042910493109621980199029B0C9D649E049F80A004A102A202A490A520A702AB01B021B405B602B744C00FC20FC40ECA0FCC6FCE6FD00FD208D608E0083A
:40218000E801010C4C0001021608E70A180E3F101E120114C6163918481C88208824DD262228232ADC2CC8301F320834E03A22541A560458045B045F018008824284F88698
:4021C000018704880F89028AF08D068EC792849308943996C698109C20A020A101A43FA6C0A906AA08AC30B031B106B308B501B6FFB702B982BE40BF11C062C101C5E0C6DA
:40220000CBC80EC9FFCAFFCBFFCEF0CF44D00CD804D904DA04DF01E6C0EA40EB02010D46002901100210030B04010709080209260A310D220E11108012481388151016502C
:402240001780180219021C081D021E201F20200421012208230128402920320238C839A43A083B10414042084921502053405E205F026540674887409088912093089502C2
:40228000978098409B4A9C029D259E049F04A420A504A72AB001B301C0DFC2FFC4FFCA05CC01CE0ED00CD204D6A0D8B0010E4E040906D007230B080C0C0D210E710F0E1048
:4022C00014141016AC170C18DC1A221B201E0321102410264029212A202B062D0C2F2330E03310350F361F37203A023B203F444004464049FF4A074BFF4C404D204EF04F8A
:4023000005500854015604580459045A045B045F01604061A862406320871F89198B0691019304950997029A01A506A719A919AA01AB06AF0FB201B310B507B708B908BB65
:4023400020BE04D804D904DB04DF01010F3C004404040504084809200A010B800E0810081210160418C01A011F042130224425102604270A280829212A802F2A303031047A
:402380003402370438883A103D284101500C5210581059015A886380680169046A206B406F0171407304821083408550868089048B04C005C24FC446CA7DCCC6CE6ED00101
:4023C000D60FD801E40C014005322035808180CC30E2200141038620A620E6400144058301870188C0E004E40401450F0C0857025B046401660193029889A040A301B009C2
:40240000C204D607D801E801EC0401460D8702900893029888A040A301A702AB04B40CB601E808EC02EE08014705900893029888A040A301014C0E5004544057015808607D
:40244000806702900893029888A040A301D406D607D80201500300010C010E01015101000F005100001000513000400051C000100051F000100100000A00010A800580018E
:40248000140008000140000A00014C000200015000002000008080207D050000040800130C0400030204200A031410130C0C7300088000400800004043003C404F003000DE
:4024C0000000734000303F0FC0800008002028000040003402010005C0000E12FFFFFF62A0F0410C00000000000210040404040000000100000000000040020010301000CE
:4025000010101200000000000000000000000000000000010A002493008061000026006930091E031E010100000000000000000000000000000000000000000000000000BD
:40254000000000000000000000000000000000000000000000000000000000000000000000000000000000000000000000000000000000000000000000000000000000005B
:40258000000000000000000000000000000000000000000000000000000000000000000000000000000000000000000000000000000000000000000000000000000000001B
:4025C00000000000000000000000000000000000000000000000000000000000000000000000000000000000000000000000000000000000000000000000000000000000DB
:4026000002778E008F828E83E0540100000070F82278FFE4F6D8FD02781C900003EEF0A3EFF078057C007D017BFF7A4D794C7E057F4712495890054C7405F0A37447F0787A
:40264000537C057D017BFF7A5279937E007F0F12495878627C057D017BFF7A5279A27E007F1C124958787E7C057D017BFF7A5279BE7E007F1C124958789A7C057D017BFF28
:402680007A5279DA7E007F1112495878AB7C057D017BFF7A5279EB7E007F1912495878C47C057D017BFF7A5379047E007F1112495878D57C057D017BFF7A5379157E007FC7
:4026C0001C12495878F17C057D017BFF7A5379317E007F1C124958780D7C067D017BFF7A53794D7E007F1A12495878277C067D017BFF7A5379677E007F14124958783B7CD1
:40270000067D017BFF7A53797B7E007F1C12495878577C067D017BFF7A5379977E007F2112495878787C067D017BFF7A5379B87E007F16124958788E7C067D017BFF7A539C
:4027400079CE7E007F1612495878A47C067D017BFF7A5379E47E007F2A1249587B017A0579531295AA8F3D7B017A0579621295AA8F3E7B017A05799A1295AA8F3F7B017AB7
:402780000579AB1295AA8F407B017A0579C41295AA8F417B017A0579F11295AA8F427B017A0679271295AA8F437B017A06798E1295AA8F447B017A0679A41295AA8F45903C
:4027C0000005740CF0A37412F0900003E0FEA3E0FFEE6003023475EFB40F0040030234759027E7F828287302281402300002300902306D0230760230AF02315A0231C1020D
:4028000031CA0232EF0233750233850234280234510234669000077402F0A314F09006D8E0900009F0753B00853D3CE53C453B602CC3E53D953CFFE4953BFE74532FF5826B
:4028400074053EF583E0FD740A2FF58274003EF583EDF0E53C153C7002153B80CE9000397407F0A37403F09006D9E0FCA3E0FDA3E0FEA3E0FFEC12433EE4FBFA7980784783
:4028800012422890003B1247F99006DDE0FCA3E0FDA3E0FEA3E0FFEC12433EE4FBFA7980784712422890003F1247F99006E1E0FCA3E0FDA3E0FEA3E0FFEC12433EE4FBFAD2
:4028C000798078471242289000431247F9753B00853E3CE53C453B602CC3E53E953CFFE4953BFE74622FF58274053EF583E0FD74472FF58274003EF583EDF0E53C153C7069
:4029000002153B80CEE490006BF0A304F09006E7E090006DF0601F9006D174FFF0A3744AF0A374CBF07B017A05797E1287A490054E741CF0801D9006D174FFF0A3744AF091
:40294000A374D1F07B017A05797E1287A490054E741BF090054EE0753B00F53CE53C453B602E90054EE0C3953CFFE4953BFE747E2FF58274053EF583E0FD746E2FF5827473
:40298000003EF583EDF0E53C153C7002153B80CC90054EE0246EF582E43400F5837403F090009D14F0A304F0E4F53BF53CC3E53C9402E53B9400502674E8253CF5827406E2
:4029C000353BF583E0FF749F253CF5827400353BF583EFF0053CE53C7002053B80CF753B00853F3CE53C453B602CC3E53F953CFFE4953BFE749A2FF58274053EF583E0FD81
:402A000074A22FF58274003EF583EDF0E53C153C7002153B80CE9000CF7403F0A3F0E4F53BF53CC3E53C9402E53B94005059E53CAE3B7802C333CE33CED8F924EAF58274C9
:402A4000063EF583E0FCA3E0FDA3E0FEA3E0FF74E8253CF5827406353BF583E0F9F8124798AD07AC06E53C25E0FFE53B33FE74D12FF58274003EF583ECF0A3EDF0053CE570
:402A80003C7002053B809C753B0085403CE53C453B602CC3E540953CFFE4953BFE74AB2FF58274053EF583E0FD74D72FF58274003EF583EDF0E53C153C7002153B80CE90E9
:402AC00001017407F0A37403F0E4F53BF53CC3E53C9402E53B94005054E53CAE3B7802C333CE33CED8F924F2F58274063EF583E0FCA3E0FDA3E0FEA3E0FFC004C005C006C3
:402B0000C007E53CAE3B7802C333CE33CED8F92403F58274013EF583D007D006D005D0041247F9053CE53C7002053B80A1E4F53BF53C7B017A0579C41295AAC3E53C9FE5D8
:402B40003B9E502674C4253CF5827405353BF583E0FF740F253CF5827401353BF583EFF0053CE53C7002053B80C8E4900133F0A304F09006FAE0900135F0601F9006D17414
:402B8000FFF0A3744AF0A374CBF07B017A0579D51287A490054E741CF0801D9006D174FFF0A3744AF0A374D1F07B017A0579D51287A490054E741BF090054EE0753B00F53A
:402BC0003CE53C453B602E90054EE0C3953CFFE4953BFE74D52FF58274053EF583E0FD74362FF58274013EF583EDF0E53C153C7002153B80CC90054EE02436F582E43401E2
:402C0000F5837403F09001657405F0A314F0E4F53BF53CC3E53C9402E53B94004003022CE4E53CAE3B7802C333CE33CED8F924FBF58274063EF583E0FCA3E0FDA3E0FEA387
:402C4000E0FF74E8253CF5827406353BF583E0F9F8124798C004C005C006C007E53CAE3B7803C333CE33CED8F92467F58274013EF583D007D006D005D0041247F9E53CAE48
:402C80003B7802C333CE33CED8F92403F58274073EF583E0FCA3E0FDA3E0FEA3E0FF74E8253CF5827406353BF583E0F9F8124798C004C005C006C007E53CAE3B7803C333B2
:402CC000CE33CED8F9246BF58274013EF583D007D006D005D0041247F9053CE53C7002053B022C13753B0085423CE53C453B602CC3E542953CFFE4953BFE74F12FF582743B
:402D0000053EF583E0FD74772FF58274013EF583EDF0E53C153C7002153B80CE9001977405F0A37402F090070FE0FCA3E0FDA3E0FEA3E0FF9001991247F9900713E0FCA39C
:402D4000E0FDA3E0FEA3E0FF90019D1247F9E4F53BF53C7B017A06790D1295AAC3E53C9FE53B9E5026740D253CF5827406353BF583E0FF74A1253CF5827401353BF583EF51
:402D8000F0053CE53C7002053B80C89001C97403F0A37401F09006E5E0FFA3E09001CBCFF0A3EFF0753B0085433CE53C453B602CC3E543953CFFE4953BFE74272FF5827481
:402DC000063EF583E0FD74CD2FF58274013EF583EDF0E53C153C7002153B80CEE49001FBF0A304F0900727E09001FDF0601F9006D174FFF0A3744AF0A374CBF07B017A064E
:402E0000793B1287A490054E741CF0801D9006D174FFF0A3744AF0A374D1F07B017A06793B1287A490054E741BF090054EE0753B00F53CE53C453B602E90054EE0C3953C35
:402E4000FFE4953BFE743B2FF58274063EF583E0FD74FE2FF58274013EF583EDF0E53C153C7002153B80CC90054EE024FEF582E43401F5837403F090022D7405F0A374020A
:402E8000F090071BE0FCA3E0FDA3E0FEA3E0FF90022F1247F990071FE0FCA3E0FDA3E0FEA3E0FF9002331247F9E4F53BF53C7B017A06790D1295AAC3E53C9FE53B9E502603
:402EC0007457253CF5827406353BF583E0FF7437253CF5827402353BF583EFF0053CE53C7002053B80C890025F7405F0A37401F090072CE0FCA3E0FDA3E0FEA3E0FF9002BC
:402F0000611247F9E4F53BF53C7B017A06790D1295AAC3E53C9FE53B9E50267478253CF5827406353BF583E0FF7465253CF5827402353BF583EFF0053CE53C7002053B8088
:402F4000C89002917404F0A37401F0900730E0FFA3E0900293CFF0A3EFF0753B0085443CE53C453B602CC3E544953CFFE4953BFE748E2FF58274063EF583E0FD74952FF535
:402F80008274023EF583EDF0E53C153C7002153B80CE753B0085453CE53C453B602CC3E545953CFFE4953BFE74A42FF58274063EF583E0FD74C32FF58274023EF583EDF001
:402FC000E53C153C7002153B80CE7B017A00790590054CE0A3E014FD1290E290054CE0FCA3E0FD2404F58274003CF583EFF07B017A007905E49006D3F012801612967E227E
:403000009007D1E090073CF022E4FFFE7D807C479007D1E0F8A3E0F9A3E0FAA3E0FB12411F12437C90073D1247F9E4FFFE7D807C479007D5E0F8A3E0F9A3E0FAA3E0FB1234
:40304000411F12437C9007411247F9E4FFFE7D807C479007D9E0F8A3E0F9A3E0FAA3E0FB12411F12437C9007451247F9229007D1E090074BF022E4F53BF53CC3E53C940207
:40308000E53B9400400302347574D1253CF5827407353BF583E0FF744C253CF5827407353BF583EFF0053CE53C7002053B80CCE4F53BF53CC3E53C9402E53B94004003021D
:4030C0003157E53C25E0FFE53B33FE74D12FF58274073EF583E0FEA3E0FFEE3395E0FDFCC004C005C006C007E53CAE3B7802C333CE33CED8F9FBAA06244EF58274073AF559
:4031000083D007D006D005D0041247F9744E2BF58274073AF583C083C082E0FCA3E0FDA3E0FEA3E0FF744C253CF5827407353BF583E0F9F81247ACD082D0831247F974763D
:40314000253CF5827408353BF583E4F0053CE53C7002053B0230B4D20B22E4F53BF53CC3E53C9402E53B94004003023475E53CAE3B7802C333CE33CED8F924D1F5827407E4
:403180003EF583E0FCA3E0FDA3E0FEA3E0FFC004C005C006C007E53CAE3B7802C333CE33CED8F92456F58274073EF583D007D006D005D0041247F9053CE53C7002053B806C
:4031C0009E9007D1E090075EF022E4F53BF53CC3E53C9402E53B94004003023475E53CAE3B7803C333CE33CED8F924D1F58274073EF583E0FCA3E0FDA3E0FEA3E0FFC004A6
:40320000C005C006C007E53CAE3B7802C333CE33CED8F9245FF58274073EF583D007D006D005D0041247F9E53CAE3B7803C333CE33CED8F924D5F58274073EF583E0FCA314
:40324000E0FDA3E0FEA3E0FFC004C005C006C007E53CAE3B7802C333CE33CED8F9FBAA062467F58274073AF583D007D006D005D0041247F9745F2BF58274073AF583C083D7
:40328000C082E0FCA3E0FDA3E0FEA3E0FF744C253CF5827407353BF583E0F9F81247ACD082D0831247F9E53CAE3B7802C333CE33CED8F92467F58274073EF583C083C082D3
:4032C000E0FCA3E0FDA3E0FEA3E0FF744C253CF5827407353BF583E0F9F81247ACD082D0831247F9053CE53C7002053B0231CF9007D1E0FCA3E0FDA3E0FEA3E0FF90054FE6
:403300001247F9E4FFFEFDFC90054FE0F8A3E0F9A3E0FAA3E0FBD312475E501490054FE0FCA3E0FDA3E0FEA3E0FF9007731247F99007D5E0FCA3E0FDA3E0FEA3E0FF900541
:403340004F1247F9E4FFFEFDFC90054FE0F8A3E0F9A3E0FAA3E0FBC312475E500302347590054FE0FCA3E0FDA3E0FEA3E0FF9007771247F9229007D1E0FFA3E0900749CFE9
:40338000F0A3EFF0229007D1E090078BF0604F90073A7403F0FF12991E9006E8E0FF741C7EF7A807088005C333CE33CED8F9FFEE3395E0FDFC9007321247F99006E9E0FF35
:4033C00074E47E08A807088005C333CE33CED8F9FFEE3395E0FDFC9007361247F9229006E8E0FFE4FEA807088005C333CE33CED8F9FFEE3395E0FDFC9007321247F99006FE
:40340000E9E0FFE4FEA807088005C333CE33CED8F9FFEE3395E0FDFC9007361247F9E490073AF0FF12991E229007D1E0FCA3E0FDA3E0FEA3E0FF90077F1247F99007D5E059
:40344000FCA3E0FDA3E0FEA3E0FF9007831247F9229007D1E0FCA3E0FDA3E0FEA3E0FF9007901247F9229007D1E0FFA3E0900794CFF0A3EFF02290044FEBF0A3EAF0A3E9BE
:40348000F090044FE0FBA3E0FAA3E0F8AC02AD037BFF7A4A79D6124A369006D174FFF0A3744AF0A374D7F090044FE0FBA3E0FAA3E0F91287A49006D174FFF0A3744AF0A33E
:4034C00074DAF090044FE0FBA3E0FAA3E0F91287A49006D174FFF0A3744AF0A374EDF090044FE0FBA3E0FAA3E0F91287A49006D174FFF0A3744AF0A374FDF090044FE0FBBA
:40350000A3E0FAA3E0F91287A49006D174FFF0A3744BF0A37403F090044FE0FBA3E0FAA3E0F91287A490048774FFF0A3744BF0A37411F09006D8E0FF90048AE4F0A3EFF092
:403540007B017A0479521254739006D17401F0A37404F0A37452F090044FE0FBA3E0FAA3E0F91287A490048774FFF0A3744BF0A3741AF0A3E4F0A37402F07B017A04795253
:403580001254739006D17401F0A37404F0A37452F090044FE0FBA3E0FAA3E0F91287A490048774FFF0A3744BF0A37432F0900730E0FFA3E090048ACFF0A3EFF07B017A0483
:4035C00079521254739006D17401F0A37404F0A37452F090044FE0FBA3E0FAA3E0F91287A490048774FFF0A3744BF0A37447F090088AE0FF90048AE4F0A3EFF07B017A0476
:4036000079521254739006D17401F0A37404F0A37452F090044FE0FBA3E0FAA3E0F91287A49006D174FFF0A3744AF0A374D7F090044FE0FBA3E0FAA3E0F91287A49006D16E
:4036400074FFF0A3744BF0A37457F090044FE0FBA3E0FAA3E0F91287A49006D174FFF0A3744BF0A37464F090044FE0FBA3E0FAA3E0F91287A4E4F53BF53CC3E53C9402E524
:403680003B64809480507990048774FFF0A3744BF0A37477F0E53CAE3B7802C333CE33CED8F924C5F58274073EF583E0FCA3E0FDA3E0FEA3E0FF74E8253CF5827406353B98
:4036C000F583E0F9F812479890048AEEF0A3EFF07B017A0479521254739006D17401F0A37404F0A37452F090044FE0FBA3E0FAA3E0F91287A4053CE53C7002053B02367A8A
:403700009006D174FFF0A3744AF0A374D7F090044FE0FBA3E0FAA3E0F91287A490048774FFF0A3744BF0A3747BF07B017A0479521254739007CDE0540360199006D174FFBE
:40374000F0A3744BF0A3748BF07B017A0479521287A480179006D174FFF0A3744BF0A37491F07B017A0479521287A49006D17401F0A37404F0A37452F090044FE0FBA3E0B5
:40378000FAA3E0F91287A49006D174FFF0A3744BF0A37496F090044FE0FBA3E0FAA3E0F91287A49006D174FFF0A3744BF0A374ACF090044FE0FBA3E0FAA3E0F91287A4E402
:4037C000F53BF53CC3E53C9402E53B64809480400302387890048774FFF0A3744BF0A374BCF0E53C240190048BF0E4353B90048AF0E53CAE3B7802C333CE33CED8F9249BBE
:40380000F58274073EF583E0FCA3E0FDA3E0FEA3E0FF74E8253CF5827406353BF583E0F9F812479890048CEEF0A3EFF07B017A0479521254739006D17401F0A37404F0A391
:403840007452F090044FE0FBA3E0FAA3E0F91287A49006D174FFF0A3744AF0A374D7F090044FE0FBA3E0FAA3E0F91287A4053CE53C7002053B0237C490048774FFF0A3740B
:403880004BF0A374C5F09007C1E0FCA3E0FDA3E0FEA3E0FF90048A1247F97B017A0479521254739006D17401F0A37404F0A37452F090044FE0FBA3E0FAA3E0F91287A49088
:4038C00006D174FFF0A3744AF0A374D7F090044FE0FBA3E0FAA3E0F91287A490048774FFF0A3744BF0A374D7F09007A3E0FEA3E0FFEE3395E0FDFC90048A1247F97B017A2E
:403900000479521254739006D17401F0A37404F0A37452F090044FE0FBA3E0FAA3E0F91287A49006D174FFF0A3744AF0A374D7F090044FE0FBA3E0FAA3E0F91287A490043A
:403940008774FFF0A3744BF0A374EBF09007A5E0FEA3E0FFEE3395E0FDFC90048A1247F97B017A0479521254739006D17401F0A37404F0A37452F090044FE0FBA3E0FAA3D2
:40398000E0F91287A49006D174FFF0A3744AF0A374D7F090044FE0FBA3E0FAA3E0F91287A49006D174FFF0A3744BF0A374FFF090044FE0FBA3E0FAA3E0F91287A49006D187
:4039C00074FFF0A3744CF0A37415F090044FE0FBA3E0FAA3E0F91287A490048774FFF0A3744CF0A37427F09006D9E0FCA3E0FDA3E0FEA3E0FFEC12433EE4FBFA7980784724
:403A000012422890048A1247F97B017A0479521254739006D17401F0A37404F0A37452F090044FE0FBA3E0FAA3E0F91287A490048774FFF0A3744CF0A37431F09006DDE07C
:403A4000FCA3E0FDA3E0FEA3E0FFEC12433EE4FBFA7980784712422890048A1247F97B017A0479521254739006D17401F0A37404F0A37452F090044FE0FBA3E0FAA3E0F946
:403A80001287A490048774FFF0A3744CF0A3743BF09006E1E0FCA3E0FDA3E0FEA3E0FFEC12433EE4FBFA7980784712422890048A1247F97B017A0479521254739006D1746B
:403AC00001F0A37404F0A37452F090044FE0FBA3E0FAA3E0F91287A49006D174FFF0A3744AF0A374D7F090044FE0FBA3E0FAA3E0F91287A49006E7E0B4031E9006D174FF84
:403B0000F0A3744CF0A37445F090044FE0FBA3E0FAA3E0F91287A4801C9006D174FFF0A3744CF0A3745FF090044FE0FBA3E0FAA3E0F91287A49006D174FFF0A3744CF0A32F
:403B40007478F090044FE0FBA3E0FAA3E0F91287A4E4F53BF53CC3E53C9402E53B64809480507F90048774FFF0A3744BF0A374BCF0E53C240190048BF0E4353B90048AF085
:403B800074E8253CF5827406353BF583E0FF90048CE4F0A3EFF07B017A0479521254739006D17401F0A37404F0A37452F090044FE0FBA3E0FAA3E0F91287A49006D174FF7E
:403BC000F0A3744AF0A374D7F090044FE0FBA3E0FAA3E0F91287A4053CE53C7002053B023B569006D174FFF0A3744CF0A3748DF090044FE0FBA3E0FAA3E0F91287A4E4F58D
:403C00003BF53CC3E53C9402E53B648094804003023CB590048774FFF0A3744CF0A374A3F0E53C240190048BF0E4353B90048AF0E53CAE3B7802C333CE33CED8F924EAF501
:403C40008274063EF583E0FCA3E0FDA3E0FEA3E0FF74E8253CF5827406353BF583E0F9F812479890048C1247F97B017A0479521254739006D17401F0A37404F0A37452F09B
:403C800090044FE0FBA3E0FAA3E0F91287A49006D174FFF0A3744AF0A374D7F090044FE0FBA3E0FAA3E0F91287A4053CE53C7002053B023C039006D174FFF0A3744CF0A30E
:403CC00074ADF090044FE0FBA3E0FAA3E0F91287A4E4F53BF53CC3E53C9402E53B648094804003023D7690048774FFF0A3744CF0A374C7F0E53C240190048BF0E4353B9018
:403D0000048AF0E53CAE3B7802C333CE33CED8F924F2F58274063EF583E0FCA3E0FDA3E0FEA3E0FF90048C1247F97B017A0479521254739006D17401F0A37404F0A374527F
:403D4000F090044FE0FBA3E0FAA3E0F91287A49006D174FFF0A3744AF0A374D7F090044FE0FBA3E0FAA3E0F91287A4053CE53C7002053B023CD690048774FFF0A3744CF079
:403D8000A374D0F090075EE0FF90048AE4F0A3EFF07B017A0479521254739006D17401F0A37404F0A37452F090044FE0FBA3E0FAA3E0F91287A49006D174FFF0A3744AF007
:403DC000A374D7F090044FE0FBA3E0FAA3E0F91287A4E4F53BF53CC3E53C9402E53B648094804003023ED990048774FFF0A3744CF0A374EAF0E53C240190048BF0E4353B53
:403E000090048AF0E53CAE3B7802C333CE33CED8F9245FF58274073EF583E0FCA3E0FDA3E0FEA3E0FF744C253CF5827407353BF583E0F9F812479890048C1247F97B017AAB
:403E40000479521254739006D17401F0A37404F0A37452F090044FE0FBA3E0FAA3E0F91287A490048774FFF0A3744DF0A37410F0E53CAE3B7802C333CE33CED8F92467F5F3
:403E80008274073EF583E0FCA3E0FDA3E0FEA3E0FF744C253CF5827407353BF583E0F9F812479890048A1247F97B017A0479521254739006D17401F0A37404F0A37452F0F5
:403EC00090044FE0FBA3E0FAA3E0F91287A4053CE53C7002053B023DD790048774FFF0A3744DF0A3741DF090076FE0FEA3E0FF90074CE0FDEFA805088006CEA2E713CE1313
:403F0000D8F8FF90048AEEF0A3EFF07B017A0479521254739006D17401F0A37404F0A37452F090044FE0FBA3E0FAA3E0F91287A49006D174FFF0A3744AF0A374D7F09004E5
:403F40004FE0FBA3E0FAA3E0F91287A490048774FFF0A3744DF0A3742FF0900749E0FFA3E090048ACFF0A3EFF07B017A0479521254739006D17401F0A37404F0A37452F06A
:403F800090044FE0FBA3E0FAA3E0F91287A49006D174FFF0A3744AF0A374D7F090044FE0FBA3E0FAA3E0F91287A490048774FFF0A3744DF0A37441F09007BDE0F8A3E0F95E
:403FC000A3E0FAA3E0FB90085CE0FCA3E0FDA3E0FEA3E0C39BFFEE9AFEED99FDEC98FC90048A1247F97B017A0479521254739006D17401F0A37404F0A37452F090044FE08B
:40400000FBA3E0FAA3E0F91287A49006D174FFF0A3744AF0A374D7F090044FE0FBA3E0FAA3E0F91287A4220243E8E86480F8E933E83360110460F0ED33EC337009E8FCE9CE
:40404000FDEAFEEBFF220460DED3EB9FEA9EE99DE8C2E78CF0C2F795F0400CE8CCF8E9CDF9EACEFAEBCFFB1243B385D0F05804700320D5B3E80470075002B2D50243F29280
:40408000D5EC0460F7E4CCC0E0C398F8603B94186008400DD0E0FB0243CAE4FBFAC9FC8028E830E406E4C9FBE4CAFCE830E305E4C9CACBFCE854076010F8C3E913F9EA1353
:4040C000FAEB13FBEC13FCD8F130F52FC3E49CFCEF9BFFEE9AFEED99FDD0E0FBEF4E4D4C701222DB030243EFEC2CFCEF33FFEE33FEED33FDED30E7EB0243CAEF2BFFEE3AFD
:40410000FEED39FDD0E0FB50130BBB00030243F2ED13FDEE13FEEF13FFEC13FC0243CAEC4D6011E8497017ED33EC3304600DE4FCFFFEFD22E933E8330470F80243E8124316
:40414000B358046009E4CC248150062850090243F22840030243EFC0E0EB4A7044B98006D0E0FB0243DEEF4E701CBD8008EBFFEAFEE9FD80EBE98DF0A4FEE5F0024208E9EC
:40418000CDF9EAFEEBFFEF89F0A4FCE5F0CE89F0A42EFFE435F0CD89F0A42DFEE435F08067EF4E7005BD80D780C3EF8BF0A4ACF0EE8BF0A42CFCE435F0F8EF8AF0A42CE55D
:4041C000F038FCE433CB8DF0A42CFCE5F03BF8EE8AF0A42CFCE5F038F8E433CF89F0A42CFCE5F038CF3400CE89F0A42FFFE5F03EFEE433C98DF0A42EFEE5F039CD8AF0A4A4
:404200002FFFE5F03EFEE43DFD33D0E0FB50070BBB000F0243F2EC2CFCEF33FFEE33FEED33FD0243CA0243F2EC5D046005E8590470030243E81243B3580460F6EC4860F252
:40424000EC7004FDFEFF22C860DB2481C85009C398600250060243EF9850CAF582E9294B4A7005AB820243DE75F0007C1A7880C3EF9BEE9AED99400DC3EF9BFFEE9AFEEDC3
:4042800099FDE842F0DC23ACF0D0E0FFD0E0FED0E0FDAB8220E7101BEB60BAEC2CFCEF33FFEE33FEED33FD0243CAE803F830E705C0F075F000EF2FFFEE33FEED33FD40B860
:4042C00030E7C280AA74F8CC6480CCC86480C8F58204604FC3EB9FF5F0EA9E42F0E99D42F0E89C45F0603C501DE5825FFFE582D313CB5BCBF42B5582FB50280ABA00240972
:40430000B9002008801DE5825BFBE582D313CF5FCFF4C3132F5582FF50090EBE00050DBD00010CC3EB9FF5F0EA9E42F0E99D42F0E89C45F06007CC4820E701B3EC2275F022
:4043400020800E75F010800575F0087D007E007F003392D530D503124750EC334010EF33FFEE33FEED33FDEC33FCD5F0ED22E5F0247EA2D513CC92E7CDCEFF22EDD2E7CD33
:4043800033EC3392D524814006E4FFFEFDFC22FCE4CFCECDCC24E0501174FF80EDC3CC13CCCD13CDCE13CECF13CF0470F030D5DE024750E9D2E7C933E833F892D5EDD2E7E9
:4043C000CD33EC33FC5002B2D522EC30E7100FBF000C0EBE00080DBD00040BEB6014A2D5EB13FCED92E7FD2274FFFCFDFEFF22E480F8A2D574FF13FC7D80E480EFF920E788
:404400003624F950037907E4F42402FBE582158270021583DBF6E024FB501BE96014E4F0E582158270021583E004F0B40A08E4F0D9EE7401F00A22C2D522ED33EC3392D5BC
:40444000FA602AB4FF33EDC2E77BFF60067A44795FE4227A44796820D5047A447963224E614E002B494E46002D494E4600E47A08F0A3DAFC7B00740722C083C082ECC0E065
:40448000EDC0E0EEC0E0EFC0E0EA75F010A4CAABF075F04DA42BFBE435F0FCEA2410FAEB34C5FBEC34D9FCEDC2E7FF75F056A4F42411C5F0F434C58FF0A42AE5F03BE43C41
:4044C000F020E71412456FD0E0FFD0E0FED0E0FDD0E0FC1242288014F40412456FD0E0FFD0E0FED0E0FDD0E0FC12411FD082D083E0FAEDD2E7CD33EC332482FBE4C3CF33B1
:40450000CFCE33CECD33CD33DBF37B0775F00A846004F0A31B0AE5F0F0A38FF0740AA4FFACF08EF0740AA42CFEACF050010C8DF0740AA42CFDE435F0F0A3DBDE7407223F1E
:404540008000004120000042C80000447A0000461C400047C35000497424004B1896804CBEBC205A0E1BCA6753C21C749DC5AEFB60065407601C232312459DEB543860099B
:4045800012458912459812411FECF8EDF9EEFAEFCB22EB12459880F1543803241C90453FFE93FC0EEE93FD0EEE930ECE93FF22BB010689828A83E0225002E722BBFE02E3F1
:4045C0002289828A83E49322BB010CE58229F582E5833AF583E0225006E92582F8E622BBFE06E92582F8E222E58229F582E5833AF583E49322BB010689828A83F0225002D4
:40460000F722BBFE01F322BB010A89828A83F0E5F0A3F0225006F709A7F01922BBFE06F3E5F009F31922E88FF0A4CC8BF0A42CFCE98EF0A42CFC8AF0EDA42CFCEA8EF0A4C4
:40464000CDA8F08BF0A42DCC3825F0FDE98FF0A42CCD35F0FCEB8EF0A4FEA9F0EB8FF0A4CFC5F02ECD39FEE43CFCEAA42DCE35F0FDE43CFC2275F008758200EF2FFFEE333E
:40468000FECD33CDCC33CCC58233C5829BED9AEC99E58298400CF582EE9BFEED9AFDEC99FC0FD5F0D6E4CEFBE4CDFAE4CCF9A88222B800C1B90059BA002DEC8BF084CFCEBD
:4046C000CDFCE5F0CBF97818EF2FFFEE33FEED33FDEC33FCEB33FB10D703994004EB99FB0FD8E5E4F9FA227818EF2FFFEE33FEED33FDEC33FCC933C910D7059BE99A400716
:40470000EC9BFCE99AF90FD8E0E4C9FAE4CCFB2275F010EF2FFFEE33FEED33FDCC33CCC833C810D7079BEC9AE899400AED9BFDEC9AFCE899F80FD5F0DAE4CDFBE4CCFAE4A1
:40474000C8F922CFF4CFCEF4CECDF4CDCCF4CC22C3E49FFFE49EFEE49DFDE49CFC22EB9FF5F0EA9E42F0E99D42F0EC6480C864809845F022EB9FF5F0EA9E42F0E99D42F0EA
:40478000E89C45F022E8600FECC313FCED13FDEE13FEEF13FFD8F122E86010ECA2E713FCED13FDEE13FEEF13FFD8F022E8600FEFC333FFEE33FEED33FDEC33FCD8F122BB26
:4047C000010789828A83024A8B5005E9F8024A7FBBFE05E9F8024A9789828A83024AA3BB010789828A830247F95005E9F8024AB3BBFE05E9F8024ABF22ECF0A3EDF0A3EE2D
:40480000F0A3EFF022F8E0FBA3A3E0F925F0F0E582158270021583E0FA38F022EBF0A3EAF0A3E9F022D083D082F8E4937012740193700DA3A393F8740193F5828883E473FE
:404840007402936860EFA3A3A380DFE50F2582F582E50E3583F583B50E0485820F2210AF0685820FF50E2285820FF50ED2AF22EC8EF0A4CCC5F0CCCDF8EFA4CEC5F02DFDE0
:40488000E43CFCE8A42EC8C5F03DFDE43CFCEFA4FFE5F028FEE43DFDE43CFC22E709F608DFFA8046E709F208DFFA803E88828C83E709F0A3DFFA8032E309F608DFFA806E80
:4048C000E309F208DFFA806688828C83E309F0A3DFFA805A89828A83E0A3F608DFFA804E89828A83E0A3F208DFFA804280D280FA80C680D4805580F28029801080A680EAE2
:40490000809A80A880DA80E280CA802988848C8589828A83E493A30586F0A30586DFF5DEF3800B89828A83E493A3F608DFF9ECFAA9F0EDFB2288848C8589828A83E0A30510
:4049400086F0A30586DFF6DEF480E389828A83E493A3F208DFF980D688F0EF60010E4E60CD88F0ED2402B4040050C3F582EB2402B4040050B923234582239048EC73E709E8
:40498000F60870FA8046E709F20870FA803E88828C83E709F0A370FA8074E309F60870FA806CE309F20870FA806488828C83E309F0A370FA805889828A83E0A3F60870FA6C
:4049C000804C89828A83E0A3F20870FA804080D280FA80C680D4805180F28027801080A680EA809A80A880DA80E280CA802788848C8589828A83E493A30586F0A305867065
:404A0000F5800B89828A83E493A3F60870F9ECFAA9F0EDFB2288848C8589828A83E0A30586F0A3058670F680E589828A83E493A3F20870F980D888F0ED2402B4040050CE5A
:404A4000F582EB2402B4040050C423234582239049CE73C5F0F8A3E028F0C5F0F8E582158270021583E038F022A3F8E0C5F025F0F0E582158270021583E0C838F0E822E674
:404A8000FC08E6FD08E6FE08E6FF22E0FCA3E0FDA3E0FEA3E0FF22E2FC08E2FD08E2FE08E2FF22E493FC740193FD740293FE740393FF22ECF608EDF608EEF608EFF622EC7D
:404AC000F208EDF208EEF208EFF222205945530000204E4F0000000D0A004669726D776172652076657273696F6E3A200043554646204D4F442076362E312E30002E0D0A56
:404B00000D0A0044455649434520494E464F0D0A0049443A2025640D0A004E756D626572206F662073656E736F72733A2025640D0A00537570706C792074656E73696F6E92
:404B40003A2025640D0A0050574D204C696D69743A2025640D0A004D4F544F5220494E464F0D0A004D6F746F72207265666572656E6365733A2000256420004D6F746F72D3
:404B800020656E61626C65643A20005945530D0A004E4F0D0A000D0A4D4541535552454D454E545320494E464F0D0A0053656E736F722076616C75653A0D0A002564202D03
:404BC0003E20256400566F6C7461676520286D56293A20256C640043757272656E74203120286D41293A20256C640043757272656E74203220286D41293A20256C64000D27
:404C00000A44455649434520504152414D45544552530D0A0050494420436F6E74726F6C6C65723A0D0A0050202D3E2025660D0A0049202D3E2025660D0A0044202D3E20FB
:404C400025660D0A00537461727475702061637469766174696F6E3A205945530D0A00537461727475702061637469766174696F6E3A204E4F0D0A0053656E736F7220728C
:404C800065736F6C7574696F6E3A0D0A004D6561737572656D656E74204F66667365743A0D0A002564202D3E20256C64004D6561737572656D656E74204D756C7469706CAD
:404CC0006965723A0D0A002564202D3E20256600506F736974696F6E206C696D6974206163746976653A20256400506F736974696F6E206C696D6974206D6F746F72202527
:404D0000643A20696E66202D3E20256C64202000737570202D3E20256C640D0A004D61782073746966666E6573733A2025640043757272656E74206C696D69743A20256486
:404D40000064656275673A20256C640000000000000000000000000000000000000000000000000000000000000000000000000000000000000000000000000000000000DD
:404D800000000000000000000000000000000000000000000000000000000000000000000000000000000000000000000000000000000000000000000000000000000000F3
:404DC00000000000000000000000000000000000000000000000000000000000000000000000000000000000000000000000000000000000000000000000000000000000B3
:404E00000000000000000000000000000000000000000000000000000000000000000000000000000000000000000000000000000000000000000000000000000000000072
:404E40000000000000000000000000000000000000000000000000000000000000000000000000000000000000000000000000000000000000000000000000000000000032
:404E800000000000000000000000000000000000000000000000000000000000000000000000000000000000000000000000000000000000000000000000000000000000F2
:404EC00000000000000000000000000000000000000000000000000000000000000000000000000000000000000000000000000000000000000000000000000000000000B2
:404F00000000000000000000000000000000000000000000000000000000000000000000000000000000000000000000000000000000000000000000000000000000000071
:404F40000000000000000000000000000000000000000000000000000000000000000000000000000000000000000000000000000000000000000000000000000000000031
:404F800000000000000000000000000000000000000000000000000000000000000000000000000000000000000000000000000000000000000000000000000000000000F1
:404FC00000000000000000000000000000000000000000000000000000000000000000000000000000000000000000000000000000000000000000000000000000000000B1
:405000000000000000000000000000000000000000000000000000000000000000000000000000000000000000000000000000000000000000000000000000000000000070
:405040000000000000000000000000000000000000000000000000000000000000000000000000000000000000000000000000000000000000000000000000000000000030
:4050800000000000000000000000000000000000000000000000000000000000000000000000000000000000000000000000000000000000000000000000000000000000F0
:4050C00000000000000000000000000000000000000000000000000000000000000000000000000000000000000000000000000000000000000000000000000000000000B0
:40510000000000000000000000000000000000000000000000000000000000000000000000000000000000000000000000000000000000000000000000000000000000006F
:40514000000000000000000000000000000000000000000000000000000000000000000000000000000000000000000000000000000000000000000000000000000000002F
:4051800000000000000000000000000000000000000000000000000000000000000000000000000000000000000000000000000000000000000000000000000000000000EF
:4051C00000000000000000000000000000000000000000000000000000000000000000000000000000000000000000000000000000000000000000000000000000000000AF
:40520000000000000000000000000000000000000000000000000000000000000000000000000000000000000000000000000000000000000000000000000000000000006E
:40524000000000000000000000000000000000000000000000000000000000000000000000000000000000000000000000000000000000000000000000000000000000002E
:405280000000000000000000000000000000000000000031202D204465766963652049443A0032202D20506F736974696F6E20504944205B502C20492C20445D3A0033204E
:4052C0002D20537461727475702041637469766174696F6E3A000000000034202D205265736F6C7574696F6E733A0035202D204D6561737572656D656E74204F6666736545
:4053000074733A0036202D204D756C7469706C696572733A0037202D20506F732E206C696D6974206163746976653A00000000000038202D20506F732E206C696D69747305
:40534000205B696E662C207375705D3A0039202D204D6178207374657073205B6E65672C20706F735D3A003130202D2043757272656E74206C696D69743A003131202D203C
:4053800050756C7365206D6F64616C6974793A00000000000000003132202D20507265737375726520626F756E6473205B6D61782C206D696E5D3A003133202D2050756C69
:4053C0007365206672657175656E63793A003134202D20506F7765722074656E73696F6E3A00000030202D3E2044656163746976617465205B4E4F5D0A31202D3E2041639C
:40540000746976617465205B5945535D0A00E53D2487F582E43404F583E0053D22900484300803900487E475F0011248050245AF2001E97F2ED2018018EF540F2490D434B3
:4054400040D4FF30050BEF24BFB41A0050032461FFE53E6002153E0541E5417002054030080E900484E475F001124805EF0245F50292E57403D2088003E4C208F53D900474
:405480008412481CE4F53EF540F541E53E60077F2012545180F5753FFFC202C201C203C204C206C207C20912541DFF700D3008057F00125462AF41AE4022B4255FC2D5C2E6
:4054C0000512541DFF24D0B40A00501A75F00A783E30D50508B6FF0106C6A426F620D5047002D20480D924CFB41A00EF5004C2E5D205025754D20280C6D20180C0D2038045
:40550000BCD2D580BAD20680B47F201254512003077401B53E0040F112540EFF12545102548BD209D207809512540EFB12540EFA12540EF94A4B700679527A587BFF200346
:405540002EE53E602A7E008E827583001245C860060EEE653F70F0C2D5EBC0E0EAC0E0E9C0E0EE1257B5D0E0F9D0E0FAD0E0FB1245AFFF60AAEBC0E0EAC0E0E9C0E01254F3
:4055800051D0E02401F9D0E03400FAD0E0FBE53F0460DCD53FD98087D20380A212579760F7E53F7001041243FDA93F600DE53F600914F53F12583FEF60F3EA30E702F404A2
:4055C000C3995079EAF4253F0430E701E404F53F800D12579760C1EA053F253F1243FDEA9004B3F030E701E4253F04D53F04200601141257B5E4C0E012583F9004B3E060D0
:405600001320E70714F0125439802204F0D0E014C0E07F00125439E53F6007125430153F800B300603125430D0E002548BD0E00480C4125797609EE53F041243FD9004B377
:40564000EAF0E53F20060260010424041257B574FF04C0E012583F125439E53F2006026003125430D0E0B53FE87F451254439004B3E07F2B30E7047F2DF404C0E0125451D5
:40568000D0E075F00A84C0F012543AD0E012543A02548B791080027908C207C2098008D2D5790A8004790AC2D5E53F047002F53FE4FAFDFEFF12540EFC7B08200213125422
:4056C0000EFD7B1030010A12540EFE12540EFF7B20EC3382D592D55013C3E43001069FFFE49EFEE42002039DFDE49CFCE4CBF8C202EC700CCFCECDCCE824F8F870F38017FF
:40570000C3EF33FFEE33FEED33FDEC33FCEB33FB994002FB0FD8E9EB300205F8D0E0C448B202C0E00AEC4D4E4F78207B0070C2EAB53F0040BCC0E01257B7D0F0D0E02002F4
:4057400004C4C0E0C4B202C0F012543AD0F0D5F0EB02548B12482555285356935854F94C54F54256974F569F44569F49550E4356A55555D246563245559C4758725054FD6E
:405780002D55012E55242B550523552220585B2A54BD480000551CE53FB4FF03753F0612540EFC12540EFD12540EFE12540EFF9004AC02443A790AA2D5200414300609B995
:4057C00010020404B9080104A2D52007025001042003689203B53E005034C0E07F203004197F30A20372077206500F12580EC203C207C206C2097F30800F300603E9C0E074
:40580000125451300603D0E0F9D0E0B53ECC3006177F30B9100C1254517F583005077F788003B908031254513003057F2D0254517F202009F87F2B2007F322920380CF7F3C
:4058400000B40700500B24ACF582E43404F583E0FF22286E756C6C2900D20212540E3002F8C202783E30D50108F60254BD2D5043495812540E2403B405004001E490586DF8
:4058800093125442743A125442D204753E0402569312994EEF700A300DF7C20D12754080F0900861E0249AFF900860E034F9FE3395E0FDFCE47BA07A07F9F812462678079B
:4058C0001247989007C11247F9300D05C20D127540E4FFFEFDFC9007C1E0F8A3E0F9A3E0FAA3E0FBD312475E5003025970127667300D05C20D127540900863E0249AFF901D
:405900000862E034F9FE3395E0FDFCE47BAB7A64F9F8124626780D124798EE3395E0FDFC12856C900872EEF0A3EFF0300D05C20D127540900865E0249AFF900864E034F90D
:40594000FE3395E0FDFCE47BAB7A64F9F8124626780D124798EE3395E0FDFC1285E1900874EEF0A3EFF0300D12C20D127540800BE4900872F0A3F0A3F0A3F0900867E0243E
:405980009AFE900866E034F9900880F0A3CEF0300D05C20D127540E4FF1296D390077FE0FCA3E0FDA3E0FEA3E0FFEC12433E7B327A55797D784112411F12437C900915EEA7
:4059C000F0A3EFF0900783E0FCA3E0FDA3E0FEA3E0FFEC12433EE4FBFA79B4784112411F12437C900917EEF0A3EFF0300D05C20D127540900869E024C9FE900868E034FF74
:405A0000900884F0A3CEF0300D05C20D127540D3900885E094C0900884E06480948D4007740DF0A374C0F0300D05C20D12754090078BE07003025C71300A03025B9B900993
:405A400017E0FEA3E0FFC3900885E09FEE6480F8900884E06480985019E4FFFEFDFC9008861247F9200D03025B4DC20D127540025B4D900915E0FEA3E0FFD3900885E09FC4
:405A8000EE6480F8900884E06480984019E4FFFEFDFC9008861247F9200D03025B4DC20D127540025B4D900917E0FCA3E0FDEC124343C004C005C006C007900915E0FCA314
:405AC000E0FDEC124343D003D002D001D00012402AC004C005C006C007900917E0FCA3E0FDEC124343C004C005C006C007900884E0FCA3E0FDEC124343D003D002D001D085
:405B00000012402AD003D002D001D000124228E4FBFA795C784212411F9008861247F9300D05C20D127540900886E0FCA3E0FDA3E0FEA3E0FFE4FBFA79AA784212402E90C2
:405B400008861247F9300D05C20D127540900886E0FCA3E0FDA3E0FEA3E0FF9007961247F9900796E0FCA3E0FDA3E0FEA3E0FF12437C9007BBEEF0A3EFF0300D05C20D123F
:405B800075409007BBE0FEA3E0FF129358D20A200D03025C71C20D12754022E4FFFE7DAA7C42900796E0F8A3E0F9A3E0FAA3E0FB1242C560025003025C60900796E0FCA374
:405BC000E0FDA3E0FEA3E0FF12437C9007BBEEF0A3EFF0129358300D05C20D127540900796E0FCA3E0FDA3E0FEA3E0FFC004C005C006C007E4FFFE7DA87CC2900886E0F891
:405C0000A3E0F9A3E0FAA3E0FB12402E7B3B7A40798B783712411FC004C005C006C007900790E0FCA3E0FDA3E0FEA3E0FFEC12433ED003D002D001D00012411FA804A905AB
:405C4000AA06AB07D007D006D005D00412402A9007961247F9D20A300D17C20D127540227F557E00129358C20A300D05C20D127540228F23E4F527F526F525F5249006D905
:405C8000E0FCA3E0FDA3E0FEA3E0F52F8E2E8D2D8C2CA3E0FCA3E0FDA3E0FEA3E0F5338E328D318C30A3E0FCA3E0FDA3E0FEA3E0F5378E368D358C34E523C39402400302B2
:405CC0006038E52325E025E0246AF582E43408F583E0F8A3E0F9A3E0FAA3E0FBE52325E025E02432F582E43407F583E0FCA3E0FDA3E0FEA3E0C39BF52BEE9AF52AED99F598
:405D000029EC98F528300D05C20D127540E52325E025E0240DF582E43409F583C083C082E0FCA3E0FDA3E0FEA3E0252BFFEE352AFEED3529FDEC3528FCD082D0831247F96B
:405D4000E52325E025E0240DF582E43409F583E0FCA3E0FDA3E0FEA3E0FF7BA07A8679017800C312475E501C7FA07E867D017C00E52325E025E0240DF582E43409F58312FC
:405D800047F98042E52325E025E0240DF582E43409F583E0FCA3E0FDA3E0FEA3E0FF7B607A7979FE78FFD312475E401A7F607E797DFE7CFFE52325E025E0240DF582E434F1
:405DC00009F5831247F9300D05C20D127540E4F527F526F525F524FFFEFDFCAB2FAA2EA92DA82CC312475E606AE4FFFE7D02FCAB2BAA2AA929A828D312475E500FE4FFFEA2
:405E00007DFE7CFFA828C312475E5027AF2BAE2AAD29AC287808124798AB2FAA2EA92DA82C12462678081247988F278E268D258C248020AF2BAE2AAD29AC28AB2FAA2EA970
:405E40002DA82C12462678101247988F278E268D258C24300D05C20D127540E4FFFEFDFCAB33AA32A931A830C312475E6043AF33AE32AD31AC307806124798E52325E02506
:405E8000E0240DF582E43409F583E0F8A3E0F9A3E0FAA3E0FB124626780A124798E5272FF527E5263EF526E5253DF525E5243CF524E4FFFEFDFCAB37AA36A935A834C312DC
:405EC000475E6063E52325E025E0246AF582E43408F583E0F8A3E0F9A3E0FAA3E0FBE52325E025E0249BF582E43407F583E0FCA3E0FDA3E0FEA3E0C39BFFEE9AFEED99FD97
:405F0000EC98FCAB37AA36A935A8341246267810124798E5272FF527E5263EF526E5253DF525E5243CF524300D05C20D127540E523701AFFFEFDFCAB27AA26A925A824C395
:405F400012475E4004D20F801DC20F8019E4FFFEFDFCAB27AA26A925A824C312475E4004D2108002C210300D05C20D127540E47F64FEFDFCAB27AA26A925A824D312475ED8
:405F8000400AE4752764F526F525F52474FF7F9CFEFDFCAB27AA26A925A824C312475E500B74FF75279CF526F525F524300D05C20D127540AF27AE26AD25AC24780A1247D7
:405FC000ACE47B64FAF9F8128CE6A804A905AA06AB0790088AE0FFE4FCFDFE124626780A1247988F278E268D258C24300F113010077F0312994880167F01129948800F309A
:4060000010077F021299488005E4FF129948300D05C20D127540E523700CAE26AF271297D51298DC800AAE26AF271297D51298E2300D05C20D12754022753B02900756E0B9
:40604000FCA3E0FDA3E0FEA3E0FF9006F2E0F8A3E0F9A3E0FAA3E0FB1242C56058900853E0FCA3E0FDA3E0FEA3E0FFEC12433E9006F2E0F8A3E0F9A3E0FAA3E0FB124228DD
:4060800012437C9008531247F9900853E0FCA3E0FDA3E0FEA3E0FFEC12433E900756E0F8A3E0F9A3E0FAA3E0FB12411F12437C9008531247F990075AE0FCA3E0FDA3E0FE7F
:4060C000A3E0FF9006F6E0F8A3E0F9A3E0FAA3E0FB1242C56058900857E0FCA3E0FDA3E0FEA3E0FFEC12433E9006F6E0F8A3E0F9A3E0FAA3E0FB12422812437C900857127C
:4061000047F9900857E0FCA3E0FDA3E0FEA3E0FFEC12433E90075AE0F8A3E0F9A3E0FAA3E0FB12411F12437C9008571247F990074EE0FCA3E0FDA3E0FEA3E0FF9006EAE0EA
:40614000F8A3E0F9A3E0FAA3E0FBC312475E6057900853E0F8A3E0F9A3E0FAA3E0FBC000C001C002C0039006EAE0F8A3E0F9A3E0FAA3E0FB90074EE0FCA3E0FDA3E0FEA30B
:40618000E0C39BFFEE9AFEED99FDEC98FCD003D002D001D000EB2FFFEA3EFEE93DFDE83CFC9008531247F9900752E0FCA3E0FDA3E0FEA3E0FF9006EEE0F8A3E0F9A3E0FA77
:4061C000A3E0FBC312475E6057900857E0F8A3E0F9A3E0FAA3E0FBC000C001C002C0039006EEE0F8A3E0F9A3E0FAA3E0FB900752E0FCA3E0FDA3E0FEA3E0C39BFFEE9AFEAD
:40620000ED99FDEC98FCD003D002D001D000EB2FFFEA3EFEE93DFDE83CFC9008571247F99006FAE070030262FFA3E0FCA3E0FDA3E0FEA3E0FF900853E0F8A3E0F9A3E0FA4E
:40624000A3E0FBC312475E50149006FBE0FCA3E0FDA3E0FEA3E0FF9008531247F99006FFE0FCA3E0FDA3E0FEA3E0FF900857E0F8A3E0F9A3E0FAA3E0FBC312475E501490F5
:4062800006FFE0FCA3E0FDA3E0FEA3E0FF9008571247F9900703E0FCA3E0FDA3E0FEA3E0FF900853E0F8A3E0F9A3E0FAA3E0FBD312475E4014900703E0FCA3E0FDA3E0FEB1
:4062C000A3E0FF9008531247F9900707E0FCA3E0FDA3E0FEA3E0FF900857E0F8A3E0F9A3E0FAA3E0FBD312475E4014900707E0FCA3E0FDA3E0FEA3E0FF9008571247F990F8
:40630000073CE0FF9006D8E0FE6F603F8E3EE4FFFE127D54EF601B753C01753D017B007A00793CE53BFD7C00900008E53EF012815622E4F53CF53DFB7A00793CE53BFD7C7F
:4063400000900008E53EF012815622E4FFFE127D54EF60067F0112953E22E4FF12953E22900003EDF08F23E523C394024003026640300B227B02AF031BEF6018E4FFFEFD83
:40638000FCEB25E025E02419F582E43409F5831247F980E2C20BE523701312980BEFEEED5403FDE4FC9000041247F98011129815EFEEED5403FDE4FC9000041247F97B014A
:4063C0007A0079041287394003026640900003E06037A3E0FCA3E0FDA3E0FEA3E054C0FFEEED5403FDE4FC7802124785C3E49FFF74809EFEE49DFDE49CFC124750EE339534
:40640000E0FDFCA31247F9805D900004E0FCA3E0FDA3E0FEA3E054C0FFEEED5403FDE4FC7802124785C3E49FFB74809EFAE49DF9E49CF8E52325E025E0244EF582E434076A
:40644000F583E0FCA3E0FDA3E0FEA3E02BFFEA3EFEE93DFDE83CFC124750EE3395E0FDFC9000081247F9301127900008E0FCA3E0FDA3E0FEA3E0FFE52325E025E02419F5EC
:4064800082E43409F5831247F9E523B40102C211E52325E025E02419F582E43409F583E0F8A3E0F9A3E0FAA3E0FB900008E0FCA3E0FDA3E0FEA3E0C39BFFEE9AFEED99FDD1
:4064C000EC98FCA31247F9E4FF7EC0FDFC90000CE0F8A3E0F9A3E0FAA3E0FBD312475E401074762523F582E43408F583E014F080687F007E407DFF7CFF90000CE0F8A3E010
:40650000F9A3E0FAA3E0FBC312475E501074762523F582E43408F583E004F0803C90000CE0A3E0A3E0FEA3E0FF1297D5D3EF9400EE648094C0402274212523F582E43409E9
:40654000F583E004F074212523F582E43409F583E0C3940A500302664074212523F582E43409F583E4F0900008E0FCA3E0FDA3E0FEA3E0FFE52325E025E02419F582E43410
:4065800009F5831247F9900008E0F8A3E0F9A3E0FAA3E0FBC00074762523F582E43408F583E0FF3395E0FEFDFC78101247ACD000EB2FFFEA3EFEE93DFDE83CFC9000081219
:4065C00047F9E52325E025E024F2F582E43406F583E0FCA3E0FDA3E0FEA3E0FFE4FBFA7980783F1242C56038900008E0FCA3E0FDA3E0FEA3E0FFEC12433EE52325E025E005
:4066000024F2F582E43406F583E0F8A3E0F9A3E0FAA3E0FB12411F12437C9000081247F9900008E0FCA3E0FDA3E0FEA3E0FFE52325E025E0246AF582E43408F5831247F9C3
:406640002212996C128B77E47F64FEFDFC1282F47F0112993012939C1295D31290AF12920712967E7E997F77128EE11296587E997F741293FF1295E6E4FF1298DCE4FF1228
:4066800098E2E4FF129948E4FF12991E1295F912960C12961F1294AB7F01129954E4900007F0A3F0FBFA7D017F02128C0F900001EFF0128E2A900002EFF0E0FBFF90000738
:4066C0007486F07D067C0012837C7B017A087960E9EAE4AB01900002E0FF7D107C4E1284F4900001E0FFA3E0FD12943D900001E0FF7D01128BC4E4FF1299181296321296CA
:4067000045D2AF9044F474FDF0E47F0AFEFDFC1282F49000007402F0900000E0FF14F0EF6018E4FFFEFDFCE025E025E02432F582E43407F5831247F980DE9000007402F0E0
:40674000900000E0FF14F0EF6025E4FFFEFDFCE0FB25E025E0246AF582E43408F5831247F974762BF582E43408F583E4F080D178537C087D017B017A0779327E007F0912AE
:4067800049589006E7E090073AF0E490084EF0A3F0900852F0FFFEFDFC9007561247F9E4FFFEFDFC9007521247F9E4FFFEFDFC90074E1247F9E4FFFE127D54EF60077F01FE
:4067C00012953E8005E4FF12953EE4900000F0900000E0FFC39402503B7D01126360900000E0FB25E025E0246AF582E43408F583E0FCA3E0FDA3E0FEA3E0FFEB25E025E0F7
:40680000244EF582E43407F5831247F9900000E004F080BBE4FFFE127D54EF60077F0112953E8005E4FF12953E90073AE0FF12991EE490088AF0C20E90079AF0C20B900757
:4068400072E070077F011299608005E4FF129960E4FF1299421279C412993CEF7020300D0E7F01129966C20DC20C12754080E9300CE67F01129966E490085BF080DA7F01CF
:4068800012994212993CEF640160F81295BFEF30E7BE12920780B92290079AE024FE700302695C147003026A41146076147003026A2E24046003026A621298AE9006D9E07C
:4068C000FCA3E0FDA3E0FEA3E0FF9009231247F99006DDE0FCA3E0FDA3E0FEA3E0FF9009271247F99006E1E0FCA3E0FDA3E0FEA3E0FF90092B1247F9E4FFFEFDFC90085376
:406900001247F9E4FFFEFDFC9008571247F990085BE0540370057F0312991E90079A7404F02290092FE004F0E0640A6003026A62F07F997E19FDFC9006D91247F9E4FFFEF0
:40694000FDFC9006DD1247F9E47FCC7E4CFDFC9006E11247F990079A7402F022900853E0FCA3E0FDA3E0FEA3E0245BFFE43EFEE43DFDE43CFC9008531247F9900857E0FCBA
:40698000A3E0FDA3E0FEA3E0C3945BFFEE9400FEED9400FDEC9400FC9008571247F9D3900873E094E8900872E0648094835013900875E094E8900874E064809483500302C0
:4069C0006A62900732E0A3E0A3E0FFA3E090076FCFF0A3EFF0900923E0FCA3E0FDA3E0FEA3E0FF9006D91247F9900927E0FCA3E0FDA3E0FEA3E0FF9006DD1247F990092BCF
:406A0000E0FCA3E0FDA3E0FEA3E0FF9006E11247F9E4FFFEFDFC9008531247F9E4FFFEFDFC9008571247F990079A7405F02290092FE004F0E0640A7029F090079A7403F035
:406A40002290085BE054037004FF12991E7F087E00127D54E4FFFE127D54E490079AF01298A722900004ECF0A3EDF0A3EAF0A3EBF0900009E0FED394005003026C03EED31C
:406A800094014003026C03EF24FC601524FD603C14606224FE7003026B1E24096003026B47900008E0D3940F40117B0C7A0179181297B190000AEFF0026B4C7B0C7A017939
:406AC0001C1297B190000AEFF0026B4C900008E0D3940F40107B0C7A0179191297B190000AEFF080677B0C7A01791D1297B190000AEFF08057900008E0D3940F40107B0C5B
:406B00007A01791A1297B190000AEFF0803E7B0C7A01791E1297B190000AEFF0802E900008E0D3940F40107B0C7A01791B1297B190000AEFF080157B0C7A01791F1297B16C
:406B400090000AEFF08005E490000AF090000AE0FF3395E0FEFDFCE47B20FAF9F8124626A804A905AA06AB07900004E0FEA3E0FFE4FCFDEB2FFFEA3EFEED39FDEC38FCABEF
:406B800007AA06A905F8A3E0FEA3E0FFE4FCFD124626E4FB7A80F9F81246B1AD07AC06900008E0C3940E502FE0FBC3740E9BFFEDA807088005CEC313CE13D8F9FDAC06EBB2
:406BC00004FF900009E075F003A424CBF582E43409F583EFF08014900009E075F003A424CBF582E43409F583740FF0AF05900009E075F003A424C9F582E43409F583ECF092
:406C0000A3EFF0227B007A4079807D027C001296F19040827418F07B007A407984E4FDFC1296F19040867450F07B007A4079887DFF7C0F1296F190408A741BF07B007A408A
:406C4000798C7D0B7C001296F190408E7419F07B007A4079907D2F7C001296F19040927418F07B007A4079947DEF7C001296F19040967418F07B007A407998E4FDFC12964A
:406C8000F190409A741BF07B087A1F79F890000AE4F0A37441F0A3E4F07F04FE1290489043007406F09042007452F07B0C7A01790F1297B19046A1EFF07B007A4279227D87
:406CC000107C071296F17B007A4279207D517C121296F1E4900004F07F19FEFDFC9000001247F9900000E0A3E0A3E0FEA3E0D39400EE9400404AA3E0FF64036043904225DD
:406D0000E05401FEEF25E04E5403900004F0E47FE07E01FDFC128F00900000E0FCA3E0FDA3E0FEA3E0FF74FFEF24FFFFEE34FFFEED34FFFDEC34FFFC9000001247F980A3D8
:406D4000900000E0A3E0A3E0FEA3E04E70057F0312997A7B007A4079047D007C011296F19040047407F0904006E4F09040087448F0904004E4F0904009F09040017402F058
:406D800090400B7404F09043A2E0447FF09043A1E04401F09043A0E04480F02290073C7401F0E47F997E19FDFCA31247F9E4FFFEFDFC9007411247F9E47FCC7ECCFDFC9017
:406DC00007451247F9E490074BF0900772F090075E04F0E4F53BE53BC3940250377FD07E8A7DFF7CFFE53B25E025E0245FF582E43407F5831247F9E47F307E75FDFCE53B4F
:406E000025E025E02467F582E43407F5831247F9053B80C2E4F53BE53BC39402502BE4FFFE7D807C3FE53B25E025E02456F582E43407F5831247F9744C253BF582E4340780
:406E4000F5837401F0053B80CEE47F78FEFDFC90077F1247F9E47F6C7E07FDFC90077B1247F9E47F3CFEFDFC9007831247F9E47F467E05FDFC9007871247F97F9C7EDC7D33
:406E8000EF7C3A90078C1247F9E47F6EFEFDFC9007901247F9E490078BF0900794741FF0A37440F0E4FFFEFDFC90074CE0F9F81247AC90074E1247F9E4FFFEFDFC90074D04
:406EC000E0F9F81247AC9007521247F9E4FFFEFDFC90074EE0F9F81247AC9007561247F9E47FB87E0BFDFC90074CE0F9F81247AC90076FEEF0A3EFF09007497405F0A37491
:406F0000DCF090073B7401F0E4FFFE127D54EF600E7F087E00127D54EF60047F0180027F00229007CEE0F53A7B017A0779CE90084EE0A3E014FD1290E290084EE0FCA3E074
:406F400024CDF58274073CF583E0B50703D38001C34006E4900852F022E53A124825700A006FFA01700E037012047028056FEE06704C09703A0A6FFE0C6FDE806FE6816F11
:406F8000D6826FAE836FAA846FCE856FD2866FDA896FE28F6FEA906FBE916FB2926FC2936FC6946FCA950000706D128A882212880F229007CFE0FEA3E0FF129358221291D6
:406FC0001422128F732212907C22128DEC22128CA0221286C92212706E2212893022127C7722128D2A221291A7221293DF229007CFE0FEA3E0FF129492221281E3229007E3
:40700000CFE0FEA3E0FF12261A221294F622126039227F087E00127D54EF60067F0112953E22E4FF12953E22128C59EF60067F0112953E22E4FF12953E22126D9CEF600647
:407040007F0112953E22E4FF12953E227F0112953EE47FE87E03FDFC1282F4E4FF129930E47FE87E03FDFC1282F412981F229007CFE0FEA3E0FFEE3395E0FDFC90085312A5
:4070800047F9900853E0FCA3E0FDA3E0FEA3E0FF90074CE0F9F81247AC9008531247F99007D1E0FEA3E0FFEE3395E0FDFC9008571247F9900857E0FCA3E0FDA3E0FEA3E069
:4070C000FF90074DE0F9F81247AC9008571247F99006FAE070030271AFA3E0FCA3E0FDA3E0FEA3E0FF900853E0F8A3E0F9A3E0FAA3E0FBC312475E50149006FBE0FCA3E087
:40710000FDA3E0FEA3E0FF9008531247F99006FFE0FCA3E0FDA3E0FEA3E0FF900857E0F8A3E0F9A3E0FAA3E0FBC312475E50149006FFE0FCA3E0FDA3E0FEA3E0FF9008571F
:407140001247F9900703E0FCA3E0FDA3E0FEA3E0FF900853E0F8A3E0F9A3E0FAA3E0FBD312475E4014900703E0FCA3E0FDA3E0FEA3E0FF9008531247F9900707E0FCA3E079
:40718000FDA3E0FEA3E0FF900857E0F8A3E0F9A3E0FAA3E0FBD312475E4014900707E0FCA3E0FDA3E0FEA3E0FF9008571247F922900003EEF0A3EFF0A3EDF012989790000F
:4071C00007EFF012985B900008EEF0A3EFF0900003E0FCA3E0FD6F7002EC6E70030272E09043A2E05402900006F0A3E0703BA3E0FEA3E0FF4E6004ED4C702EEF4E70117B97
:40720000027A4079841296F3904086E054BFF022904086E04440F07B027A407984900003E0FCA3E0FD1296F322900006E06054904001E4F09040107402F0904014E4F090B8
