:102600000277BB008F828E83E0540100000070F8D7
:102610002278FFE4F6D8FD027849900002EEF0A39C
:10262000EFF078047C007D017BFF7A4E79247E05F3
:102630007F47124A1E90054B7405F0A37447F0784B
:10264000527C057D017BFF7A53796B7E007F0F12F0
:102650004A1E78617C057D017BFF7A53797A7E0082
:102660007F1C124A1E787D7C057D017BFF7A5379A1
:10267000967E007F1C124A1E78997C057D017BFFA7
:102680007A5379B27E007F11124A1E78AA7C057DAA
:10269000017BFF7A5379C37E007F19124A1E78C3EB
:1026A0007C057D017BFF7A5379DC7E007F11124A25
:1026B0001E78D47C057D017BFF7A5379ED7E007F07
:1026C0001C124A1E78F07C057D017BFF7A54790943
:1026D0007E007F1C124A1E780C7C067D017BFF7AEF
:1026E0005479257E007F1A124A1E78267C067D01C9
:1026F0007BFF7A54793F7E007F14124A1E783A7C21
:10270000067D017BFF7A5479537E007F1C124A1E9E
:1027100078567C067D017BFF7A54796F7E007F239B
:10272000124A1E78797C067D017BFF7A5479927E6D
:10273000007F16124A1E788F7C067D017BFF7A543B
:1027400079A87E007F16124A1E78A57C067D017B43
:10275000FF7A5479BE7E007F2A124A1E7B017A05D9
:1027600079521295A78F3D7B017A0579611295A761
:102770008F3E7B017A0579991295A78F3F7B017A6D
:102780000579AA1295A78F407B017A0579C3129526
:10279000A78F417B017A0579F01295A78F427B01C3
:1027A0007A0679261295A78F437B017A06798F12D4
:1027B00095A78F447B017A0679A51295A78F45903E
:1027C0000004740CF0A3740EF0900002E0FEA3E08D
:1027D000FFEE600302347FEFB40F00400302347F4A
:1027E0009027E7F8282873022814023000023009E5
:1027F00002306D0230800230B90231640231CB0206
:1028000031D40232F902337F02338F023432023480
:102810005B0234709000067402F0A314F09006D9A5
:10282000E0900008F0753B00853D3CE53C453B6091
:102830002CC3E53D953CFFE4953BFE74522FF58299
:1028400074053EF583E0FD74092FF58274003EF5B2
:1028500083EDF0E53C153C7002153B80CE900038CE
:102860007407F0A37403F09006DAE0FCA3E0FDA384
:10287000E0FEA3E0FFEC124404E4FBFA7980784721
:102880001242EE90003A1248BF9006DEE0FCA3E050
:10289000FDA3E0FEA3E0FFEC124404E4FBFA798020
:1028A00078471242EE90003E1248BF9006E2E0FCEC
:1028B000A3E0FDA3E0FEA3E0FFEC124404E4FBFA76
:1028C000798078471242EE9000421248BF753B0073
:1028D000853E3CE53C453B602CC3E53E953CFFE432
:1028E000953BFE74612FF58274053EF583E0FD741F
:1028F000462FF58274003EF583EDF0E53C153C7003
:1029000002153B80CEE490006AF0A304F09006E844
:10291000E090006CF0601F9006D274FFF0A3744B3F
:10292000F0A37491F07B017A05797D12878B900575
:102930004D741CF0801D9006D274FFF0A3744BF010
:10294000A37497F07B017A05797D12878B90054DF2
:10295000741BF090054DE0753B00F53CE53C453BB4
:10296000602E90054DE0C3953CFFE4953BFE747DE1
:102970002FF58274053EF583E0FD746D2FF58274AA
:10298000003EF583EDF0E53C153C7002153B80CC34
:1029900090054DE0246DF582E43400F5837403F076
:1029A00090009C14F0A304F0E4F53BF53CC3E53C37
:1029B0009402E53B9400502674E9253CF5827406A8
:1029C000353BF583E0FF749E253CF5827400353B72
:1029D000F583EFF0053CE53C7002053B80CF753B8D
:1029E00000853F3CE53C453B602CC3E53F953CFF03
:1029F000E4953BFE74992FF58274053EF583E0FD66
:102A000074A12FF58274003EF583EDF0E53C153C92
:102A10007002153B80CE9000CE7403F0A3F0E4F575
:102A20003BF53CC3E53C9402E53B94005059E53C42
:102A3000AE3B7802C333CE33CED8F924EBF58274A3
:102A4000063EF583E0FCA3E0FDA3E0FEA3E0FF74F7
:102A5000E9253CF5827406353BF583E0F9F8124828
:102A60005EAD07AC06E53C25E0FFE53B33FE74D0E8
:102A70002FF58274003EF583ECF0A3EDF0053CE504
:102A80003C7002053B809C753B0085403CE53C4525
:102A90003B602CC3E540953CFFE4953BFE74AA2FB8
:102AA000F58274053EF583E0FD74D62FF58274003F
:102AB0003EF583EDF0E53C153C7002153B80CE9071
:102AC00001007407F0A37403F0E4F53BF53CC3E5A3
:102AD0003C9402E53B94005054E53CAE3B7802C385
:102AE00033CE33CED8F924F3F58274063EF583E075
:102AF000FCA3E0FDA3E0FEA3E0FFC004C005C00608
:102B0000C007E53CAE3B7802C333CE33CED8F924C0
:102B100002F58274013EF583D007D006D005D004BB
:102B20001248BF053CE53C7002053B80A1E4F53B43
:102B3000F53C7B017A0579C31295A7C3E53C9FE577
:102B40003B9E502674C3253CF5827405353BF583C6
:102B5000E0FF740E253CF5827401353BF583EFF000
:102B6000053CE53C7002053B80C8E4900132F0A3CF
:102B700004F09006FBE0900134F0601F9006D274E0
:102B8000FFF0A3744BF0A37491F07B017A0579D424
:102B900012878B90054D741CF0801D9006D274FF37
:102BA000F0A3744BF0A37497F07B017A0579D412EB
:102BB000878B90054D741BF090054DE0753B00F53B
:102BC0003CE53C453B602E90054DE0C3953CFFE461
:102BD000953BFE74D42FF58274053EF583E0FD74B9
:102BE000352FF58274013EF583EDF0E53C153C7020
:102BF00002153B80CC90054DE02435F582E434018C
:102C0000F5837403F09001647405F0A314F0E4F507
:102C10003BF53CC3E53C9402E53B94004003022CA9
:102C2000E4E53CAE3B7802C333CE33CED8F924FC86
:102C3000F58274063EF583E0FCA3E0FDA3E0FEA36D
:102C4000E0FF74E9253CF5827406353BF583E0F935
:102C5000F812485EC004C005C006C007E53CAE3BA4
:102C60007803C333CE33CED8F92466F58274013E9F
:102C7000F583D007D006D005D0041248BFE53CAE9E
:102C80003B7802C333CE33CED8F92404F5827407DF
:102C90003EF583E0FCA3E0FDA3E0FEA3E0FF74E9C2
:102CA000253CF5827406353BF583E0F9F812485E61
:102CB000C004C005C006C007E53CAE3B7803C33383
:102CC000CE33CED8F9246AF58274013EF583D0075D
:102CD000D006D005D0041248BF053CE53C70020583
:102CE0003B022C13753B0085423CE53C453B602C88
:102CF000C3E542953CFFE4953BFE74F02FF58274EA
:102D0000053EF583E0FD74762FF58274013EF58370
:102D1000EDF0E53C153C7002153B80CE90019674B9
:102D200005F0A37402F0900710E0FCA3E0FDA3E01F
:102D3000FEA3E0FF9001981248BF900714E0FCA3A7
:102D4000E0FDA3E0FEA3E0FF90019C1248BFE4F584
:102D50003BF53C7B017A06790C1295A7C3E53C9FB5
:102D6000E53B9E5026740C253CF5827406353BF5F8
:102D700083E0FF74A0253CF5827401353BF583EFB9
:102D8000F0053CE53C7002053B80C89001C8740327
:102D9000F0A37401F09006E6E0FFA3E09001CACF33
:102DA000F0A3EFF0753B0085433CE53C453B602CD0
:102DB000C3E543953CFFE4953BFE74262FF58274F2
:102DC000063EF583E0FD74CC2FF58274013EF58359
:102DD000EDF0E53C153C7002153B80CEE49001FA25
:102DE000F0A304F0900728E09001FCF0601F90062B
:102DF000D274FFF0A3744BF0A37491F07B017A06B8
:102E0000793A12878B90054D741CF0801D9006D284
:102E100074FFF0A3744BF0A37497F07B017A0679EA
:102E20003A12878B90054D741BF090054DE0753B71
:102E300000F53CE53C453B602E90054DE0C3953CDC
:102E4000FFE4953BFE743A2FF58274063EF583E06D
:102E5000FD74FD2FF58274013EF583EDF0E53C1520
:102E60003C7002153B80CC90054DE024FDF582E4DA
:102E70003401F5837403F090022C7405F0A37402FE
:102E8000F090071CE0FCA3E0FDA3E0FEA3E0FF90B0
:102E9000022E1248BF900720E0FCA3E0FDA3E0FE55
:102EA000A3E0FF9002321248BFE4F53BF53C7B0102
:102EB0007A0679561295A7C3E53C9FE53B9E5026BE
:102EC0007456253CF5827406353BF583E0FF743675
:102ED000253CF5827402353BF583EFF0053CE53C7B
:102EE0007002053B80C890025E7405F0A37401F087
:102EF00090072DE0FCA3E0FDA3E0FEA3E0FF90021D
:102F0000601248BFE4F53BF53C7B017A06790C1270
:102F100095A7C3E53C9FE53B9E50267479253CF57B
:102F2000827406353BF583E0FF7464253CF58274BA
:102F300002353BF583EFF0053CE53C7002053B8034
:102F4000C89002907404F0A37401F0900731E0FF80
:102F5000A3E0900292CFF0A3EFF0753B0085443CD4
:102F6000E53C453B602CC3E544953CFFE4953BFEC6
:102F7000748F2FF58274063EF583E0FD74942FF56F
:102F80008274023EF583EDF0E53C153C7002153B82
:102F900080CE753B0085453CE53C453B602CC3E558
:102FA00045953CFFE4953BFE74A52FF58274063EE3
:102FB000F583E0FD74C22FF58274023EF583EDF0D7
:102FC000E53C153C7002153B80CE7B017A0079040C
:102FD00090054BE0A3E014FD1290AA90054BE0FC95
:102FE000A3E0FD2403F58274003CF583EFF07B0140
:102FF0007A007904E49006D4F012801512968E229D
:103000009007D2E090073DF022E4FFFE7D807C47F0
:103010009007D2E0F8A3E0F9A3E0FAA3E0FB1241A5
:10302000E512444290073E1248BFE4FFFE7D807CDB
:10303000479007D6E0F8A3E0F9A3E0FAA3E0FB127B
:1030400041E51244429007421248BFE4FFFE7D80F2
:103050007C479007DAE0F8A3E0F9A3E0FAA3E0FBED
:103060001241E51244429007461248BF229007D20F
:10307000E0600790074C7403F022E490074CF022C4
:10308000E4F53BF53CC3E53C9402E53B940040038A
:1030900002347F74D2253CF5827407353BF583E01A
:1030A000FF744D253CF5827407353BF583EFF00541
:1030B0003CE53C7002053B80CCE4F53BF53CC3E5C8
:1030C0003C9402E53B94004003023161E53C25E07D
:1030D000FFE53B33FE74D22FF58274073EF583E0A3
:1030E000FEA3E0FFEE3395E0FDFCC004C005C00682
:1030F000C007E53CAE3B7802C333CE33CED8F9FBF4
:10310000AA06244FF58274073AF583D007D006D07B
:1031100005D0041248BF744F2BF58274073AF5832B
:10312000C083C082E0FCA3E0FDA3E0FEA3E0FF7447
:103130004D253CF5827407353BF583E0F9F81248DC
:1031400072D082D0831248BF7477253CF582740810
:10315000353BF583E4F0053CE53C7002053B02306D
:10316000BED20B22E4F53BF53CC3E53C9402E53BC3
:103170009400400302347FE53CAE3B7802C333CE7B
:1031800033CED8F924D2F58274073EF583E0FCA350
:10319000E0FDA3E0FEA3E0FFC004C005C006C00739
:1031A000E53CAE3B7802C333CE33CED8F92457F595
:1031B0008274073EF583D007D006D005D0041248AC
:1031C000BF053CE53C7002053B809E9007D2E09035
:1031D000075FF022E4F53BF53CC3E53C9402E53B98
:1031E0009400400302347FE53CAE3B7803C333CE0A
:1031F00033CED8F924D2F58274073EF583E0FCA3E0
:10320000E0FDA3E0FEA3E0FFC004C005C006C007C8
:10321000E53CAE3B7802C333CE33CED8F92460F51B
:103220008274073EF583D007D006D005D00412483B
:10323000BFE53CAE3B7803C333CE33CED8F924D6BA
:10324000F58274073EF583E0FCA3E0FDA3E0FEA356
:10325000E0FFC004C005C006C007E53CAE3B7802F5
:10326000C333CE33CED8F9FBAA062468F58274079F
:103270003AF583D007D006D005D0041248BF746059
:103280002BF58274073AF583C083C082E0FCA3E08B
:10329000FDA3E0FEA3E0FF744D253CF582740735E5
:1032A0003BF583E0F9F8124872D082D0831248BF10
:1032B000E53CAE3B7802C333CE33CED8F92468F573
:1032C0008274073EF583C083C082E0FCA3E0FDA3C7
:1032D000E0FEA3E0FF744D253CF5827407353BF515
:1032E00083E0F9F8124872D082D0831248BF053CBF
:1032F000E53C7002053B0231D99007D2E0FCA3E027
:10330000FDA3E0FEA3E0FF90054E1248BFE4FFFEE0
:10331000FDFC90054EE0F8A3E0F9A3E0FAA3E0FB82
:10332000D3124824501490054EE0FCA3E0FDA3E026
:10333000FEA3E0FF9007741248BF9007D6E0FCA3FD
:10334000E0FDA3E0FEA3E0FF90054E1248BFE4FFBE
:10335000FEFDFC90054EE0F8A3E0F9A3E0FAA3E03F
:10336000FBC3124824500302347F90054EE0FCA3B7
:10337000E0FDA3E0FEA3E0FF9007781248BF229093
:1033800007D2E0FFA3E090074ACFF0A3EFF022902E
:1033900007D2E090078CF0604F90073B7403F0FF7A
:1033A0001299439006E9E0FF741C7EF7A807088095
:1033B00005C333CE33CED8F9FFEE3395E0FDFC9054
:1033C00007331248BF9006EAE0FF74E47E08A807BE
:1033D000088005C333CE33CED8F9FFEE3395E0FD38
:1033E000FC9007371248BF229006E9E0FFE4FEA8F0
:1033F00007088005C333CE33CED8F9FFEE3395E00E
:10340000FDFC9007331248BF9006EAE0FFE4FEA8F7
:1034100007088005C333CE33CED8F9FFEE3395E0ED
:10342000FDFC9007371248BFE490073BF0FF12996C
:1034300043229007D2E0FCA3E0FDA3E0FEA3E0FF5F
:103440009007801248BF9007D6E0FCA3E0FDA3E000
:10345000FEA3E0FF9007841248BF229007D2E0FC51
:10346000A3E0FDA3E0FEA3E0FF9007911248BF2276
:103470009007D2E0FFA3E0900795CFF0A3EFF022F2
:1034800090044EEBF0A3EAF0A3E9F090044EE0FBC9
:10349000A3E0FAA3E0F8AC02AD037BFF7A4B799C82
:1034A000124AFC9006D274FFF0A3744BF0A3749DF3
:1034B000F090044EE0FBA3E0FAA3E0F912878B90B2
:1034C00006D274FFF0A3744BF0A374A0F090044EE6
:1034D000E0FBA3E0FAA3E0F912878B9006D274FF19
:1034E000F0A3744BF0A374B3F090044EE0FBA3E0A0
:1034F000FAA3E0F912878B9006D274FFF0A3744B05
:10350000F0A374C4F090044EE0FBA3E0FAA3E0F94A
:1035100012878B9006D274FFF0A3744BF0A374CA89
:10352000F090044EE0FBA3E0FAA3E0F912878B9041
:10353000048674FFF0A3744BF0A374D8F09006D9FE
:10354000E0FF900489E4F0A3EFF07B017A04795165
:1035500012554D9006D27401F0A37404F0A3745177
:10356000F090044EE0FBA3E0FAA3E0F912878B9001
:10357000048674FFF0A3744BF0A374E1F0A3E4F0AD
:10358000A37402F07B017A04795112554D9006D252
:103590007401F0A37404F0A37451F090044EE0FBA6
:1035A000A3E0FAA3E0F912878B90048674FFF0A3DE
:1035B000744BF0A374F9F0900731E0FFA3E090049E
:1035C00089CFF0A3EFF07B017A04795112554D9029
:1035D00006D27401F0A37404F0A37451F090044E69
:1035E000E0FBA3E0FAA3E0F912878B90048674FF56
:1035F000F0A3744CF0A3740EF090088BE0FF9004DD
:1036000089E4F0A3EFF07B017A04795112554D90D3
:1036100006D27401F0A37404F0A37451F090044E28
:10362000E0FBA3E0FAA3E0F912878B9006D274FFC7
:10363000F0A3744BF0A3749DF090044EE0FBA3E064
:10364000FAA3E0F912878B9006D274FFF0A3744CB2
:10365000F0A3741EF090044EE0FBA3E0FAA3E0F99F
:1036600012878B9006D274FFF0A3744CF0A3742BD6
:10367000F090044EE0FBA3E0FAA3E0F912878BE49C
:10368000F53BF53CC3E53C9402E53B6480948050F7
:103690007990048674FFF0A3744CF0A3743EF0E5B7
:1036A0003CAE3B7802C333CE33CED8F924C6F58284
:1036B00074073EF583E0FCA3E0FDA3E0FEA3E0FF7A
:1036C00074E9253CF5827406353BF583E0F9F81280
:1036D000485E900489EEF0A3EFF07B017A04795103
:1036E00012554D9006D27401F0A37404F0A37451E6
:1036F000F090044EE0FBA3E0FAA3E0F912878B05FB
:103700003CE53C7002053B0236849006D274FFF023
:10371000A3744BF0A3749DF090044EE0FBA3E0FA79
:10372000A3E0F912878B90048674FFF0A3744CF029
:10373000A37442F07B017A04795112554D9007CE63
:10374000E0540360199006D274FFF0A3744CF0A308
:103750007452F07B017A04795112878B801790069E
:10376000D274FFF0A3744CF0A37458F07B017A0478
:10377000795112878B9006D27401F0A37404F0A3E0
:103780007451F090044EE0FBA3E0FAA3E0F9128735
:103790008B9006D274FFF0A3744CF0A3745DF0908C
:1037A000044EE0FBA3E0FAA3E0F912878B9006D267
:1037B00074FFF0A3744CF0A37473F090044EE0FB1C
:1037C000A3E0FAA3E0F912878BE4F53BF53CC3E5EF
:1037D0003C9402E53B64809480400302388290046C
:1037E0008674FFF0A3744CF0A37483F0E53C2401CD
:1037F00090048AF0E4353B900489F0E53CAE3B78D8
:1038000002C333CE33CED8F9249CF58274073EF53B
:1038100083E0FCA3E0FDA3E0FEA3E0FF74E9253C08
:10382000F5827406353BF583E0F9F812485E9004A2
:103830008BEEF0A3EFF07B017A04795112554D9095
:1038400006D27401F0A37404F0A37451F090044EF6
:10385000E0FBA3E0FAA3E0F912878B9006D274FF95
:10386000F0A3744BF0A3749DF090044EE0FBA3E032
:10387000FAA3E0F912878B053CE53C7002053B0298
:1038800037CE90048674FFF0A3744CF0A3748CF0D0
:103890009007C2E0FCA3E0FDA3E0FEA3E0FF9004DC
:1038A000891248BF7B017A04795112554D9006D296
:1038B0007401F0A37404F0A37451F090044EE0FB83
:1038C000A3E0FAA3E0F912878B9006D274FFF0A36D
:1038D000744BF0A3749DF090044EE0FBA3E0FAA3B8
:1038E000E0F912878B90048674FFF0A3744CF0A368
:1038F000749EF09007A4E0FEA3E0FFEE3395E0FD98
:10390000FC9004891248BF7B017A04795112554D0D
:103910009006D27401F0A37404F0A37451F09004E3
:103920004EE0FBA3E0FAA3E0F912878B9006D27475
:10393000FFF0A3744BF0A3749DF090044EE0FBA342
:10394000E0FAA3E0F912878B90048674FFF0A37469
:103950004CF0A374B2F09007A6E0FEA3E0FFEE33B4
:1039600095E0FDFC9004891248BF7B017A047951EF
:1039700012554D9006D27401F0A37404F0A3745153
:10398000F090044EE0FBA3E0FAA3E0F912878B90DD
:1039900006D274FFF0A3744BF0A3749DF090044E14
:1039A000E0FBA3E0FAA3E0F912878B9006D274FF44
:1039B000F0A3744CF0A374C6F090044EE0FBA3E0B7
:1039C000FAA3E0F912878B9006D274FFF0A3744C2F
:1039D000F0A374DCF090044EE0FBA3E0FAA3E0F95E
:1039E00012878B90048674FFF0A3744CF0A374EEDE
:1039F000F09006DAE0FCA3E0FDA3E0FEA3E0FFEC1C
:103A0000124404E4FBFA798078471242EE9004896C
:103A10001248BF7B017A04795112554D9006D27439
:103A200001F0A37404F0A37451F090044EE0FBA3E2
:103A3000E0FAA3E0F912878B90048674FFF0A37478
:103A40004CF0A374F8F09006DEE0FCA3E0FDA3E0E8
:103A5000FEA3E0FFEC124404E4FBFA7980784712FD
:103A600042EE9004891248BF7B017A0479511255C5
:103A70004D9006D27401F0A37404F0A37451F09039
:103A8000044EE0FBA3E0FAA3E0F912878B900486D2
:103A900074FFF0A3744DF0A37402F09006E2E0FC12
:103AA000A3E0FDA3E0FEA3E0FFEC124404E4FBFA74
:103AB000798078471242EE9004891248BF7B017AE0
:103AC00004795112554D9006D27401F0A37404F09C
:103AD000A37451F090044EE0FBA3E0FAA3E0F912C6
:103AE000878B9006D274FFF0A3744BF0A3749DF003
:103AF00090044EE0FBA3E0FAA3E0F912878B900656
:103B0000E8E0B4031E9006D274FFF0A3744DF0A356
:103B1000740CF090044EE0FBA3E0FAA3E0F91287E6
:103B20008B801C9006D274FFF0A3744DF0A3742612
:103B3000F090044EE0FBA3E0FAA3E0F912878B902B
:103B400006D274FFF0A3744DF0A3743FF090044EBE
:103B5000E0FBA3E0FAA3E0F912878BE4F53BF53C28
:103B6000C3E53C9402E53B64809480507F900486DA
:103B700074FFF0A3744CF0A37483F0E53C2401902F
:103B8000048AF0E4353B900489F074E9253CF58221
:103B90007406353BF583E0FF90048BE4F0A3EFF06F
:103BA0007B017A04795112554D9006D27401F0A32D
:103BB0007404F0A37451F090044EE0FBA3E0FAA368
:103BC000E0F912878B9006D274FFF0A3744BF0A338
:103BD000749DF090044EE0FBA3E0FAA3E0F9128795
:103BE0008B053CE53C7002053B023B609006D274BD
:103BF000FFF0A3744DF0A37454F090044EE0FBA3C7
:103C0000E0FAA3E0F912878BE4F53BF53CC3E53C11
:103C10009402E53B648094804003023CBF9004869C
:103C200074FFF0A3744DF0A3746AF0E53C24019096
:103C3000048AF0E4353B900489F0E53CAE3B780221
:103C4000C333CE33CED8F924EBF58274063EF58328
:103C5000E0FCA3E0FDA3E0FEA3E0FF74E9253CF552
:103C6000827406353BF583E0F9F812485E90048BC8
:103C70001248BF7B017A04795112554D9006D274D7
:103C800001F0A37404F0A37451F090044EE0FBA380
:103C9000E0FAA3E0F912878B9006D274FFF0A374C8
:103CA0004BF0A3749DF090044EE0FBA3E0FAA3E078
:103CB000F912878B053CE53C7002053B023C0D90F8
:103CC00006D274FFF0A3744DF0A37474F090044E08
:103CD000E0FBA3E0FAA3E0F912878BE4F53BF53CA7
:103CE000C3E53C9402E53B648094804003023D8040
:103CF00090048674FFF0A3744DF0A3748EF0E53C3D
:103D0000240190048AF0E4353B900489F0E53CAE50
:103D10003B7802C333CE33CED8F924F3F582740650
:103D20003EF583E0FCA3E0FDA3E0FEA3E0FF9004EA
:103D30008B1248BF7B017A04795112554D9006D2FF
:103D40007401F0A37404F0A37451F090044EE0FBEE
:103D5000A3E0FAA3E0F912878B9006D274FFF0A3D8
:103D6000744BF0A3749DF090044EE0FBA3E0FAA323
:103D7000E0F912878B053CE53C7002053B023CE014
:103D800090048674FFF0A3744DF0A37497F090072D
:103D90005FE0FF900489E4F0A3EFF07B017A0479FF
:103DA0005112554D9006D27401F0A37404F0A3741F
:103DB00051F090044EE0FBA3E0FAA3E0F912878BE8
:103DC0009006D274FFF0A3744BF0A3749DF090049E
:103DD0004EE0FBA3E0FAA3E0F912878BE4F53BF594
:103DE0003CC3E53C9402E53B648094804003023E82
:103DF000E390048674FFF0A3744DF0A374B1F0E572
:103E00003C240190048AF0E4353B900489F0E53CC1
:103E1000AE3B7802C333CE33CED8F92460F582743A
:103E2000073EF583E0FCA3E0FDA3E0FEA3E0FF7402
:103E30004D253CF5827407353BF583E0F9F81248CF
:103E40005E90048B1248BF7B017A04795112554D64
:103E50009006D27401F0A37404F0A37451F090049E
:103E60004EE0FBA3E0FAA3E0F912878B900486747E
:103E7000FFF0A3744DF0A374D7F0E53CAE3B78029D
:103E8000C333CE33CED8F92468F58274073EF58368
:103E9000E0FCA3E0FDA3E0FEA3E0FF744D253CF5AC
:103EA000827407353BF583E0F9F812485E90048987
:103EB0001248BF7B017A04795112554D9006D27495
:103EC00001F0A37404F0A37451F090044EE0FBA33E
:103ED000E0FAA3E0F912878B053CE53C7002053B54
:103EE000023DE190048674FFF0A3744DF0A374E4E6
:103EF000F0900770E0FEA3E0FF90074DE0FDEFA813
:103F000005088006CEA2E713CE13D8F8FF900489E7
:103F1000EEF0A3EFF07B017A04795112554D900633
:103F2000D27401F0A37404F0A37451F090044EE035
:103F3000FBA3E0FAA3E0F912878B9006D274FFF09E
:103F4000A3744BF0A3749DF090044EE0FBA3E0FA41
:103F5000A3E0F912878B90048674FFF0A3744DF0F0
:103F6000A374F6F090074AE0FFA3E0900489CFF035
:103F7000A3EFF07B017A04795112554D9006D2746B
:103F800001F0A37404F0A37451F090044EE0FBA37D
:103F9000E0FAA3E0F912878B9006D274FFF0A374C5
:103FA0004BF0A3749DF090044EE0FBA3E0FAA3E075
:103FB000F912878B90048674FFF0A3744EF0A374FB
:103FC00008F0900885E0FFA3E0900489CFF0A3EF0C
:103FD000F07B017A04795112554D9006D27401F0AC
:103FE000A37404F0A37451F090044EE0FBA3E0FA34
:103FF000A3E0F912878B9006D274FFF0A3744BF004
:10400000A3749DF090044EE0FBA3E0FAA3E0F91244
:10401000878B90048674FFF0A3744EF0A37412F0A3
:10402000900881E0FFA3E0900489CFF0A3EFF07B3C
:10403000017A04795112554D9006D27401F0A3749F
:1040400004F0A37451F090044EE0FBA3E0FAA3E067
:10405000F912878B9006D274FFF0A3744BF0A3740F
:104060009DF090044EE0FBA3E0FAA3E0F912878BE9
:1040700090048674FFF0A3744EF0A37419F09007B7
:10408000BEE0F8A3E0F9A3E0FAA3E0FB90085DE04E
:10409000FCA3E0FDA3E0FEA3E0C39BFFEE9AFEEDD0
:1040A00099FDEC98FC9004891248BF7B017A047951
:1040B0005112554D9006D27401F0A37404F0A3740C
:1040C00051F090044EE0FBA3E0FAA3E0F912878BD5
:1040D0009006D274FFF0A3744BF0A3749DF090048B
:1040E0004EE0FBA3E0FAA3E0F912878B220244AE74
:1040F000E86480F8E933E83360110460F0ED33ECF4
:10410000337009E8FCE9FDEAFEEBFF220460DED330
:10411000EB9FEA9EE99DE8C2E78CF0C2F795F0407C
:104120000CE8CCF8E9CDF9EACEFAEBCFFB124479F2
:1041300085D0F05804700320D5B3E804700750020E
:10414000B2D50244B892D5EC0460F7E4CCC0E0C329
:1041500098F8603B94186008400DD0E0FB02449052
:10416000E4FBFAC9FC8028E830E406E4C9FBE4CAB1
:10417000FCE830E305E4C9CACBFCE854076010F85A
:10418000C3E913F9EA13FAEB13FBEC13FCD8F13093
:10419000F52FC3E49CFCEF9BFFEE9AFEED99FDD05A
:1041A000E0FBEF4E4D4C701222DB030244B5EC2CC9
:1041B000FCEF33FFEE33FEED33FDED30E7EB024471
:1041C00090EF2BFFEE3AFEED39FDD0E0FB50130BE4
:1041D000BB00030244B8ED13FDEE13FEEF13FFEC3A
:1041E00013FC024490EC4D6011E8497017ED33EC7C
:1041F0003304600DE4FCFFFEFD22E933E833047074
:10420000F80244AE12447958046009E4CC24815089
:10421000062850090244B82840030244B5C0E0EB28
:104220004A7044B98006D0E0FB0244A4EF4E701CF3
:10423000BD8008EBFFEAFEE9FD80EBE98DF0A4FE0E
:10424000E5F00242CEE9CDF9EAFEEBFFEF89F0A4FA
:10425000FCE5F0CE89F0A42EFFE435F0CD89F0A482
:104260002DFEE435F08067EF4E7005BD80D780C32A
:10427000EF8BF0A4ACF0EE8BF0A42CFCE435F0F85E
:10428000EF8AF0A42CE5F038FCE433CB8DF0A42CBD
:10429000FCE5F03BF8EE8AF0A42CFCE5F038F8E4FD
:1042A00033CF89F0A42CFCE5F038CF3400CE89F070
:1042B000A42FFFE5F03EFEE433C98DF0A42EFEE509
:1042C000F039CD8AF0A42FFFE5F03EFEE43DFD334A
:1042D000D0E0FB50070BBB000F0244B8EC2CFCEF06
:1042E00033FFEE33FEED33FD0244900244B8EC5D43
:1042F000046005E8590470030244AE12447958047E
:1043000060F6EC4860F2EC7004FDFEFF22C860DB52
:104310002481C85009C398600250060244B59850E1
:10432000CAF582E9294B4A7005AB820244A475F0B4
:10433000007C1A7880C3EF9BEE9AED99400DC3EF95
:104340009BFFEE9AFEED99FDE842F0DC23ACF0D045
:10435000E0FFD0E0FED0E0FDAB8220E7101BEB6079
:10436000BAEC2CFCEF33FFEE33FEED33FD0244904C
:10437000E803F830E705C0F075F000EF2FFFEE33EB
:10438000FEED33FD40B830E7C280AA74F8CC6480FB
:10439000CCC86480C8F58204604FC3EB9FF5F0EA97
:1043A0009E42F0E99D42F0E89C45F0603C501DE5DE
:1043B000825FFFE582D313CB5BCBF42B5582FB509E
:1043C000280ABA002409B9002008801DE5825BFB99
:1043D000E582D313CF5FCFF4C3132F5582FF50096B
:1043E0000EBE00050DBD00010CC3EB9FF5F0EA9E6B
:1043F00042F0E99D42F0E89C45F06007CC4820E798
:1044000001B3EC2275F020800E75F010800575F078
:10441000087D007E007F003392D530D50312481608
:10442000EC334010EF33FFEE33FEED33FDEC33FCA5
:10443000D5F0ED22E5F0247EA2D513CC92E7CDCEC7
:10444000FF22EDD2E7CD33EC3392D524814006E450
:10445000FFFEFDFC22FCE4CFCECDCC24E050117455
:10446000FF80EDC3CC13CCCD13CDCE13CECF13CF65
:104470000470F030D5DE024816E9D2E7C933E833DC
:10448000F892D5EDD2E7CD33EC33FC5002B2D52211
:10449000EC30E7100FBF000C0EBE00080DBD00048D
:1044A0000BEB6014A2D5EB13FCED92E7FD2274FF39
:1044B000FCFDFEFF22E480F8A2D574FF13FC7D8092
:1044C000E480EFF920E73624F950037907E4F42477
:1044D00002FBE582158270021583DBF6E024FB50B7
:1044E0001BE96014E4F0E582158270021583E00494
:1044F000F0B40A08E4F0D9EE7401F00A22C2D52221
:10450000ED33EC3392D5FA602AB4FF33EDC2E77B8A
:10451000FF60067A457925E4227A45792E20D50474
:104520007A457929224E614E002B494E46002D498D
:104530004E4600E47A08F0A3DAFC7B00740722C040
:1045400083C082ECC0E0EDC0E0EEC0E0EFC0E0EA86
:1045500075F010A4CAABF075F04DA42BFBE435F058
:10456000FCEA2410FAEB34C5FBEC34D9FCEDC2E7CD
:10457000FF75F056A4F42411C5F0F434C58FF0A4EF
:104580002AE5F03BE43CF020E714124635D0E0FF8A
:10459000D0E0FED0E0FDD0E0FC1242EE8014F40446
:1045A000124635D0E0FFD0E0FED0E0FDD0E0FC12B6
:1045B00041E5D082D083E0FAEDD2E7CD33EC33246D
:1045C00082FBE4C3CF33CFCE33CECD33CD33DBF359
:1045D0007B0775F00A846004F0A31B0AE5F0F0A3E2
:1045E0008FF0740AA4FFACF08EF0740AA42CFEAC19
:1045F000F050010C8DF0740AA42CFDE435F0F0A30A
:10460000DBDE7407223F8000004120000042C8002A
:1046100000447A0000461C400047C35000497424FF
:10462000004B1896804CBEBC205A0E1BCA6753C262
:104630001C749DC5AEFB60065407601C2323124604
:1046400063EB5438600912464F12465E1241E5ECA6
:10465000F8EDF9EEFAEFCB22EB12465E80F154381A
:1046600003241C904605FE93FC0EEE93FD0EEE9384
:104670000ECE93FF22BB010689828A83E02250027C
:10468000E722BBFE02E32289828A83E49322BB01F4
:104690000CE58229F582E5833AF583E0225006E9AC
:1046A0002582F8E622BBFE06E92582F8E222E582B1
:1046B00029F582E5833AF583E49322BB01068982DA
:1046C0008A83F0225002F722BBFE01F322BB010ACB
:1046D00089828A83F0E5F0A3F0225006F709A7F05B
:1046E0001922BBFE06F3E5F009F31922E88FF0A4C6
:1046F000CC8BF0A42CFCE98EF0A42CFC8AF0EDA469
:104700002CFCEA8EF0A4CDA8F08BF0A42DCC38259B
:10471000F0FDE98FF0A42CCD35F0FCEB8EF0A4FE7B
:10472000A9F0EB8FF0A4CFC5F02ECD39FEE43CFC10
:10473000EAA42DCE35F0FDE43CFC2275F00875822C
:1047400000EF2FFFEE33FECD33CDCC33CCC582331B
:10475000C5829BED9AEC99E58298400CF582EE9B20
:10476000FEED9AFDEC99FC0FD5F0D6E4CEFBE4CD3E
:10477000FAE4CCF9A88222B800C1B90059BA002DD8
:10478000EC8BF084CFCECDFCE5F0CBF97818EF2F91
:10479000FFEE33FEED33FDEC33FCEB33FB10D703C0
:1047A000994004EB99FB0FD8E5E4F9FA227818EF69
:1047B0002FFFEE33FEED33FDEC33FCC933C910D7C8
:1047C000059BE99A4007EC9BFCE99AF90FD8E0E4D5
:1047D000C9FAE4CCFB2275F010EF2FFFEE33FEEDAB
:1047E00033FDCC33CCC833C810D7079BEC9AE8997B
:1047F000400AED9BFDEC9AFCE899F80FD5F0DAE45D
:10480000CDFBE4CCFAE4C8F922CFF4CFCEF4CECD80
:10481000F4CDCCF4CC22C3E49FFFE49EFEE49DFDE6
:10482000E49CFC22EB9FF5F0EA9E42F0E99D42F009
:10483000EC6480C864809845F022EB9FF5F0EA9E16
:1048400042F0E99D42F0E89C45F022E8600FECC39D
:1048500013FCED13FDEE13FEEF13FFD8F122E86019
:1048600010ECA2E713FCED13FDEE13FEEF13FFD8DF
:10487000F022E8600FEFC333FFEE33FEED33FDECC3
:1048800033FCD8F122BB010789828A83024B515045
:1048900005E9F8024B45BBFE05E9F8024B5D89824C
:1048A0008A83024B69BB010789828A830248BF5011
:1048B00005E9F8024B79BBFE05E9F8024B8522ECCD
:1048C000F0A3EDF0A3EEF0A3EFF022F8E0FBA3A33A
:1048D000E0F925F0F0E582158270021583E0FA38E0
:1048E000F022EBF0A3EAF0A3E9F022D083D082F823
:1048F000E4937012740193700DA3A393F874019361
:10490000F5828883E4737402936860EFA3A3A380A5
:10491000DFE50F2582F582E50E3583F583B50E04BC
:1049200085820F2210AF0685820FF50E2285820F39
:10493000F50ED2AF22EC8EF0A4CCC5F0CCCDF8EFC2
:10494000A4CEC5F02DFDE43CFCE8A42EC8C5F03D86
:10495000FDE43CFCEFA4FFE5F028FEE43DFDE43C73
:10496000FC22E709F608DFFA8046E709F208DFFAD9
:10497000803E88828C83E709F0A3DFFA8032E30966
:10498000F608DFFA806EE309F208DFFA80668882B3
:104990008C83E309F0A3DFFA805A89828A83E0A33B
:1049A000F608DFFA804E89828A83E0A3F208DFFAF4
:1049B000804280D280FA80C680D4805580F28029DF
:1049C000801080A680EA809A80A880DA80E280CA7F
:1049D000802988848C8589828A83E493A30586F064
:1049E000A30586DFF5DEF3800B89828A83E493A337
:1049F000F608DFF9ECFAA9F0EDFB2288848C8589B2
:104A0000828A83E0A30586F0A30586DFF6DEF480C4
:104A1000E389828A83E493A3F208DFF980D688F0E1
:104A2000EF60010E4E60CD88F0ED2402B40400501A
:104A3000C3F582EB2402B4040050B923234582233A
:104A40009049B273E709F60870FA8046E709F20860
:104A500070FA803E88828C83E709F0A370FA807434
:104A6000E309F60870FA806CE309F20870FA8064D2
:104A700088828C83E309F0A370FA805889828A8344
:104A8000E0A3F60870FA804C89828A83E0A3F208DA
:104A900070FA804080D280FA80C680D4805180F243
:104AA0008027801080A680EA809A80A880DA80E241
:104AB00080CA802788848C8589828A83E493A305B1
:104AC00086F0A3058670F5800B89828A83E493A320
:104AD000F60870F9ECFAA9F0EDFB2288848C858940
:104AE000828A83E0A30586F0A3058670F680E589B7
:104AF000828A83E493A3F20870F980D888F0ED24C9
:104B000002B4040050CEF582EB2402B4040050C479
:104B10002323458223904A9473C5F0F8A3E028F03C
:104B2000C5F0F8E582158270021583E038F022A303
:104B3000F8E0C5F025F0F0E582158270021583E0FB
:104B4000C838F0E822E6FC08E6FD08E6FE08E6FFC5
:104B500022E0FCA3E0FDA3E0FEA3E0FF22E2FC08CC
:104B6000E2FD08E2FE08E2FF22E493FC740193FDFB
:104B7000740293FE740393FF22ECF608EDF608EE40
:104B8000F608EFF622ECF208EDF208EEF208EFF28A
:104B900022205945530000204E4F0000000D0A000E
:104BA0004669726D776172652076657273696F6EA2
:104BB0003A2000572D465944204D4F442076362E3A
:104BC000312E30002E0D0A0D0A004445564943454A
:104BD00020494E464F0D0A0049443A2025640D0AEB
:104BE000004E756D626572206F662073656E736F1F
:104BF00072733A2025640D0A00537570706C792029
:104C000074656E73696F6E3A2025640D0A00505703
:104C10004D204C696D69743A2025640D0A004D4F92
:104C2000544F5220494E464F0D0A004D6F746F721B
:104C3000207265666572656E6365733A200025644F
:104C400020004D6F746F7220656E61626C65643A0E
:104C500020005945530D0A004E4F0D0A000D0A4D14
:104C60004541535552454D454E545320494E464FAC
:104C70000D0A0053656E736F722076616C75653A2C
:104C80000D0A002564202D3E20256400566F6C74AB
:104C900061676520286D56293A20256C64004375AC
:104CA0007272656E74203120286D41293A20256C7E
:104CB000640043757272656E74203220286D41293C
:104CC0003A20256C64000D0A44455649434520505E
:104CD0004152414D45544552530D0A00504944201C
:104CE000436F6E74726F6C6C65723A0D0A005020DF
:104CF0002D3E2025660D0A0049202D3E2025660DFB
:104D00000A0044202D3E2025660D0A00537461726E
:104D10007475702061637469766174696F6E3A208E
:104D20005945530D0A0053746172747570206163A4
:104D30007469766174696F6E3A204E4F0D0A0053A4
:104D4000656E736F72207265736F6C7574696F6EC8
:104D50003A0D0A004D6561737572656D656E74205C
:104D60004F66667365743A0D0A002564202D3E2057
:104D7000256C64004D6561737572656D656E742098
:104D80004D756C7469706C6965723A0D0A00256422
:104D9000202D3E20256600506F736974696F6E2068
:104DA0006C696D6974206163746976653A20256465
:104DB00000506F736974696F6E206C696D6974203F
:104DC0006D6F746F722025643A20696E66202D3EE7
:104DD00020256C64202000737570202D3E20256CEA
:104DE000640D0A004D61782073746966666E6573A0
:104DF000733A2025640043757272656E74206C6985
:104E00006D69743A20256400466F7263653A202507
:104E1000640049523A2025640064656275673A204F
:104E2000256C64000000000000000000000000008D
:104E30000000000000000000000000000000000072
:104E40000000000000000000000000000000000062
:104E50000000000000000000000000000000000052
:104E60000000000000000000000000000000000042
:10536000000000000000000000000031202D20445B
:1053700065766963652049443A0032202D20506FDC
:10538000736974696F6E20504944205B502C20492A
:105390002C20445D3A0033202D20537461727475C3
:1053A000702041637469766174696F6E3A00000021
:1053B000000034202D205265736F6C7574696F6E18
:1053C000733A0035202D204D6561737572656D65EA
:1053D0006E74204F6666736574733A0036202D2014
:1053E0004D756C7469706C696572733A0037202D65
:1053F00020506F732E206C696D697420616374692D
:1054000076653A00000000000038202D20506F73B0
:105410002E206C696D697473205B696E662C207335
:1054200075705D3A0039202D204D617820737465C8
:105430007073205B6E65672C20706F735D3A00316E
:1054400030202D2043757272656E74206C696D6911
:10545000743A003131202D2050756C7365206D6FCA
:1054600064616C6974793A0000000000000000314A
:1054700032202D20507265737375726520626F75CE
:105480006E6473205B6D61782C206D696E5D3A00EF
:1054900000003133202D2050756C736520667265D5
:1054A0007175656E63793A003134202D20506F7725
:1054B00065722074656E73696F6E3A00000030206B
:1054C0002D3E2044656163746976617465205B4E8E
:1054D0004F5D0A31202D3E20416374697661746509
:1054E000205B5945535D0A00E53D2486F582E4348E
:1054F00004F583E0053D2290048330080390048680
:10550000E475F0011248CB0246752001E97F2ED2E6
:10551000018018EF540F2490D43440D4FF30050B91
:10552000EF24BFB41A0050032461FFE53E6002156A
:105530003E0541E5417002054030080E900483E4C9
:1055400075F0011248CBEF0246BB0292D97403D228
:10555000088003E4C208F53D9004831248E2E4F5B4
:105560003EF540F541E53E60077F2012552B80F562
:10557000753FFFC202C201C203C204C206C207C213
:10558000091254F7FF700D3008057F0012553CAF2B
:1055900041AE4022B4255FC2D5C2051254F7FF24A4
:1055A000D0B40A00501A75F00A783E30D50508B616
:1055B000FF0106C6A426F620D5047002D20480D9C5
:1055C00024CFB41A00EF5004C2E5D20502582ED2FF
:1055D0000280C6D20180C0D20380BCD2D580BAD2AC
:1055E0000680B47F2012552B2003077401B53E00BE
:1055F00040F11254E8FF12552B025565D209D2072B
:1056000080951254E8FB1254E8FA1254E8F94A4B18
:105610007006792C7A597BFF20032EE53E602A7EA6
:10562000008E8275830012468E60060EEE653F7016
:10563000F0C2D5EBC0E0EAC0E0E9C0E0EE12588F5E
:10564000D0E0F9D0E0FAD0E0FB124675FF60AAEB9B
:10565000C0E0EAC0E0E9C0E012552BD0E02401F937
:10566000D0E03400FAD0E0FBE53F0460DCD53FD960
:105670008087D20380A212587160F7E53F70010461
:105680001244C3A93F600DE53F600914F53F12596C
:1056900019EF60F3EA30E702F404C3995079EAF4B1
:1056A000253F0430E701E404F53F800D1258716096
:1056B000C1EA053F253F1244C3EA9004B2F030E747
:1056C00001E4253F04D53F042006011412588FE45D
:1056D000C0E01259199004B2E0601320E70714F0FB
:1056E000125513802204F0D0E014C0E07F00125560
:1056F00013E53F600712550A153F800B3006031271
:10570000550AD0E0025565D0E00480C4125871609B
:105710009EE53F041244C39004B2EAF0E53F200640
:1057200002600104240412588F74FF04C0E012596F
:1057300019125513E53F200602600312550AD0E006
:10574000B53FE87F4512551D9004B2E07F2B30E74E
:10575000047F2DF404C0E012552BD0E075F00A84CC
:10576000C0F0125514D0E01255140255657910801E
:10577000027908C207C2098008D2D5790A80047963
:105780000AC2D5E53F047002F53FE4FAFDFEFF12C0
:1057900054E8FC7B082002131254E8FD7B10300112
:1057A0000A1254E8FE1254E8FF7B20EC3382D592B3
:1057B000D55013C3E43001069FFFE49EFEE42002AF
:1057C000039DFDE49CFCE4CBF8C202EC700CCFCE50
:1057D000CDCCE824F8F870F38017C3EF33FFEE3335
:1057E000FEED33FDEC33FCEB33FB994002FB0FD8AD
:1057F000E9EB300205F8D0E0C448B202C0E00AECA0
:105800004D4E4F78207B0070C2EAB53F0040BCC0CF
:10581000E0125891D0F0D0E0200204C4C0E0C4B23D
:1058200002C0F0125514D0F0D5F0EB0255651248C5
:10583000EB560253576D5855D34C55CF4257714FC5
:1058400057794457794955E843577F5556AC4657E1
:105850000C45567647594C5055D72D55DB2E55FEE5
:105860002B55DF2355FC2059352A55974800005504
:10587000F6E53FB4FF03753F061254E8FC1254E806
:10588000FD1254E8FE1254E8FF9004AB0245007983
:105890000AA2D5200414300609B910020404B9087C
:1058A0000104A2D52007025001042003689203B529
:1058B0003E005034C0E07F203004197F30A20372D4
:1058C000077206500F1258E8C203C207C206C20987
:1058D0007F30800F300603E9C0E012552B300603FD
:1058E000D0E0F9D0E0B53ECC3006177F30B9100CCF
:1058F00012552B7F583005077F788003B9080312B3
:10590000552B3003057F2D02552B7F202009F87F72
:105910002B2007F322920380CF7F00B40700500BA7
:1059200024ABF582E43404F583E0FF22286E756C25
:105930006C2900D2021254E83002F8C202783E30DC
:10594000D50108F60255972D504349581254E824C2
:1059500003B405004001E49059479312551C743A72
:1059600012551CD204753E0402576D8F23E4F527AF
:10597000F526F525F5249006DAE0FCA3E0FDA3E08A
:10598000FEA3E0F52F8E2E8D2D8C2CA3E0FCA3E042
:10599000FDA3E0FEA3E0F5338E328D318C30A3E021
:1059A000FCA3E0FDA3E0FEA3E0F5378E368D358C39
:1059B00034E523C394024003025D31E52325E0254D
:1059C000E0246BF582E43408F583E0F8A3E0F9A362
:1059D000E0FAA3E0FBE52325E025E02433F582E4AB
:1059E0003407F583E0FCA3E0FDA3E0FEA3E0C39B46
:1059F000F52BEE9AF52AED99F529EC98F528300D5E
:105A000005C20D12756DE52325E025E0240EF58213
:105A1000E43409F583C083C082E0FCA3E0FDA3E089
:105A2000FEA3E0252BFFEE352AFEED3529FDEC35F2
:105A300028FCD082D0831248BFE52325E025E0244E
:105A40000EF582E43409F583E0FCA3E0FDA3E0FE5B
:105A5000A3E0FF7BA07A8679017800C31248245026
:105A60001C7FA07E867D017C00E52325E025E024C7
:105A70000EF582E43409F5831248BF8042E5232500
:105A8000E025E0240EF582E43409F583E0FCA3E090
:105A9000FDA3E0FEA3E0FF7B607A7979FE78FFD377
:105AA000124824401A7F607E797DFE7CFFE5232525
:105AB000E025E0240EF582E43409F5831248BF3076
:105AC0000D05C20D12756DE4F527F526F525F524B3
:105AD000FFFEFDFCAB2FAA2EA92DA82CC312482433
:105AE000606AE4FFFE7D02FCAB2BAA2AA929A82844
:105AF000D3124824500FE4FFFE7DFE7CFFA828C38C
:105B00001248245027AF2BAE2AAD29AC28780812B2
:105B1000485EAB2FAA2EA92DA82C1246EC780812AD
:105B2000485E8F278E268D258C248020AF2BAE2AB1
:105B3000AD29AC28AB2FAA2EA92DA82C1246EC78A3
:105B40001012485E8F278E268D258C24300D05C2BD
:105B50000D12756DE4FFFEFDFCAB33AA32A931A82E
:105B600030C31248246043AF33AE32AD31AC30782D
:105B70000612485EE52325E025E0240EF582E43494
:105B800009F583E0F8A3E0F9A3E0FAA3E0FB1246ED
:105B9000EC780A12485EE5272FF527E5263EF52624
:105BA000E5253DF525E5243CF524E4FFFEFDFCABB1
:105BB00037AA36A935A834C31248246063E52325E3
:105BC000E025E0246BF582E43408F583E0F8A3E0F7
:105BD000F9A3E0FAA3E0FBE52325E025E0249CF50A
:105BE00082E43407F583E0FCA3E0FDA3E0FEA3E03C
:105BF000C39BFFEE9AFEED99FDEC98FCAB37AA36FD
:105C0000A935A8341246EC781012485EE5272FF526
:105C100027E5263EF526E5253DF525E5243CF5243A
:105C2000300D05C20D12756DE523701AFFFEFDFCE7
:105C3000AB27AA26A925A824C31248244004D20FC2
:105C4000801DC20F8019E4FFFEFDFCAB27AA26A928
:105C500025A824C31248244004D2108002C2103068
:105C60000D05C20D12756DE47F64FEFDFCAB27AA25
:105C700026A925A824D3124824400AE4752764F5F0
:105C800026F525F52474FF7F9CFEFDFCAB27AA2694
:105C9000A925A824C3124824500B74FF75279CF52E
:105CA00026F525F524300D05C20D12756DAF27AE12
:105CB00026AD25AC24780A124872E47B64FAF9F820
:105CC000128C7DA804A905AA06AB0790088BE0FFFB
:105CD000E4FCFDFE1246EC780A12485E8F278E2601
:105CE0008D258C24300F113010077F0312996D80A1
:105CF000167F0112996D800F3010077F0212996D87
:105D00008005E4FF12996D300D05C20D12756DE529
:105D100023700CAE26AF271297F2129901800AAEBB
:105D200026AF271297F2129907300D05C20D127592
:105D30006D22129973EF700A300DF7C20D12756D56
:105D400080F0900862E0249AFF900861E034F9FE48
:105D50003395E0FDFCE47BA07A07F9F81246EC7875
:105D60000712485E9007C21248BF300D05C20D12DF
:105D7000756DE4FFFEFDFC9007C2E0F8A3E0F9A317
:105D8000E0FAA3E0FBD31248245003025E1112761E
:105D900094300D05C20D12756D900864E0249AFFD1
:105DA000900863E034F9FE3395E0FDFCE47BAB7AC8
:105DB00064F9F81246EC780D12485EEE3395E0FD7A
:105DC000FC1284E2900873EEF0A3EFF0300D05C2F0
:105DD0000D12756D900866E0249AFF900865E03416
:105DE000F9FE3395E0FDFCE47BAB7A64F9F81246EA
:105DF000EC780D12485EEE3395E0FDFC128557906D
:105E00000875EEF0A3EFF0300D12C20D12756D8023
:105E10000BE4900873F0A3F0A3F0A3F0900868E0FF
:105E2000249AFE900867E034F9900881F0A3CEF040
:105E3000900780E0FCA3E0FDA3E0FEA3E0FFEC12EE
:105E400044047B327A55797D78411241E51244420F
:105E5000900916EEF0A3EFF0900784E0FCA3E0FDBC
:105E6000A3E0FEA3E0FFEC124404E4FBFA79B4786B
:105E7000411241E5124442900918EEF0A3EFF09070
:105E8000086AE024C9FF900869E034FFFE900885A5
:105E9000F0A3EFF0D394C0EE6480948D400A900894
:105EA00085740DF0A374C0F0300D05C20D12756D30
:105EB00090078CE070030260F2300A0302601C90CD
:105EC0000918E0FEA3E0FFC3900886E09FEE64801F
:105ED000F8900885E06480985019E4FFFEFDFC907E
:105EE00008871248BF200D03025FCEC20D12756DE8
:105EF000025FCE900916E0FEA3E0FFD3900886E093
:105F00009FEE6480F8900885E06480984019E4FF73
:105F1000FEFDFC9008871248BF200D03025FCEC231
:105F20000D12756D025FCE900918E0FCA3E0FDEC48
:105F3000124409C004C005C006C007900916E0FC61
:105F4000A3E0FDEC124409D003D002D001D000122E
:105F500040F0C004C005C006C007900918E0FCA3CB
:105F6000E0FDEC124409C004C005C006C00790085B
:105F700085E0FCA3E0FDEC124409D003D002D0017F
:105F8000D0001240F0D003D002D001D0001242EE77
:105F9000E4FBFA795C78421241E59008871248BF29
:105FA000300D05C20D12756D900887E0FCA3E0FD71
:105FB000A3E0FEA3E0FFE4FBFA79AA78421240F4E2
:105FC0009008871248BF300D05C20D12756D9008FC
:105FD00087E0FCA3E0FDA3E0FEA3E0FF900797129B
:105FE00048BF900797E0FCA3E0FDA3E0FEA3E0FF1D
:105FF0001244429007BCEEF0A3EFF0300D05C20D45
:1060000012756D9007BCE0FEA3E0FF12934CD20A1C
:10601000200D030260F2C20D12756D22E4FFFE7DB9
:10602000AA7C42900797E0F8A3E0F9A3E0FAA3E086
:10603000FB12438B600250030260E1900797E0FC83
:10604000A3E0FDA3E0FEA3E0FF1244429007BCEEF4
:10605000F0A3EFF012934C300D05C20D12756D9048
:106060000797E0FCA3E0FDA3E0FEA3E0FFC004C0AF
:1060700005C006C007E4FFFE7DA87CC2900887E04B
:10608000F8A3E0F9A3E0FAA3E0FB1240F47B3B7A2B
:1060900040798B78371241E5C004C005C006C007BF
:1060A000900791E0FCA3E0FDA3E0FEA3E0FFEC126B
:1060B0004404D003D002D001D0001241E5A804A9C5
:1060C00005AA06AB07D007D006D005D0041240F0D1
:1060D0009007971248BFD20A300D17C20D12756D86
:1060E000227F557E0012934CC20A300D05C20D125C
:1060F000756D22753B02900757E0FCA3E0FDA3E01D
:10610000FEA3E0FF9006F3E0F8A3E0F9A3E0FAA312
:10611000E0FB12438B6058900854E0FCA3E0FDA321
:10612000E0FEA3E0FFEC1244049006F3E0F8A3E0E5
:10613000F9A3E0FAA3E0FB1242EE124442900854A5
:106140001248BF900854E0FCA3E0FDA3E0FEA3E0EA
:10615000FFEC124404900757E0F8A3E0F9A3E0FA3B
:10616000A3E0FB1241E51244429008541248BF904C
:10617000075BE0FCA3E0FDA3E0FEA3E0FF9006F7D1
:10618000E0F8A3E0F9A3E0FAA3E0FB12438B605828
:10619000900858E0FCA3E0FDA3E0FEA3E0FFEC12B2
:1061A00044049006F7E0F8A3E0F9A3E0FAA3E0FBCB
:1061B0001242EE1244429008581248BF900858E02C
:1061C000FCA3E0FDA3E0FEA3E0FFEC124404900773
:1061D0005BE0F8A3E0F9A3E0FAA3E0FB1241E512CB
:1061E00044429008581248BF90074FE0FCA3E0FDDE
:1061F000A3E0FEA3E0FF9006EBE0F8A3E0F9A3E044
:10620000FAA3E0FBC31248246057900854E0F8A3B7
:10621000E0F9A3E0FAA3E0FBC000C001C002C003A4
:106220009006EBE0F8A3E0F9A3E0FAA3E0FB900707
:106230004FE0FCA3E0FDA3E0FEA3E0C39BFFEE9ACA
:10624000FEED99FDEC98FCD003D002D001D000EB1C
:106250002FFFEA3EFEE93DFDE83CFC900854124861
:10626000BF900753E0FCA3E0FDA3E0FEA3E0FF9096
:1062700006EFE0F8A3E0F9A3E0FAA3E0FBC31248BD
:10628000246057900858E0F8A3E0F9A3E0FAA3E0EF
:10629000FBC000C001C002C0039006EFE0F8A3E01D
:1062A000F9A3E0FAA3E0FB900753E0FCA3E0FDA311
:1062B000E0FEA3E0C39BFFEE9AFEED99FDEC98FC97
:1062C000D003D002D001D000EB2FFFEA3EFEE93D23
:1062D000FDE83CFC9008581248BF9006FBE07003B4
:1062E0000263B9A3E0FCA3E0FDA3E0FEA3E0FF90FE
:1062F0000854E0F8A3E0F9A3E0FAA3E0FBC31248D6
:106300002450149006FCE0FCA3E0FDA3E0FEA3E013
:10631000FF9008541248BF900700E0FCA3E0FDA3E3
:10632000E0FEA3E0FF900858E0F8A3E0F9A3E0FA4C
:10633000A3E0FBC31248245014900700E0FCA3E044
:10634000FDA3E0FEA3E0FF9008581248BF900704A9
:10635000E0FCA3E0FDA3E0FEA3E0FF900854E0F81A
:10636000A3E0F9A3E0FAA3E0FBD312482440149081
:106370000704E0FCA3E0FDA3E0FEA3E0FF900854C7
:106380001248BF900708E0FCA3E0FDA3E0FEA3E0F5
:10639000FF900858E0F8A3E0F9A3E0FAA3E0FBD3EC
:1063A0001248244014900708E0FCA3E0FDA3E0FE9F
:1063B000A3E0FF9008581248BF90073DE0FF900609
:1063C000D9E0FE6F603F8E3EE4FFFE127D53EF602A
:1063D0001B753C01753D017B007A00793CE53BFD76
:1063E0007C00900007E53EF012815522E4F53CF573
:1063F0003DFB7A00793CE53BFD7C00900007E53EE3
:10640000F012815522E4FFFE127D53EF60067F01FA
:10641000128EE922E4FF128EE922900002EDF08F45
:1064200023E523C3940240030266D4300B227B028F
:10643000AF031BEF6018E4FFFEFDFCEB25E025E059
:10644000241AF582E43409F5831248BF80E2C20BB6
:10645000E5237013129828EFEEED5403FDE4FC9051
:1064600000031248BF8011129832EFEEED5403FD85
:10647000E4FC9000031248BF7B017A007903128785
:106480002040030266D4900003E0FCA3E0FDA3E0FB
:10649000FEA3E054C0FFEEED5403FDE4FC780212CD
:1064A000484BC3E49FFB74809EFAE49DF9E49CF89A
:1064B000E52325E025E0244FF582E43407F583E069
:1064C000FCA3E0FDA3E0FEA3E02BFFEA3EFEE93DD6
:1064D000FDE83CFC124816EE3395E0FDFC90000709
:1064E0001248BF900007E0FCA3E0FDA3E0FEA3E09C
:1064F000FF1248169000071248BF3011279000077E
:10650000E0FCA3E0FDA3E0FEA3E0FFE52325E025FA
:10651000E0241AF582E43409F5831248BFE523B478
:106520000102C211E52325E025E0241AF582E434B6
:1065300009F583E0F8A3E0F9A3E0FAA3E0FB9000FB
:1065400007E0FCA3E0FDA3E0FEA3E0C39BFFEE9AFF
:10655000FEED99FDEC98FCA31248BFE4FF7EC0FD60
:10656000FC90000BE0F8A3E0F9A3E0FAA3E0FBD372
:10657000124824401074772523F582E43408F5830B
:10658000E014F080687F007E407DFF7CFF90000B70
:10659000E0F8A3E0F9A3E0FAA3E0FBC3124824501B
:1065A0001074772523F582E43408F583E004F08045
:1065B0003C90000BE0A3E0A3E0FEA3E0FF1297F203
:1065C000D3EF9400EE648094C0402274222523F51A
:1065D00082E43409F583E004F074222523F582E493
:1065E0003409F583E0C3940A50030266D47422256B
:1065F00023F582E43409F583E4F0900007E0FCA37E
:10660000E0FDA3E0FEA3E0FFE52325E025E0241A5A
:10661000F582E43409F5831248BF900007E0F8A33F
:10662000E0F9A3E0FAA3E0FBC00074772523F5822C
:10663000E43408F583E0FF3395E0FEFDFC781012AA
:106640004872D000EB2FFFEA3EFEE93DFDE83CFC3E
:106650009000071248BFE52325E025E024F3F582EA
:10666000E43406F583E0FCA3E0FDA3E0FEA3E0FF35
:10667000E4FBFA7980783F12438B6038900007E0A2
:10668000FCA3E0FDA3E0FEA3E0FFEC124404E5233D
:1066900025E025E024F3F582E43406F583E0F8A351
:1066A000E0F9A3E0FAA3E0FB1241E51244429000B6
:1066B000071248BF900007E0FCA3E0FDA3E0FEA3A3
:1066C000E0FFE52325E025E0246BF582E43408F5BE
:1066D000831248BF2290079BE024FE700302679953
:1066E00014700302687E14607614700302686B24D1
:1066F00004600302689F1298D39006DAE0FCA3E0DE
:10670000FDA3E0FEA3E0FF9009241248BF9006DE3F
:10671000E0FCA3E0FDA3E0FEA3E0FF9009281248FF
:10672000BF9006E2E0FCA3E0FDA3E0FEA3E0FF9043
:10673000092C1248BFE4FFFEFDFC9008541248BF2C
:10674000E4FFFEFDFC9008581248BF90085CE0543E
:106750000370057F0312994390079B7404F0229005
:106760000930E004F0E0640A600302689FF07F995A
:106770007E19FDFC9006DA1248BFE4FFFEFDFC9096
:1067800006DE1248BFE47FCC7E4CFDFC9006E21290
:1067900048BF90079B7402F022900854E0FCA3E0ED
:1067A000FDA3E0FEA3E0245BFFE43EFEE43DFDE448
:1067B0003CFC9008541248BF900858E0FCA3E0FD50
:1067C000A3E0FEA3E0C3945BFFEE9400FEED940013
:1067D000FDEC9400FC9008581248BFD3900874E078
:1067E00094E8900873E0648094835013900876E0F6
:1067F00094E8900875E064809483500302689F9049
:106800000733E0A3E0A3E0FFA3E0900770CFF0A37D
:10681000EFF0900924E0FCA3E0FDA3E0FEA3E0FF7D
:106820009006DA1248BF900928E0FCA3E0FDA3E03F
:10683000FEA3E0FF9006DE1248BF90092CE0FCA307
:10684000E0FDA3E0FEA3E0FF9006E21248BFE4FFF4
:10685000FEFDFC9008541248BFE4FFFEFDFC9008CA
:10686000581248BF90079B7405F022900930E0044D
:10687000F0E0640A7029F090079B7403F0229008FE
:106880005CE054037004FF1299437F087E00127D80
:1068900053E4FFFE127D53E490079BF01298CC2244
:1068A000129991128B0EE47F64FEFDFC12826A7FC6
:1068B000011299551293901295D01290771291CFA0
:1068C00012968E7E997F9C1293F31296557E997F35
:1068D000991294121295E3129668E4FF129901E45A
:1068E000FF129907E4FF12996DE4FF129943129584
:1068F000F612960912961C1294BE7F01129979E441
:10690000900006F0A3F0FBFA7D017F02128BA690A7
:106910000000EFF0128DC1900001EFF0E0FBFF905E
:1069200000067486F07D0A7C001282F27B017A08F0
:106930007961E9EAE4AB01900001E0FF7D107C4E53
:1069400012846A900000E0FFA3E0FD1294509000D2
:1069500000E0FF7D01128B5BE4FF12993D12962F40
:10696000129642D2AF9044F474FDF0E47F0AFEFD2B
:10697000FC12826A7B02AF031BEF6018E4FFFEFD8E
:10698000FCEB25E025E02433F582E43407F583129F
:1069900048BF80E27B02AF031BEF6024E4FFFEFDF3
:1069A000FCEB25E025E0246BF582E43408F5831246
:1069B00048BF74772BF582E43408F583E4F080D681
:1069C00078547C087D017B017A0779337E007F094A
:1069D000124A1E9006E8E090073BF0E490084FF062
:1069E000A3F0900853F0FFFE127D53EF60077F0184
:1069F000128EE98005E4FF128EE990073BE0FF125A
:106A00009943E490088BF0C20E90079BF0C20B9064
:106A10000773E070077F011299858005E4FF1299E2
:106A200085E4FF129967127BB9129961EF702030EB
:106A30000D0E7F0112998BC20DC20C12756D80E98B
:106A4000300CE67F0112998BE490085CF080DA7FCD
:106A500001129967129961EF640160F81295BCEF19
:106A600030E7BE1291CF80B92290073D7401F0E467
:106A70007F997E19FDFCA31248BFE4FFFEFDFC9048
:106A800007421248BFE47FCC7ECCFDFC9007461243
:106A900048BF90074C7401F0E4900773F090075FD3
:106AA00004F0E4F53BE53BC39402502BE4FFFE7D8C
:106AB000807C3FE53B25E025E02457F582E4340760
:106AC000F5831248BF744D253BF582E43407F58306
:106AD0007403F0053B80CEE4F53BE53BC3940250E4
:106AE00070744D253BF582E43407F583E0FF74684C
:106AF0007EC5A807088005C333CE33CED8F9FFEE94
:106B00003395E0FDFCE53B25E025E02460F582E4DB
:106B10003407F5831248BF744D253BF582E43407F2
:106B2000F583E0FF74987E3AA807088005C333CE4A
:106B300033CED8F9FFEE3395E0FDFCE53B25E025AB
:106B4000E02468F582E43407F5831248BF053B80F2
:106B500089E47F78FEFDFC9007801248BFE47F6CDB
:106B60007E07FDFC90077C1248BFE47F3CFEFDFCE5
:106B70009007841248BFE47F467E05FDFC9007889D
:106B80001248BF7F9C7EDC7DEF7C3A90078D1248D7
:106B9000BFE47F6EFEFDFC9007911248BFE49007B2
:106BA0008CF09007957417F0A37470F0E4FFFEFD6D
:106BB000FC90074DE0F9F812487290074F1248BF59
:106BC000E4FFFEFDFC90074EE0F9F81248729007D2
:106BD000531248BFE47FB87E0BFDFC90074DE0F9EF
:106BE000F8124872900770EEF0A3EFF090074A7425
:106BF00005F0A374DCF090073C7401F0E4FFFE1292
:106C00007D53EF600E7F087E00127D53EF60047F9E
:106C10000180027F0022900003ECF0A3EDF0A3EAD4
:106C2000F0A3EBF0900008E0FED394005003026D57
:106C3000B6EED394014003026DB6EF24FC60152438
:106C4000FD603C14606224FE7003026CD124096074
:106C500003026CFA900007E0D3940F40117B0C7A8A
:106C60000179181297CE900009EFF0026CFF7B0CAF
:106C70007A01791C1297CE900009EFF0026CFF9018
:106C80000007E0D3940F40107B0C7A01791912971A
:106C9000CE900009EFF080677B0C7A01791D129786
:106CA000CE900009EFF08057900007E0D3940F409A
:106CB000107B0C7A01791A1297CE900009EFF080C0
:106CC0003E7B0C7A01791E1297CE900009EFF0807E
:106CD0002E900007E0D3940F40107B0C7A01791BB3
:106CE0001297CE900009EFF080157B0C7A01791F86
:106CF0001297CE900009EFF08005E4900009F09023
:106D00000009E0FF3395E0FEFDFCE47B20FAF9F892
:106D10001246ECA804A905AA06AB07900003E0FE02
:106D2000A3E0FFE4FCFDEB2FFFEA3EFEED39FDECB6
:106D300038FCAB07AA06A905F8A3E0FEA3E0FFE430
:106D4000FCFD1246ECE4FB7A80F9F8124777AD07B8
:106D5000AC06900007E0C3940E502FE0FBC3740E06
:106D60009BFFEDA807088005CEC313CE13D8F9FD0D
:106D7000AC06EB04FF900008E075F003A424CCF50A
:106D800082E43409F583EFF08014900008E075F098
:106D900003A424CCF582E43409F583740FF0AF0525
:106DA000900008E075F003A424CAF582E43409F5E4
:106DB00083ECF0A3EFF0227B007A4079807D027CA7
:106DC000001296F29040827418F07B007A40798429
:106DD000E4FDFC1296F29040867450F07B007A40FD
:106DE00079887DFF7C0F1296F290408A741BF07BAD
:106DF000007A40798C7D0B7C001296F290408E7464
:106E000019F07B007A4079907D2F7C001296F290E9
:106E100040927418F07B007A4079947DEF7C0012E8
:106E200096F29040967418F07B007A407998E4FDD1
:106E3000FC1296F290409A741BF07B087A1F79F846
:106E400090000AE4F0A37441F0A3E4F07F04FE1282
:106E500090109043007406F09042007452F07B0C46
:106E60007A01790F1297CE9046A1EFF07B007A421B
:106E700079227D107C071296F27B007A4279207D80
:106E8000517C121296F2E4900004F07F19FEFDFC92
:106E90009000001248BF900000E0A3E0A3E0FEA332
:106EA000E0D39400EE9400404AA3E0FF6403604303
:106EB000904225E05401FEEF25E04E54039000047B
:106EC000F0E47FE07E01FDFC128F00900000E0FC0A
:106ED000A3E0FDA3E0FEA3E0FF74FFEF24FFFFEEBD
:106EE00034FFFEED34FFFDEC34FFFC90000012484F
:106EF000BF80A3900000E0A3E0A3E0FEA3E04E70FB
:106F0000057F0312999F7B007A4079047D007C0104
:106F10001296F29040047407F0904006E4F090401E
:106F2000087448F0904004E4F0904009F09040016B
:106F30007402F090400B7404F09043A2E0447FF0A0
:106F40009043A1E04401F09043A0E04480F02290FF
:106F500007CFE0F53A7B017A0779CF90084FE0A39D
:106F6000E014FD1290AA90084FE0FCA3E024CEF5B7
:106F70008274073CF583E0B50703D38001C3400664
:106F8000E4900853F022E53A1248EB70370070277E
:106F900001703B03703F04705505701B0670790942
:106FA00070670A702B0C700B807013817003826FF6
:106FB000DB836FD7846FFB856FFF86700789700F47
:106FC0008F7017906FEB936FDF946FEF956FF39661
:106FD0006FF7970000709A12863F221287F6229070
:106FE00007D0E0FEA3E0FF12934C221290DC2212A5
:106FF0008F3B2212904422128D8322128C37221250
:1070000086B02212709B2212891722128E782212C9
:107010008CC12212916F221293D3229007D0E0FEEE
:10702000A3E0FF1294A522127C97229007D0E0FEE5
:10703000A3E0FF12261A22129509221260F3227F82
:10704000087E00127D53EF60067F01128EE922E474
:10705000FF128EE922128BF0EF60067F01128EE99B
:1070600022E4FF128EE922126A69EF60067F0112A4
:107070008EE922E4FF128EE9227F01128EE9E47F7D
:10708000E87E03FDFC12826AE4FF129955E47FE872
:107090007E03FDFC12826A12983C229007D0E0FE2B
:1070A000A3E0FFEE3395E0FDFC9008541248BF903A
:1070B0000854E0FCA3E0FDA3E0FEA3E0FF90074D31
:1070C000E0F9F81248729008541248BF9007D2E0D5
:1070D000FEA3E0FFEE3395E0FDFC9008581248BF98
:1070E000900858E0FCA3E0FDA3E0FEA3E0FF9007BA
:1070F0004EE0F9F81248729008581248BF9006FB0B
:10710000E070030271DCA3E0FCA3E0FDA3E0FEA3BA
:10711000E0FF900854E0F8A3E0F9A3E0FAA3E0FB55
:10712000C312482450149006FCE0FCA3E0FDA3E049
:10713000FEA3E0FF9008541248BF900700E0FCA3B4
:10714000E0FDA3E0FEA3E0FF900858E0F8A3E0F91B
:10715000A3E0FAA3E0FBC31248245014900700E018
:10716000FCA3E0FDA3E0FEA3E0FF9008581248BF97
:10717000900704E0FCA3E0FDA3E0FEA3E0FF90087D
:1071800054E0F8A3E0F9A3E0FAA3E0FBD31248240B
:107190004014900704E0FCA3E0FDA3E0FEA3E0FFA1
:1071A0009008541248BF900708E0FCA3E0FDA3E05C
:1071B000FEA3E0FF900858E0F8A3E0F9A3E0FAA3EB
:1071C000E0FBD31248244014900708E0FCA3E0FD44
:1071D000A3E0FEA3E0FF9008581248BF22900002EF
:1071E000EEF0A3EFF0A3EDF01298BC900006EFF0E4
:1071F000129878900007EEF0A3EFF0900002E0FC08
:10720000A3E0FD6F7002EC6E700302730D9043A259
:10721000E05402900005F0A3E0703BA3E0FEA3E081
:10722000FF4E6004ED4C702EEF4E70117B027A40E1
:1072300079841296F4904086E054BFF02290408604
:10724000E04440F07B027A407984900002E0FCA3A5
:10725000E0FD1296F422900005E06054904001E4B5
:10726000F09040107402F0904014E4F0904008E078
:10727000547FF0904086E05408600A900002E0706D
:1072800002A3E0702B7B027A407902900007E0FCB9
:10729000A3E0FD1296F49040017407F0904001E0E5
:1072A000540170F89043A2E054FDF0904001E4F0E6
:1072B0009043A2E05402602F7B027A407902900052
:1072C00002E0FCA3E0FD1296F4900004E060047F6D
:1072D0000280027F00EF4401904001F0904001E005
:1072E0005401602980F6227B027A40798490000262
:1072F000E0FCA3E0FD1296F49043A2C083C082E0BC
:10730000FF900005E0FEEF4ED082D083F022900087
:1073100002EEF0A3EFF0A3EDF0129894900006EFC8
:10732000F012981E900007EEF0A3EFF0900002E03C
:10733000FCA3E0FD6F7002EC6E700302743D90439D
:10734000A2E05401900005F0A3E0703BA3E0FEA38F
:10735000E0FF4E6004ED4C702EEF4E70117B027A10
:107360004079801296F4904082E054BFF022904021
:1073700082E04440F07B027A407980900002E0FC99
:10738000A3E0FD1296F422900005E06053904001C6
:10739000E4F090401004F0904014E4F0904008E0D5
:1073A000547FF0904082E05408600A900002E07040
:1073B00002A3E0702B7B027A407902900007E0FC88
:1073C000A3E0FD1296F49040017407F0904001E0B4
:1073D000540170F89043A2E054FEF0904001E4F0B4
:1073E0009043A2E05401602F7B027A407902900022
:1073F00002E0FCA3E0FD1296F4900004E060047F3C
:107400000280027F00EF4401904001F0904001E0D3
:107410005401602980F6227B027A40798090000234
:10742000E0FCA3E0FD1296F49043A2C083C082E08A
:10743000FF900005E0FEEF4ED082D083F022900056
:1074400002EEF0A3EFF0A3EDF01298C4900006EF67
:10745000F0129882900007EEF0A3EFF0900002E0A7
:10746000FCA3E0FD6F7002EC6E700302756C90433C
:10747000A1E05401900005F0A3E0703AA3E0FEA360
:10748000E0FF4E6004ED4C702DEF4E70107B027AE1
:1074900041F91296F4904102E054BFF0229041026B
:1074A000E04440F07B027A417900900002E0FCA3C6
:1074B000E0FD1296F422900005E06053904001E454
:1074C000F090401404F0904010E4F0904008E05434
:1074D0007FF0904102E05408600A900002E07002E0
:1074E000A3E0702B7B027A407902900007E0FCA3B6
:1074F000E0FD1296F49040017407F0904001E054D2
:107500000170F89043A1E054FEF0904001E4F09047
:1075100043A1E05401602F7B027A4079029000027F
:10752000E0FCA3E0FD1296F4900004E060047F020A
:1075300080027F00EF4401904001F0904001E05450
:1075400001602980F6227B027A417900900002E0F6
:10755000FCA3E0FD1296F49043A1C083C082E0FF3B
:10756000900005E0FEEF4ED082D083F022E4F539A2
:10757000128ABFEF7003027693E539C39406400385
:107580000276931288BC8F38E50814604914606055
:10759000147003027623147003027671240470D0F1
:1075A000850C0B850D0C85380DE50CB43A11E50DF5
:1075B000B43A0CE4F50BF50CF50D75080180B1E556
:1075C0000BB43FACE50CB40DA7E50D640A70A1FF48
:1075D000FE1294A5809A9006D9E065386004E538DB
:1075E0007004C2008002D200E4F50A7508028080AF
:1075F00085380AE50AD394015008E4F50AF5080233
:107600007570E50AD394804008E4F50AF508027520
:1076100070E4F5092000067508030275707508040A
:10762000027570748C2509F582E43408F583E53819
:10763000F00509E509C3950A50030275702000257D
:10764000AF0A7E0078CF7C077D017B017A08798CB8
:10765000124A1E90084FE4F0A3E50AF09008537414
:1076600001F0126F4FE4F509F50AF50805390275C6
:1076700070150AE50A6003027570F509F50A7F01C5
:1076800012993DE4FF12993DE4F508053902757041
:107690000275702275246375259C75263975279EA1
:1076A000C3900796E09440900795E0941F507EAEFB
:1076B00026AF27E4FCFD9007C2E0F8A3E0F9A3E0C1
:1076C000FAA3E0FB1248244006E490088BF02290D5
:1076D0000795E0FEA3E0FFE4FCFD9007C2E0F8A3FD
:1076E000E0F9A3E0FAA3E0FBC31248245007900896
:1076F0008B7464F022900795E0FEA3E0FFFBAA06DE
:10770000E49007C2E0FCA3E0FDA3E0FEA3E0C39B7E
:10771000FFEE9AFEED9400FDEC9400FC780912480F
:107720005E8F23EF90A42B9390088BF022AE24AFB2
:1077300025E4FCFD9007C2E0F8A3E0F9A3E0FAA37A
:10774000E0FBD31248244006E490088BF022900717
:1077500095E0FEA3E0FFE4FCFD9007C2E0F8A3E0A3
:10776000F9A3E0FAA3E0FBC3124824500790088B6A
:107770007464F0229007C2E0FCA3E0FDA3E0FEA346
:10778000E024C0FFEE34E0FEED34FFFDEC34FFFCFE
:10779000780912485E8F23C3900796E094EC900717
:1077A00095E0942C500AEF90A4079390088BF02258
:1077B000E52390A3EA9390088BF02275930078005C
:1077C0007583467582E8E04401F00090480074C07B
:1077D000F07581479076BCE4F0A3F0A3F0A3F0909D
:1077E0007010F0907019F0907020F0907600741086
:1077F000F0907604E4F0A3F0A3F0A3F09078007882
:1078000000087400F0A37408F0E8B8040274FFA341
:10781000F0A37422F0A374BCF0A37476F0A3E4F098
:10782000A3E81475F008A4F0A3B804D59070107400
:1078300001F0907014F07E707F1812260490701082
:10784000F0EA9009DFF0022611750E1F750FFD1288
:1078500078D8128F710278930268A0E493A3F8E4B9
:1078600093A34003F68001F208DFF48029E493A398
:10787000F85407240CC8C333C4540F4420C88340B1
:1078800004F456800146F6DFE4800B010204081080
:107890002040809080B9E47E019360BCA3FF543FF8
:1078A00030E509541FFEE493A360010ECF54C025B8
:1078B000E060A840B8E493A3FAE493A3F8E493A3A8
:1078C000C8C582C8CAC583CAF0A3C8C582C8CAC50C
:1078D00083CADFE9DEE780BE7B007A4679E812974B
:1078E000CEEF4401FD7B007A4679E81297DA1279EF
:1078F000F1905883740AF07CA37DE67B007A767958
:10790000507F047E001293267B017A5079031297F0
:10791000CEEF4402FD7B017A5079031297DA7B01A6
:107920007A5079131297CEEF4402FD7B017A507999
:10793000131297DA9043A0E04440F09043C2E04431
:1079400010F07B087A1F79F090000AE4F0A37451DC
:10795000F0A37402F07F087E001290107CA37DC219
:107960007B007A5179C27F087E001293267CA37D2A
:10797000CA7B007A5179F07F0A7E001293267CA39D
:107980007DD47B007A5179107F0A7E001293267C89
:10799000A37DDE7B007A5179227F087E0012932638
:1079A0009044F47401F0904322E04408F09046ECD7
:1079B000E0C394055006904689743AF090480074EC
:1079C000F1F0126DB71292B17B007A4379A0C00337
:1079D000C00290000AEBF0A3EAF0A374B0F0D0026A
:1079E000D0037F0E7E001290109043B0E054FDF063
:1079F00022E4FFFEFDFC9009EF1248BF9076007470
:107A000010F09070107401F0907019E4F07B027A1D
:107A100078F97DE87C021296F49078027401F0A364
:107A200074A3F07B027A787904C003C002C0017BA2
:107A3000FF7AA079D4E9EAE4AD01AC02D001D0022A
:107A4000D0031296F47B027A7879067D087C78124E
:107A500096F47B027A7679047D107C001296F47B92
:107A6000027A767906E4FDFC1296F4907029740B84
:107A7000F090703904F0907059740FF09070697440
:107A80001DF09070797426F09070147401F090706D
:107A900018E0540170F8907028E0540170F890706C
:107AA00038E0540170F8907058E0540170F890700C
:107AB00068E0540170F8907078E0540170F87B0829
:107AC0007A0479C090000A7401F0A37451F0A37491
:107AD00010F07F067E0012901022900009EBF0A3B8
:107AE000EAF0A3E9F0A3EDF012959290000CE0C348
:107AF00094804003027BAD129431EF6003027BA5BA
:107B000090000D74FFF0900009E0FBA3E0FAA3E001
:107B1000F9900012E4F0A37410F07F401285CCEFCE
:107B20006407707C904722E0540260F8904722E09E
:107B300054026009E0FF1313543FFF80027FFFEF00
:107B4000700490000DF090000DE0704E90000CE07D
:107B5000FD7C009009EDE0FBA3E0900012F07F4077
:107B6000128A1BEF6407702A90000D74FFF0904793
:107B700022E0540260F8904722E054026009E0FFDE
:107B80001313543FFF80027FFFEF701490000DF03D
:107B9000800E90000D74FFF0800690000D74FFF0D1
:107BA0001297E6800E90000D7404F0800690000D90
:107BB0007401F090000DE0FF221296D490085D123F
:107BC00048BF7F01129979300D05C20D12756DE421
:107BD000FDFF12641A300D05C20D12756DE4FD7FB4
:107BE0000112641A300D05C20D12756DE4FF1259B1
:107BF0006B300D05C20D12756D7F0112596B300D82
:107C000005C20D12756D125D3290079BE07003D3B3
:107C10008001C3402490090CE07004A3E064647008
:107C20000A1266D5E490090CF0A3F090090DE00467
:107C3000F0700690090CE004F0300D05C20D1275CD
:107C40006D789C7C077D017B017A08796B7E007FD3
:107C500020124A1E78C67C077D017B017A077933A2
:107C60007E007F09124A1E78337C077D017B017AF2
:107C70000879547E007F09124A1E300D05C20D128C
:107C8000756D1296D49007BE1248BF7F407E4B7D23
:107C90004C7C0012985A22E4F53BE53BC394024029
:107CA00003027D4BE53B25E024D0F582E43407F563
:107CB00083E0FEA3E0FFC3E49FFFE49EFE3395E074
:107CC000FDFCE53B25E025E0244FF582E43407F593
:107CD000831248BFE53B25E025E0244FF582E434DC
:107CE00007F583E0FCA3E0FDA3E0FEA3E0FF12485C
:107CF00016E53B25E025E0244FF582E43407F583C3
:107D00001248BFE53B25E025E0244FF582E4340727
:107D1000F583C083C082E0FCA3E0FDA3E0FEA3E006
:107D2000FF744D253BF582E43407F583E0F9F81242
:107D30004872D082D0831248BF7477253BF582E425
:107D40003408F583E4F0053B027C9AD20B7F0112E4
:107D50008EE922900002EEF0A3EFF090000874018B
:107D6000F0E4FF129901E4FF12990712999578D86F
:107D70007C067D017B017A07793C7E007F5B124A9D
:107D80001E900006E4F0A37406F0E4900004F0A353
:107D9000F0900006E0FEA3E0FF900004E0FCA3E00A
:107DA000FDC39FEE6480F8EC648098503FEDC4F80A
:107DB000540FC868FFECC454F048FE7B01743C2F9C
:107DC000F974073EFA900002E0A3E0FFED2FFD12E8
:107DD0007ADAEF6007E4900008F08010900005E088
:107DE00004F07006900004E004F080A5783C7C0765
:107DF0007D017B017A0679D87E007F5B124A1E9056
:107E00000008E0FF229009C57401F0E49009D0F069
:107E10007F101297B47F101297C17D077F1D1294B7
:107E2000D79058967404F0A3E4F090589EF0905BBD
:107E300007E04418F0905893E4F0905B88F0A3F0CA
:107E4000905880740AF0A3E4F0905883F09058881A
:107E50007412F0A304F090588DE4F0904E01741465
:107E6000F0900007740CF0A37401F07B007A807D21
:107E70006B7C8D7F02126C169009C5E075F003A42F
:107E800024CCF582E43409F583E0904E0EF090099D
:107E9000C5E075F003A424CAF582E43409F583E053
:107EA000FCA3E0FD7B027A4E790C1296F49009C592
:107EB000E0FF127F6722C0E0C083C082C085C0841B
:107EC000C086758600C093759300C0D075D000C081
:107ED00001C002C003C006C007E4FBA2AF33FAD260
:107EE000AF9044F474FDF0906566E0FFFE541EF917
:107EF00060069009C4E049F0EF30E545906446E043
:107F0000FE9009C1E024A1F582E43409F583EEF086
:107F10007B01EB602C90099FE060069009C374011F
:107F2000F09009C1E004F0E0C394204002E4F09036
:107F300009A0E0FE9009C1E0B5060690099F740112
:107F4000F0EF20E5A2AF02EA24FF92AFD007D006FF
:107F5000D003D002D001D0D0D093D086D084D085A9
:107F6000D082D083D0E032E49009CBF0EF6401609E
:107F700003028014904E007432F0904E027406F0AA
:107F8000A37408F0A3E4F0A3F0A3741FF0904E08CC
:107F9000E4F0A3F0A3F0904E1404F090588474140D
:107FA000F0A37405F0A37416F0A3E4F090588A745B
:107FB00044F0A37448F0A37401F090588E04F0A329
:107FC0007422F0A37428F0A374EBF07F52128DFF9B
:107FD0009058947458F0A3E4F090589A04F0A3F0E9
:107FE000A3E4F0A3740AF0E4FF1294F0E47F337E7C
:107FF00003FDFC9009D11248BF7D017F047E001271
:1080000071DD7D017F157E0012743E7C997DA37F1A
:108010001D1289C7229006CFEBF0A3EAF0A3E9F086
:10802000A3ECF0A3EDF07F3A12978D7F3A12978D73
:108030009006D4E0600B90073DE004FF12978D801E
:108040000890073DE0FF12978D9006D2E0A3E0FF75
:1080500012978DE4F546F547D39006D3E095479007
:1080600006D2E0954640229006CFE0FBA3E0FAA3BB
:10807000E02547F9EA3546FA124675FF12978D0555
:1080800047E5477002054680CFE4F546F54712986C
:10809000EFEF20E0130547E547AE467002054614B2
:1080A000D394E8EE940340E69006D4E0700A7F0192
:1080B00012993DE4FF12993D224209F38000C10A62
:1080C00001080042090C0001C19141093000410939
:1080D000C2004109C4004109A0004109C100410991
:1080E0009F004109C3004109F5004109F60041091B
:1080F000F7004109F8004109F9004109FA00410976
:10810000D0004109CB004109C6004109CC0041091A
:10811000C5014109FBFF4109FC004109E980410912
:10812000E87F4409E4000004004409DB02DC6C0041
:108130004409D60000BB804109DA304409E05DC043
:1081400000004109FD004109FEFF4309EA0000006B
:108150004109FF0000900002EBF0A3EAF0A3E9F070
:10816000A3ECF0A3EDF07F3A12978D7F3A12978D32
:10817000900007E0FF12978D900005E0A3E0FF124A
:10818000978DE4F53FF540D3900006E095409000D0
:1081900005E0953F4022900002E0FBA3E0FAA3E057
:1081A0002540F9EA353FFA124675FF12978D0540D2
:1081B000E5407002053F80CFE4F53FF5401298EFAF
:1081C000EF20E0130540E540AE3F7002053F14D3B9
:1081D00094E8EE940340E67F0112993DE4FF129982
:1081E0003D2212957D900003EFF09009C5E09000CC
:1081F00002F09043AAE04401F0E04410F09043BA4A
:10820000E04401F0E04410F09046F8E04402F0A3AE
:10821000E04402F0905891E04403F07F037E0012A6
:10822000922C9046F8E054FDF0A3E054FDF09058F5
:1082300077E04406F0905882747AF09043A1E044CD
:1082400001F09043B1E04401F09043A2E04402F019
:108250009043B2E04402F09044DB7420F09044C3B9
:10826000F0900003E0FF1295212290FFFC124911CB
:108270001248BF850E83850F82E0A3E0A3E0FEA332
:10828000E0D39400EE9480403D9009E0E0FCA3E050
:10829000FDA3E0FEA3E0FF128F00850E83850F8211
:1082A000C083C082E0FCA3E0FDA3E0FEA3E02400C5
:1082B000FFEE3480FEED34FFFDEC34FFFCD082D0C5
:1082C000831248BF80AD9009D6E0FCA3E0FDA3E097
:1082D000FEA3E0FF850E83850F82E0F8A3E0F9A3FB
:1082E000E0FAA3E0FB1246EC128F00900004124962
:1082F0001122900003ECF0A3EDF0A3EBF09000024C
:10830000EFF09000077401F0EFC394805065900087
:1083100003E054F0A3705C900002E075F008A42420
:1083200000FFE5F03478FE900008F0A3EFF0AA0615
:10833000F97B01900003E0FCA3E0FD1296F49000AD
:1083400005E0FF900002E0FE75F008A42402F5822B
:10835000E5F03478F583EFF0900006E0FF75F00863
:10836000EEA42403F582E5F03478F583EFF0E49091
:108370000007F0900007E0FF22AC077A01ECC394FD
:1083800018506CEB540175F080A4FFED547F4FFF43
:1083900075F008ECA42400F582E5F03476F583EF5F
:1083A000F090000CE0540F75F010A4FF90000BE06B
:1083B000540F4FFF75F008ECA42401F582E5F0346A
:1083C00076F583EFF090000DE0540FFF75F008ECA8
:1083D000A42402F582E5F03476F583EFF075F00819
:1083E000ECA42403F582E5F03476F583E4F01AAFCB
:1083F0000222900009ECF0A3EDF0A3EAF0A3EBF069
:10840000900008EFF090000D7401F0EFC394185045
:1084100053900008E075F008A42404FFE5F03476DA
:10842000FE90000EF0A3EFF0AA06F97B0190000980
:10843000E0FCA3E0FD1296F4900008E075F008A4BB
:108440002406FFE5F03476FE90000EF0A3EFF0AACC
:1084500006F97B0190000BE0FCA3E0FD1296F4E42A
:1084600090000DF090000DE0FF22900003ECF0A3CF
:10847000EDF0A3EAF0A3EBF0900002EFF09000071C
:108480007401F0EFC394805053900002E075F0083F
:10849000A42404FFE5F03478FE900008F0A3EFF088
:1084A000AA06F97B01900003E0FCA3E0FD1296F41C
:1084B000900002E075F008A42406FFE5F03478FE91
:1084C000900008F0A3EFF0AA06F97B01900005E008
:1084D000FCA3E0FD1296F4E4900007F0900007E0A2
:1084E000FF227806124872E47B20FAF9F81246EC73
:1084F000C004C005C006C007E47FE07E03FDFC9019
:108500000976E0F8A3E0F9A3E0FAA3E0FB1246EC59
:10851000D003D002D001D000EF2BFFEE3AFEED39B0
:10852000FDEC38FC780A12485E90097A1248BF9038
:10853000097AE0FCA3E0FDA3E0FEA3E0FF9009764A
:108540001248BF90097AE0FCA3E0FDA3E0FEA3E09F
:10855000FF780612485E227806124872E47B20FA01
:10856000F9F81246ECC004C005C006C007E47FE07D
:108570007E03FDFC90097EE0F8A3E0F9A3E0FAA3F6
:10858000E0FB1246ECD003D002D001D000EF2BFF6D
:10859000EE3AFEED39FDEC38FC780A12485E90099F
:1085A000821248BF900982E0FCA3E0FDA3E0FEA395
:1085B000E0FF90097E1248BF900982E0FCA3E0FD35
:1085C000A3E0FEA3E0FF780612485E2290000FEBC6
